{
  "address": "0x2b5B65080a020D1baDbF0aA6aD0F2B558E062150",
  "abi": [
    {
      "inputs": [
        {
          "internalType": "contract IAuroERC20",
          "name": "_auro",
          "type": "address"
        },
        {
          "internalType": "uint256",
          "name": "_auroPerBlock",
          "type": "uint256"
        }
      ],
      "stateMutability": "nonpayable",
      "type": "constructor"
    },
    {
      "anonymous": false,
      "inputs": [
        {
          "indexed": true,
          "internalType": "address",
          "name": "caller",
          "type": "address"
        },
        {
          "indexed": false,
          "internalType": "uint256",
          "name": "previousAmount",
          "type": "uint256"
        },
        {
          "indexed": false,
          "internalType": "uint256",
          "name": "newAmount",
          "type": "uint256"
        }
      ],
      "name": "AllocPointsUpdated",
      "type": "event"
    },
    {
      "anonymous": false,
      "inputs": [
        {
          "indexed": true,
          "internalType": "address",
          "name": "user",
          "type": "address"
        },
        {
          "indexed": true,
          "internalType": "uint256",
          "name": "pid",
          "type": "uint256"
        },
        {
          "indexed": false,
          "internalType": "uint256",
          "name": "amount",
          "type": "uint256"
        }
      ],
      "name": "Deposit",
      "type": "event"
    },
    {
      "anonymous": false,
      "inputs": [
        {
          "indexed": true,
          "internalType": "address",
          "name": "caller",
          "type": "address"
        },
        {
          "indexed": false,
          "internalType": "address",
          "name": "oldAddress",
          "type": "address"
        },
        {
          "indexed": false,
          "internalType": "address",
          "name": "newAddress",
          "type": "address"
        }
      ],
      "name": "DevAddressChanged",
      "type": "event"
    },
    {
      "anonymous": false,
      "inputs": [
        {
          "indexed": true,
          "internalType": "address",
          "name": "user",
          "type": "address"
        },
        {
          "indexed": true,
          "internalType": "uint256",
          "name": "pid",
          "type": "uint256"
        },
        {
          "indexed": false,
          "internalType": "uint256",
          "name": "amount",
          "type": "uint256"
        }
      ],
      "name": "EmergencyWithdraw",
      "type": "event"
    },
    {
      "anonymous": false,
      "inputs": [
        {
          "indexed": true,
          "internalType": "address",
          "name": "caller",
          "type": "address"
        },
        {
          "indexed": false,
          "internalType": "uint256",
          "name": "previousAmount",
          "type": "uint256"
        },
        {
          "indexed": false,
          "internalType": "uint256",
          "name": "newAmount",
          "type": "uint256"
        }
      ],
      "name": "EmissionRateUpdated",
      "type": "event"
    },
    {
      "anonymous": false,
      "inputs": [
        {
          "indexed": true,
          "internalType": "address",
          "name": "caller",
          "type": "address"
        },
        {
          "indexed": false,
          "internalType": "address",
          "name": "oldAddress",
          "type": "address"
        },
        {
          "indexed": false,
          "internalType": "address",
          "name": "newAddress",
          "type": "address"
        }
      ],
      "name": "FeeAddressChanged",
      "type": "event"
    },
    {
      "anonymous": false,
      "inputs": [
        {
          "indexed": true,
          "internalType": "address",
          "name": "previousOperator",
          "type": "address"
        },
        {
          "indexed": true,
          "internalType": "address",
          "name": "newOperator",
          "type": "address"
        }
      ],
      "name": "OperatorTransferred",
      "type": "event"
    },
    {
      "anonymous": false,
      "inputs": [
        {
          "indexed": true,
          "internalType": "address",
          "name": "previousOwner",
          "type": "address"
        },
        {
          "indexed": true,
          "internalType": "address",
          "name": "newOwner",
          "type": "address"
        }
      ],
      "name": "OwnershipTransferred",
      "type": "event"
    },
    {
      "anonymous": false,
      "inputs": [
        {
          "indexed": true,
          "internalType": "address",
          "name": "user",
          "type": "address"
        },
        {
          "indexed": true,
          "internalType": "uint256",
          "name": "pid",
          "type": "uint256"
        },
        {
          "indexed": false,
          "internalType": "uint256",
          "name": "amountLockedUp",
          "type": "uint256"
        }
      ],
      "name": "RewardLockedUp",
      "type": "event"
    },
    {
      "anonymous": false,
      "inputs": [
        {
          "indexed": true,
          "internalType": "address",
          "name": "caller",
          "type": "address"
        },
        {
          "indexed": false,
          "internalType": "address",
          "name": "token",
          "type": "address"
        },
        {
          "indexed": false,
          "internalType": "uint256",
          "name": "amount",
          "type": "uint256"
        }
      ],
      "name": "TokensRescued",
      "type": "event"
    },
    {
      "anonymous": false,
      "inputs": [
        {
          "indexed": true,
          "internalType": "address",
          "name": "user",
          "type": "address"
        },
        {
          "indexed": true,
          "internalType": "uint256",
          "name": "pid",
          "type": "uint256"
        },
        {
          "indexed": false,
          "internalType": "uint256",
          "name": "amount",
          "type": "uint256"
        }
      ],
      "name": "Withdraw",
      "type": "event"
    },
    {
      "inputs": [],
      "name": "MAXIMUM_DEPOSIT_FEE_RATE",
      "outputs": [
        {
          "internalType": "uint16",
          "name": "",
          "type": "uint16"
        }
      ],
      "stateMutability": "view",
      "type": "function"
    },
    {
      "inputs": [],
      "name": "MAXIMUM_HARVEST_INTERVAL",
      "outputs": [
        {
          "internalType": "uint256",
          "name": "",
          "type": "uint256"
        }
      ],
      "stateMutability": "view",
      "type": "function"
    },
    {
      "inputs": [
        {
          "internalType": "uint256",
          "name": "_allocPoint",
          "type": "uint256"
        },
        {
          "internalType": "contract IERC20",
          "name": "_lpToken",
          "type": "address"
        },
        {
          "internalType": "uint16",
          "name": "_depositFeeBP",
          "type": "uint16"
        },
        {
          "internalType": "uint256",
          "name": "_harvestInterval",
          "type": "uint256"
        },
        {
          "internalType": "bool",
          "name": "_withUpdate",
          "type": "bool"
        }
      ],
      "name": "add",
      "outputs": [],
      "stateMutability": "nonpayable",
      "type": "function"
    },
    {
      "inputs": [],
      "name": "auro",
      "outputs": [
        {
          "internalType": "contract IAuroERC20",
          "name": "",
          "type": "address"
        }
      ],
      "stateMutability": "view",
      "type": "function"
    },
    {
      "inputs": [],
      "name": "auroPerBlock",
      "outputs": [
        {
          "internalType": "uint256",
          "name": "",
          "type": "uint256"
        }
      ],
      "stateMutability": "view",
      "type": "function"
    },
    {
      "inputs": [
        {
          "internalType": "uint256",
          "name": "_pid",
          "type": "uint256"
        },
        {
          "internalType": "address",
          "name": "_user",
          "type": "address"
        }
      ],
      "name": "canHarvest",
      "outputs": [
        {
          "internalType": "bool",
          "name": "",
          "type": "bool"
        }
      ],
      "stateMutability": "view",
      "type": "function"
    },
    {
      "inputs": [
        {
          "internalType": "uint256",
          "name": "_pid",
          "type": "uint256"
        },
        {
          "internalType": "uint256",
          "name": "_amount",
          "type": "uint256"
        }
      ],
      "name": "deposit",
      "outputs": [],
      "stateMutability": "nonpayable",
      "type": "function"
    },
    {
      "inputs": [],
      "name": "devAddress",
      "outputs": [
        {
          "internalType": "address",
          "name": "",
          "type": "address"
        }
      ],
      "stateMutability": "view",
      "type": "function"
    },
    {
      "inputs": [
        {
          "internalType": "uint256",
          "name": "_pid",
          "type": "uint256"
        }
      ],
      "name": "emergencyWithdraw",
      "outputs": [],
      "stateMutability": "nonpayable",
      "type": "function"
    },
    {
      "inputs": [],
      "name": "feeAddress",
      "outputs": [
        {
          "internalType": "address",
          "name": "",
          "type": "address"
        }
      ],
      "stateMutability": "view",
      "type": "function"
    },
    {
      "inputs": [
        {
          "internalType": "uint256",
          "name": "_from",
          "type": "uint256"
        },
        {
          "internalType": "uint256",
          "name": "_to",
          "type": "uint256"
        }
      ],
      "name": "getMultiplier",
      "outputs": [
        {
          "internalType": "uint256",
          "name": "",
          "type": "uint256"
        }
      ],
      "stateMutability": "pure",
      "type": "function"
    },
    {
      "inputs": [
        {
          "internalType": "address",
          "name": "forwarder",
          "type": "address"
        }
      ],
      "name": "isTrustedForwarder",
      "outputs": [
        {
          "internalType": "bool",
          "name": "",
          "type": "bool"
        }
      ],
      "stateMutability": "view",
      "type": "function"
    },
    {
      "inputs": [],
      "name": "massUpdatePools",
      "outputs": [],
      "stateMutability": "nonpayable",
      "type": "function"
    },
    {
      "inputs": [],
      "name": "operator",
      "outputs": [
        {
          "internalType": "address",
          "name": "",
          "type": "address"
        }
      ],
      "stateMutability": "view",
      "type": "function"
    },
    {
      "inputs": [],
      "name": "owner",
      "outputs": [
        {
          "internalType": "address",
          "name": "",
          "type": "address"
        }
      ],
      "stateMutability": "view",
      "type": "function"
    },
    {
      "inputs": [
        {
          "internalType": "uint256",
          "name": "_pid",
          "type": "uint256"
        },
        {
          "internalType": "address",
          "name": "_user",
          "type": "address"
        }
      ],
      "name": "pendingAuro",
      "outputs": [
        {
          "internalType": "uint256",
          "name": "",
          "type": "uint256"
        }
      ],
      "stateMutability": "view",
      "type": "function"
    },
    {
      "inputs": [
        {
          "internalType": "uint256",
          "name": "",
          "type": "uint256"
        }
      ],
      "name": "poolInfo",
      "outputs": [
        {
          "internalType": "contract IERC20",
          "name": "lpToken",
          "type": "address"
        },
        {
          "internalType": "uint256",
          "name": "allocPoint",
          "type": "uint256"
        },
        {
          "internalType": "uint256",
          "name": "lastRewardBlock",
          "type": "uint256"
        },
        {
          "internalType": "uint256",
          "name": "accAuroPerShare",
          "type": "uint256"
        },
        {
          "internalType": "uint16",
          "name": "depositFeeBP",
          "type": "uint16"
        },
        {
          "internalType": "uint256",
          "name": "harvestInterval",
          "type": "uint256"
        },
        {
          "internalType": "uint256",
          "name": "totalLp",
          "type": "uint256"
        }
      ],
      "stateMutability": "view",
      "type": "function"
    },
    {
      "inputs": [],
      "name": "poolLength",
      "outputs": [
        {
          "internalType": "uint256",
          "name": "",
          "type": "uint256"
        }
      ],
      "stateMutability": "view",
      "type": "function"
    },
    {
      "inputs": [],
      "name": "renounceOwnership",
      "outputs": [],
      "stateMutability": "nonpayable",
      "type": "function"
    },
    {
      "inputs": [
        {
          "internalType": "contract IERC20",
          "name": "token",
          "type": "address"
        },
        {
          "internalType": "uint256",
          "name": "value",
          "type": "uint256"
        }
      ],
      "name": "rescueTokens",
      "outputs": [],
      "stateMutability": "nonpayable",
      "type": "function"
    },
    {
      "inputs": [
        {
          "internalType": "uint256",
          "name": "_pid",
          "type": "uint256"
        },
        {
          "internalType": "uint256",
          "name": "_allocPoint",
          "type": "uint256"
        },
        {
          "internalType": "uint16",
          "name": "_depositFeeBP",
          "type": "uint16"
        },
        {
          "internalType": "uint256",
          "name": "_harvestInterval",
          "type": "uint256"
        },
        {
          "internalType": "bool",
          "name": "_withUpdate",
          "type": "bool"
        }
      ],
      "name": "set",
      "outputs": [],
      "stateMutability": "nonpayable",
      "type": "function"
    },
    {
      "inputs": [
        {
          "internalType": "address",
          "name": "_devAddress",
          "type": "address"
        }
      ],
      "name": "setDevAddress",
      "outputs": [],
      "stateMutability": "nonpayable",
      "type": "function"
    },
    {
      "inputs": [
        {
          "internalType": "address",
          "name": "_feeAddress",
          "type": "address"
        }
      ],
      "name": "setFeeAddress",
      "outputs": [],
      "stateMutability": "nonpayable",
      "type": "function"
    },
    {
      "inputs": [],
      "name": "startBlock",
      "outputs": [
        {
          "internalType": "uint256",
          "name": "",
          "type": "uint256"
        }
      ],
      "stateMutability": "view",
      "type": "function"
    },
    {
      "inputs": [],
      "name": "startFarming",
      "outputs": [],
      "stateMutability": "nonpayable",
      "type": "function"
    },
    {
      "inputs": [],
      "name": "totalAllocPoint",
      "outputs": [
        {
          "internalType": "uint256",
          "name": "",
          "type": "uint256"
        }
      ],
      "stateMutability": "view",
      "type": "function"
    },
    {
      "inputs": [],
      "name": "totalAuroInPools",
      "outputs": [
        {
          "internalType": "uint256",
          "name": "",
          "type": "uint256"
        }
      ],
      "stateMutability": "view",
      "type": "function"
    },
    {
      "inputs": [],
      "name": "totalLockedUpRewards",
      "outputs": [
        {
          "internalType": "uint256",
          "name": "",
          "type": "uint256"
        }
      ],
      "stateMutability": "view",
      "type": "function"
    },
    {
      "inputs": [
        {
          "internalType": "address",
          "name": "newOperator",
          "type": "address"
        }
      ],
      "name": "transferOperator",
      "outputs": [],
      "stateMutability": "nonpayable",
      "type": "function"
    },
    {
      "inputs": [
        {
          "internalType": "address",
          "name": "newOwner",
          "type": "address"
        }
      ],
      "name": "transferOwnership",
      "outputs": [],
      "stateMutability": "nonpayable",
      "type": "function"
    },
    {
      "inputs": [
        {
          "internalType": "uint256",
          "name": "_pid",
          "type": "uint256"
        },
        {
          "internalType": "uint256",
          "name": "_allocPoint",
          "type": "uint256"
        },
        {
          "internalType": "bool",
          "name": "_withUpdate",
          "type": "bool"
        }
      ],
      "name": "updateAllocPoint",
      "outputs": [],
      "stateMutability": "nonpayable",
      "type": "function"
    },
    {
      "inputs": [
        {
          "internalType": "uint256",
          "name": "_auroPerBlock",
          "type": "uint256"
        }
      ],
      "name": "updateEmissionRate",
      "outputs": [],
      "stateMutability": "nonpayable",
      "type": "function"
    },
    {
      "inputs": [
        {
          "internalType": "uint256",
          "name": "_pid",
          "type": "uint256"
        }
      ],
      "name": "updatePool",
      "outputs": [],
      "stateMutability": "nonpayable",
      "type": "function"
    },
    {
      "inputs": [
        {
          "internalType": "uint256",
          "name": "",
          "type": "uint256"
        },
        {
          "internalType": "address",
          "name": "",
          "type": "address"
        }
      ],
      "name": "userInfo",
      "outputs": [
        {
          "internalType": "uint256",
          "name": "amount",
          "type": "uint256"
        },
        {
          "internalType": "uint256",
          "name": "rewardDebt",
          "type": "uint256"
        },
        {
          "internalType": "uint256",
          "name": "rewardLockedUp",
          "type": "uint256"
        },
        {
          "internalType": "uint256",
          "name": "nextHarvestUntil",
          "type": "uint256"
        }
      ],
      "stateMutability": "view",
      "type": "function"
    },
    {
      "inputs": [
        {
          "internalType": "uint256",
          "name": "_pid",
          "type": "uint256"
        },
        {
          "internalType": "uint256",
          "name": "_amount",
          "type": "uint256"
        }
      ],
      "name": "withdraw",
      "outputs": [],
      "stateMutability": "nonpayable",
      "type": "function"
    }
  ],
  "transactionHash": "0xd4ef88bc7b9fe6f18dc784fa799ec706fd314a656a2793581873b0922645453d",
  "args": [
    "0xaBE380931cd3Ae6E7197337BBC7462CCb8b90f46",
    "60000000000000000000"
  ],
  "solcInputHash": "1b6985033d8c004e12c665cd58b695d2",
  "bytecode": "0x608060405260006009556000600c553480156200001b57600080fd5b5060405162002cc238038062002cc28339810160408190526200003e9162000184565b620000526200004c620000e6565b62000130565b6001805562000066436312cc0300620001be565b600a55600280546001600160a01b038085166001600160a01b031992831617909255600683905560048054821633908117909155600580548316821790556003805490921617908190556040519116906000907f74da04524d50c64947f5dd5381ef1a4dca5cba8ed1d816243f9e48aa0b5617ed908290a35050620001e3565b600073ea9983bbb6fd1f95cd0a40275c6ac51b56ae617633141562000115575060131936013560601c6200012d565b6200012a6200018060201b62001fc51760201c565b90505b90565b600080546001600160a01b038381166001600160a01b0319831681178455604051919092169283917f8be0079c531659141344cd1fd0a4f28419497f9722a3daafe3b4186f6b6457e09190a35050565b3390565b6000806040838503121562000197578182fd5b82516001600160a01b0381168114620001ae578283fd5b6020939093015192949293505050565b60008219821115620001de57634e487b7160e01b81526011600452602481fd5b500190565b612acf80620001f36000396000f3fe608060405234801561001057600080fd5b50600436106102115760003560e01c80635737619811610125578063a1f5a3eb116100ad578063d0d41fe11161007c578063d0d41fe1146104ce578063de73149d146104e1578063e2bbb158146104eb578063e663f31e146104fe578063f2fde38b1461050757610211565b8063a1f5a3eb14610497578063af018de8146104a0578063afbcfea1146104b3578063bde4aeca146104bb57610211565b80638705fcd4116100f45780638705fcd4146103ed5780638da5cb5b146104005780638dbb1e3a1461041157806393acfc481461042457806393f1a40b1461043757610211565b806357376198146103ae578063630b5ba1146103c1578063715018a6146103c9578063812c64f1146103d157610211565b80633ad10ef6116101a857806348cd4cb11161017757806348cd4cb11461035b57806351eb05a6146103645780635312ea8e14610377578063570ca7351461038a578063572b6c051461039b57610211565b80633ad10ef614610319578063412753581461032c578063441a3e701461033f578063474fa6301461035257610211565b80632143e545116101e45780632143e545146102a557806321dd70e6146102b857806329605e77146102e35780632e6c998d146102f657610211565b8063081e3eda146102165780630ba84cd2146102315780631526fe271461024657806317caf6f11461029c575b600080fd5b61021e61051a565b6040519081526020015b60405180910390f35b61024461023f36600461276a565b610521565b005b61025961025436600461276a565b61059f565b604080516001600160a01b039098168852602088019690965294860193909352606085019190915261ffff16608084015260a083015260c082015260e001610228565b61021e60095481565b6102446102b336600461287e565b6105fc565b6002546102cb906001600160a01b031681565b6040516001600160a01b039091168152602001610228565b6102446102f1366004612707565b610815565b61030961030436600461279a565b61090c565b6040519015158152602001610228565b6004546102cb906001600160a01b031681565b6005546102cb906001600160a01b031681565b61024461034d366004612825565b61094c565b61021e600b5481565b61021e600a5481565b61024461037236600461276a565b610b86565b61024461038536600461276a565b610dbc565b6003546001600160a01b03166102cb565b6103096103a9366004612707565b610f6a565b6102446103bc36600461273f565b610f90565b6102446110a6565b61024461123d565b6103da6103e881565b60405161ffff9091168152602001610228565b6102446103fb366004612707565b611290565b6000546001600160a01b03166102cb565b61021e61041f366004612825565b6113bc565b61021e61043236600461279a565b6113cf565b61047761044536600461279a565b600860209081526000928352604080842090915290825290208054600182015460028301546003909301549192909184565b604080519485526020850193909352918301526060820152608001610228565b61021e600c5481565b6102446104ae3660046127c9565b61156a565b61024461181e565b6102446104c9366004612846565b61191c565b6102446104dc366004612707565b611a43565b61021e6212750081565b6102446104f9366004612825565b611b6f565b61021e60065481565b610244610515366004612707565b611f0e565b6007545b90565b6003546001600160a01b031633146105545760405162461bcd60e51b815260040161054b90612967565b60405180910390fd5b61055c6110a6565b600654604080519182526020820183905233917feedc6338c9c1ad8f3cd6c90dd09dbe98dbd57e610d3e59a17996d07acb0d9511910160405180910390a2600655565b600781815481106105af57600080fd5b600091825260209091206007909102018054600182015460028301546003840154600485015460058601546006909601546001600160a01b03909516965092949193909261ffff16919087565b610604611fc9565b6001600160a01b031661061f6000546001600160a01b031690565b6001600160a01b0316146106455760405162461bcd60e51b815260040161054b906128fb565b6103e861ffff8416111561069b5760405162461bcd60e51b815260206004820152601960248201527f7365743a206465706f7369742066656520746f6f206869676800000000000000604482015260640161054b565b621275008211156106ee5760405162461bcd60e51b815260206004820152601d60248201527f7365743a20696e76616c6964206861727665737420696e74657276616c000000604482015260640161054b565b80156106fc576106fc6110a6565b61074d846107476007888154811061072457634e487b7160e01b600052603260045260246000fd5b906000526020600020906007020160010154600954611fef90919063ffffffff16565b90611ffb565b600981905550836007868154811061077557634e487b7160e01b600052603260045260246000fd5b90600052602060002090600702016001018190555082600786815481106107ac57634e487b7160e01b600052603260045260246000fd5b906000526020600020906007020160040160006101000a81548161ffff021916908361ffff16021790555081600786815481106107f957634e487b7160e01b600052603260045260246000fd5b9060005260206000209060070201600501819055505050505050565b6003546001600160a01b0316331461083f5760405162461bcd60e51b815260040161054b90612967565b6001600160a01b0381166108b05760405162461bcd60e51b815260206004820152603260248201527f5472616e736665724f70657261746f723a206e6577206f70657261746f7220696044820152717320746865207a65726f206164647265737360701b606482015260840161054b565b6003546040516001600160a01b038084169216907f74da04524d50c64947f5dd5381ef1a4dca5cba8ed1d816243f9e48aa0b5617ed90600090a3600380546001600160a01b0319166001600160a01b0392909216919091179055565b60008281526008602090815260408083206001600160a01b03851684529091528120600a544310801590610944575080600301544210155b949350505050565b6002600154141561096f5760405162461bcd60e51b815260040161054b90612930565b600260018190555060006007838154811061099a57634e487b7160e01b600052603260045260246000fd5b600091825260208083208684526008909152604083206007909202019250816109c1611fc9565b6001600160a01b03166001600160a01b0316815260200190815260200160002090508281600001541015610a375760405162461bcd60e51b815260206004820181905260248201527f57697468647261773a205573657220616d6f756e74206e6f7420656e6f756768604482015260640161054b565b8282600601541015610a8b5760405162461bcd60e51b815260206004820152601f60248201527f57697468647261773a20506f6f6c20746f74616c206e6f7420656e6f75676800604482015260640161054b565b610a9484610b86565b610a9d84612007565b8215610b0b578054610aaf9084611fef565b81556006820154610ac09084611fef565b600683015560025482546001600160a01b0390811691161415610aee57600c54610aea9084611fef565b600c555b610b0b610af9611fc9565b83546001600160a01b031690856121e4565b60038201548154610b2c9164e8d4a5100091610b269161224c565b90612258565b600182015583610b3a611fc9565b6001600160a01b03167ff279e6a1f5e320cca91135676d9cb6e44ca8a08c0b88342bcdb1144f6511b56885604051610b7491815260200190565b60405180910390a35050600180555050565b600060078281548110610ba957634e487b7160e01b600052603260045260246000fd5b9060005260206000209060070201905080600201544311610bca5750610db9565b80546040516370a0823160e01b81523060048201526000916001600160a01b0316906370a082319060240160206040518083038186803b158015610c0d57600080fd5b505afa158015610c21573d6000803e3d6000fd5b505050506040513d601f19601f82011682018060405250810190610c459190612782565b905080610c59575043600290910155610db9565b6000610c698360020154436113bc565b90506000610c96600954610b268660010154610c906006548761224c90919063ffffffff16565b9061224c565b6002546004549192506001600160a01b03908116916340c10f199116610cbd84600a612258565b6040516001600160e01b031960e085901b1681526001600160a01b0390921660048301526024820152604401600060405180830381600087803b158015610d0357600080fd5b505af1158015610d17573d6000803e3d6000fd5b50506002546040516340c10f1960e01b8152306004820152602481018590526001600160a01b0390911692506340c10f199150604401600060405180830381600087803b158015610d6757600080fd5b505af1158015610d7b573d6000803e3d6000fd5b5050506006850154610da69150610d9b90610b268464e8d4a5100061224c565b600386015490611ffb565b6003850155505043600290920191909155505b50565b60026001541415610ddf5760405162461bcd60e51b815260040161054b90612930565b6002600181905550600060078281548110610e0a57634e487b7160e01b600052603260045260246000fd5b60009182526020808320858452600890915260408320600790920201925081610e31611fc9565b6001600160a01b0316815260208101919091526040016000208054600684015491925090811115610eb55760405162461bcd60e51b815260206004820152602860248201527f456d657267656e637957697468647261773a20506f6f6c20746f74616c206e6f6044820152670e840cadcdeeaced60c31b606482015260840161054b565b6000808355600183018190556002830181905560038301556006830154610edc9082611fef565b600684015560025483546001600160a01b0390811691161415610f0a57600c54610f069082611fef565b600c555b610f27610f15611fc9565b84546001600160a01b031690836121e4565b83610f30611fc9565b6001600160a01b03167fbb757047c2b5f3974fe26b7c10f732e7bce710b0952a71082702781e62ae059583604051610b7491815260200190565b6001600160a01b03811673ea9983bbb6fd1f95cd0a40275c6ac51b56ae6176145b919050565b6003546001600160a01b03163314610fba5760405162461bcd60e51b815260040161054b90612967565b816001600160a01b031663a9059cbb610fd1611fc9565b6040516001600160e01b031960e084901b1681526001600160a01b03909116600482015260248101849052604401602060405180830381600087803b15801561101957600080fd5b505af115801561102d573d6000803e3d6000fd5b505050506040513d601f19601f820116820180604052508101906110519190612723565b5061105a611fc9565b604080516001600160a01b0385811682526020820185905292909216917f77023e19c7343ad491fd706c36335ca0e738340a91f29b1fd81e2673d44896c4910160405180910390a25050565b6007546000805b82811015611221576000600782815481106110d857634e487b7160e01b600052603260045260246000fd5b90600052602060002090600702019050806002015443116110fc575050505061123b565b80546040516370a0823160e01b81523060048201526000916001600160a01b0316906370a082319060240160206040518083038186803b15801561113f57600080fd5b505afa158015611153573d6000803e3d6000fd5b505050506040513d601f19601f820116820180604052508101906111779190612782565b90508061118f5750436002909101555061123b915050565b600061119f8360020154436113bc565b905060006111c6600954610b268660010154610c906006548761224c90919063ffffffff16565b90506111eb610d9b8560060154610b2664e8d4a510008561224c90919063ffffffff16565b600385015543600285015561120b61120482600a612258565b8790611ffb565b50505050508061121a90612a45565b90506110ad565b50600454611238906001600160a01b031682612264565b50505b565b611245611fc9565b6001600160a01b03166112606000546001600160a01b031690565b6001600160a01b0316146112865760405162461bcd60e51b815260040161054b906128fb565b61123b6000612490565b6005546001600160a01b03166112a4611fc9565b6001600160a01b0316146112fa5760405162461bcd60e51b815260206004820152601860248201527f736574466565416464726573733a20464f5242494444454e0000000000000000604482015260640161054b565b6001600160a01b0381166113465760405162461bcd60e51b8152602060048201526013602482015272736574466565416464726573733a205a45524f60681b604482015260640161054b565b61134e611fc9565b600554604080516001600160a01b039283168152848316602082015292909116917f6690a53895b5691c039238b384bd857e65c42adcc727775381e02cb90a122613910160405180910390a2600580546001600160a01b0319166001600160a01b0392909216919091179055565b60006113c88284611fef565b9392505050565b600080600784815481106113f357634e487b7160e01b600052603260045260246000fd5b600091825260208083208784526008825260408085206001600160a01b03898116875293528085206007949094029091016003810154815492516370a0823160e01b815230600482015291965093949291909116906370a082319060240160206040518083038186803b15801561146957600080fd5b505afa15801561147d573d6000803e3d6000fd5b505050506040513d601f19601f820116820180604052508101906114a19190612782565b90508360020154431180156114b557508015155b156115155760006114ca8560020154436113bc565b905060006114f1600954610b268860010154610c906006548761224c90919063ffffffff16565b905061151061150984610b268464e8d4a5100061224c565b8590611ffb565b935050505b6000611545846001015461153f64e8d4a51000610b2687896000015461224c90919063ffffffff16565b90611fef565b905061155e846002015482611ffb90919063ffffffff16565b98975050505050505050565b611572611fc9565b6001600160a01b031661158d6000546001600160a01b031690565b6001600160a01b0316146115b35760405162461bcd60e51b815260040161054b906128fb565b6103e861ffff841611156116095760405162461bcd60e51b815260206004820152601960248201527f6164643a206465706f7369742066656520746f6f206869676800000000000000604482015260640161054b565b6212750082111561165c5760405162461bcd60e51b815260206004820152601d60248201527f6164643a20696e76616c6964206861727665737420696e74657276616c000000604482015260640161054b565b801561166a5761166a6110a6565b6000600a54431161167d57600a5461167f565b435b60095490915061168f9087611ffb565b6009556040805160e0810182526001600160a01b0396871681526020810197885290810191825260006060820181815261ffff9687166080840190815260a0840196875260c08401838152600780546001810182559481905294517fa66cc928b5edb82af9bd49922954155ab7b0942694bea4ce44661d9a8736c6889490950293840180546001600160a01b03191695909a169490941790985597517fa66cc928b5edb82af9bd49922954155ab7b0942694bea4ce44661d9a8736c68982015591517fa66cc928b5edb82af9bd49922954155ab7b0942694bea4ce44661d9a8736c68a83015595517fa66cc928b5edb82af9bd49922954155ab7b0942694bea4ce44661d9a8736c68b82015593517fa66cc928b5edb82af9bd49922954155ab7b0942694bea4ce44661d9a8736c68c8501805461ffff19169190941617909255517fa66cc928b5edb82af9bd49922954155ab7b0942694bea4ce44661d9a8736c68d8301555090517fa66cc928b5edb82af9bd49922954155ab7b0942694bea4ce44661d9a8736c68e90910155565b611826611fc9565b6001600160a01b03166118416000546001600160a01b031690565b6001600160a01b0316146118675760405162461bcd60e51b815260040161054b906128fb565b600a5443106118b85760405162461bcd60e51b815260206004820152601b60248201527f4572726f723a3a4661726d207374617274656420616c72656164790000000000604482015260640161054b565b60075460005b81811015611914576000600782815481106118e957634e487b7160e01b600052603260045260246000fd5b90600052602060002090600702019050438160020181905550508061190d90612a45565b90506118be565b505043600a55565b6003546001600160a01b031633146119465760405162461bcd60e51b815260040161054b90612967565b8015611954576119546110a6565b61195c611fc9565b6001600160a01b03167f802633c8d26237616d81bdac01bc40fcdf36e098832601582ec19d7e431c5ef3600785815481106119a757634e487b7160e01b600052603260045260246000fd5b906000526020600020906007020160010154846040516119d1929190918252602082015260400190565b60405180910390a2611a01826107476007868154811061072457634e487b7160e01b600052603260045260246000fd5b6009819055508160078481548110611a2957634e487b7160e01b600052603260045260246000fd5b906000526020600020906007020160010181905550505050565b6004546001600160a01b0316611a57611fc9565b6001600160a01b031614611aad5760405162461bcd60e51b815260206004820152601860248201527f736574446576416464726573733a20464f5242494444454e0000000000000000604482015260640161054b565b6001600160a01b038116611af95760405162461bcd60e51b8152602060048201526013602482015272736574446576416464726573733a205a45524f60681b604482015260640161054b565b611b01611fc9565b600454604080516001600160a01b039283168152848316602082015292909116917fd36d63f6c513a911d7912853de740af476b0fbb569aa769e1a4f5bfa37a325c4910160405180910390a2600480546001600160a01b0319166001600160a01b0392909216919091179055565b60026001541415611b925760405162461bcd60e51b815260040161054b90612930565b6002600155600a54431015611bff5760405162461bcd60e51b815260206004820152602d60248201527f4175726f4469737472696275746f723a2043616e206e6f74206465706f73697460448201526c081899599bdc99481cdd185c9d609a1b606482015260840161054b565b600060078381548110611c2257634e487b7160e01b600052603260045260246000fd5b60009182526020808320868452600890915260408320600790920201925081611c49611fc9565b6001600160a01b03166001600160a01b031681526020019081526020016000209050611c7484610b86565b611c7d84612007565b8215611eab5781546040516370a0823160e01b81523060048201526000916001600160a01b0316906370a082319060240160206040518083038186803b158015611cc657600080fd5b505afa158015611cda573d6000803e3d6000fd5b505050506040513d601f19601f82011682018060405250810190611cfe9190612782565b9050611d1e611d0b611fc9565b84546001600160a01b03169030876124e0565b82546040516370a0823160e01b81523060048201526000916001600160a01b0316906370a082319060240160206040518083038186803b158015611d6157600080fd5b505afa158015611d75573d6000803e3d6000fd5b505050506040513d601f19601f82011682018060405250810190611d999190612782565b9050611da58183611fef565b600485015490955061ffff1615611e5d576004840154600090611dd59061271090610b2690899061ffff1661224c565b6005548654919250611df4916001600160a01b039081169116836121e4565b8354611e0690829061153f9089611ffb565b84556006850154611e1d90829061153f9089611ffb565b600686015560025485546001600160a01b0390811691161415611e5757611e538161153f88600c54611ffb90919063ffffffff16565b600c555b50611ea8565b8254611e699086611ffb565b83556006840154611e7a9086611ffb565b600685015560025484546001600160a01b0390811691161415611ea857600c54611ea49086611ffb565b600c555b50505b60038201548154611ec69164e8d4a5100091610b269161224c565b600182015583611ed4611fc9565b6001600160a01b03167f90890809c654f11d6e72a28fa60149770a0d11ec6c92319d6ceb2bb0a4ea1a1585604051610b7491815260200190565b611f16611fc9565b6001600160a01b0316611f316000546001600160a01b031690565b6001600160a01b031614611f575760405162461bcd60e51b815260040161054b906128fb565b6001600160a01b038116611fbc5760405162461bcd60e51b815260206004820152602660248201527f4f776e61626c653a206e6577206f776e657220697320746865207a65726f206160448201526564647265737360d01b606482015260840161054b565b610db981612490565b3390565b6000611fd433610f6a565b15611fe8575060131936013560601c61051e565b503361051e565b60006113c88284612a02565b60006113c882846129ab565b60006007828154811061202a57634e487b7160e01b600052603260045260246000fd5b60009182526020808320858452600890915260408320600790920201925081612051611fc9565b6001600160a01b03166001600160a01b031681526020019081526020016000209050806003015460001480156120895750600a544310155b156120a457600582015461209e904290611ffb565b60038201555b60006120d2826001015461153f64e8d4a51000610b268760030154876000015461224c90919063ffffffff16565b90506120e084610304611fc9565b156121685760008111806120f8575060008260020154115b15612163576000612116836002015483611ffb90919063ffffffff16565b90506121318360020154600b54611fef90919063ffffffff16565b600b5560006002840155600584015461214b904290611ffb565b600384015561216161215b611fc9565b82612264565b505b6121de565b80156121de57600282015461217d9082611ffb565b6002830155600b5461218f9082611ffb565b600b558361219b611fc9565b6001600160a01b03167fee470483107f579a55c754fa00613c45a9a3b617a418b39cb0be97e5381ba7c1836040516121d591815260200190565b60405180910390a35b50505050565b6040516001600160a01b03831660248201526044810182905261224790849063a9059cbb60e01b906064015b60408051601f198184030181529190526020810180516001600160e01b03166001600160e01b031990931692909217909152612518565b505050565b60006113c882846129e3565b60006113c882846129c3565b600c546002546040516370a0823160e01b81523060048201526001600160a01b03909116906370a082319060240160206040518083038186803b1580156122aa57600080fd5b505afa1580156122be573d6000803e3d6000fd5b505050506040513d601f19601f820116820180604052508101906122e29190612782565b111561123857600c546002546040516370a0823160e01b815230600482015260009261236f9290916001600160a01b03909116906370a082319060240160206040518083038186803b15801561233757600080fd5b505afa15801561234b573d6000803e3d6000fd5b505050506040513d601f19601f8201168201806040525081019061153f9190612782565b90508082106124045760025460405163a9059cbb60e01b81526001600160a01b038581166004830152602482018490529091169063a9059cbb90604401602060405180830381600087803b1580156123c657600080fd5b505af11580156123da573d6000803e3d6000fd5b505050506040513d601f19601f820116820180604052508101906123fe9190612723565b50612247565b81156122475760025460405163a9059cbb60e01b81526001600160a01b038581166004830152602482018590529091169063a9059cbb90604401602060405180830381600087803b15801561245857600080fd5b505af115801561246c573d6000803e3d6000fd5b505050506040513d601f19601f820116820180604052508101906121de9190612723565b600080546001600160a01b038381166001600160a01b0319831681178455604051919092169283917f8be0079c531659141344cd1fd0a4f28419497f9722a3daafe3b4186f6b6457e09190a35050565b6040516001600160a01b03808516602483015283166044820152606481018290526121de9085906323b872dd60e01b90608401612210565b600061256d826040518060400160405280602081526020017f5361666545524332303a206c6f772d6c6576656c2063616c6c206661696c6564815250856001600160a01b03166125ea9092919063ffffffff16565b805190915015612247578080602001905181019061258b9190612723565b6122475760405162461bcd60e51b815260206004820152602a60248201527f5361666545524332303a204552433230206f7065726174696f6e20646964206e6044820152691bdd081cdd58d8d9595960b21b606482015260840161054b565b6060610944848460008585843b6126435760405162461bcd60e51b815260206004820152601d60248201527f416464726573733a2063616c6c20746f206e6f6e2d636f6e7472616374000000604482015260640161054b565b600080866001600160a01b0316858760405161265f91906128ac565b60006040518083038185875af1925050503d806000811461269c576040519150601f19603f3d011682016040523d82523d6000602084013e6126a1565b606091505b50915091506126b18282866126bc565b979650505050505050565b606083156126cb5750816113c8565b8251156126db5782518084602001fd5b8160405162461bcd60e51b815260040161054b91906128c8565b803561ffff81168114610f8b57600080fd5b600060208284031215612718578081fd5b81356113c881612a76565b600060208284031215612734578081fd5b81516113c881612a8b565b60008060408385031215612751578081fd5b823561275c81612a76565b946020939093013593505050565b60006020828403121561277b578081fd5b5035919050565b600060208284031215612793578081fd5b5051919050565b600080604083850312156127ac578182fd5b8235915060208301356127be81612a76565b809150509250929050565b600080600080600060a086880312156127e0578081fd5b8535945060208601356127f281612a76565b9350612800604087016126f5565b925060608601359150608086013561281781612a8b565b809150509295509295909350565b60008060408385031215612837578182fd5b50508035926020909101359150565b60008060006060848603121561285a578283fd5b8335925060208401359150604084013561287381612a8b565b809150509250925092565b600080600080600060a08688031215612895578081fd5b8535945060208601359350612800604087016126f5565b600082516128be818460208701612a19565b9190910192915050565b60006020825282518060208401526128e7816040850160208701612a19565b601f01601f19169190910160400192915050565b6020808252818101527f4f776e61626c653a2063616c6c6572206973206e6f7420746865206f776e6572604082015260600190565b6020808252601f908201527f5265656e7472616e637947756172643a207265656e7472616e742063616c6c00604082015260600190565b60208082526024908201527f4f70657261746f723a2063616c6c6572206973206e6f7420746865206f70657260408201526330ba37b960e11b606082015260800190565b600082198211156129be576129be612a60565b500190565b6000826129de57634e487b7160e01b81526012600452602481fd5b500490565b60008160001904831182151516156129fd576129fd612a60565b500290565b600082821015612a1457612a14612a60565b500390565b60005b83811015612a34578181015183820152602001612a1c565b838111156121de5750506000910152565b6000600019821415612a5957612a59612a60565b5060010190565b634e487b7160e01b600052601160045260246000fd5b6001600160a01b0381168114610db957600080fd5b8015158114610db957600080fdfea2646970667358221220ca1cd5b398160313b377e4c3e0945ae65da1a36e098d98f3e99d373b4abba03864736f6c63430008020033",
  "devdoc": {
    "kind": "dev",
    "methods": {
      "owner()": {
        "details": "Returns the address of the current owner."
      },
      "renounceOwnership()": {
        "details": "Leaves the contract without owner. It will not be possible to call `onlyOwner` functions anymore. Can only be called by the current owner. NOTE: Renouncing ownership will leave the contract without an owner, thereby removing any functionality that is only available to the owner."
      },
      "transferOwnership(address)": {
        "details": "Transfers ownership of the contract to a new account (`newOwner`). Can only be called by the current owner."
      }
    },
    "version": 1
  },
  "userdoc": {
    "kind": "user",
    "methods": {},
    "version": 1
  },
  "storageLayout": {
    "storage": [
      {
        "astId": 375,
        "contract": "contracts/farm/AuroDistributor.sol:AuroDistributor",
        "label": "_owner",
        "offset": 0,
        "slot": "0",
        "type": "t_address"
      },
      {
        "astId": 650,
        "contract": "contracts/farm/AuroDistributor.sol:AuroDistributor",
        "label": "_status",
        "offset": 0,
        "slot": "1",
        "type": "t_uint256"
      },
      {
        "astId": 3358,
        "contract": "contracts/farm/AuroDistributor.sol:AuroDistributor",
        "label": "auro",
        "offset": 0,
        "slot": "2",
        "type": "t_contract(IAuroERC20)5068"
      },
      {
        "astId": 3360,
        "contract": "contracts/farm/AuroDistributor.sol:AuroDistributor",
        "label": "_operator",
        "offset": 0,
        "slot": "3",
        "type": "t_address"
      },
      {
        "astId": 3362,
        "contract": "contracts/farm/AuroDistributor.sol:AuroDistributor",
        "label": "devAddress",
        "offset": 0,
        "slot": "4",
        "type": "t_address"
      },
      {
        "astId": 3364,
        "contract": "contracts/farm/AuroDistributor.sol:AuroDistributor",
        "label": "feeAddress",
        "offset": 0,
        "slot": "5",
        "type": "t_address"
      },
      {
        "astId": 3366,
        "contract": "contracts/farm/AuroDistributor.sol:AuroDistributor",
        "label": "auroPerBlock",
        "offset": 0,
        "slot": "6",
        "type": "t_uint256"
      },
      {
        "astId": 3376,
        "contract": "contracts/farm/AuroDistributor.sol:AuroDistributor",
        "label": "poolInfo",
        "offset": 0,
        "slot": "7",
        "type": "t_array(t_struct(PoolInfo)3355_storage)dyn_storage"
      },
      {
        "astId": 3383,
        "contract": "contracts/farm/AuroDistributor.sol:AuroDistributor",
        "label": "userInfo",
        "offset": 0,
        "slot": "8",
        "type": "t_mapping(t_uint256,t_mapping(t_address,t_struct(UserInfo)3339_storage))"
      },
      {
        "astId": 3386,
        "contract": "contracts/farm/AuroDistributor.sol:AuroDistributor",
        "label": "totalAllocPoint",
        "offset": 0,
        "slot": "9",
        "type": "t_uint256"
      },
      {
        "astId": 3388,
        "contract": "contracts/farm/AuroDistributor.sol:AuroDistributor",
        "label": "startBlock",
        "offset": 0,
        "slot": "10",
        "type": "t_uint256"
      },
      {
        "astId": 3390,
        "contract": "contracts/farm/AuroDistributor.sol:AuroDistributor",
        "label": "totalLockedUpRewards",
        "offset": 0,
        "slot": "11",
        "type": "t_uint256"
      },
      {
        "astId": 3393,
        "contract": "contracts/farm/AuroDistributor.sol:AuroDistributor",
        "label": "totalAuroInPools",
        "offset": 0,
        "slot": "12",
        "type": "t_uint256"
      }
    ],
    "types": {
      "t_address": {
        "encoding": "inplace",
        "label": "address",
        "numberOfBytes": "20"
      },
      "t_array(t_struct(PoolInfo)3355_storage)dyn_storage": {
        "base": "t_struct(PoolInfo)3355_storage",
        "encoding": "dynamic_array",
        "label": "struct AuroDistributor.PoolInfo[]",
        "numberOfBytes": "32"
      },
      "t_contract(IAuroERC20)5068": {
        "encoding": "inplace",
        "label": "contract IAuroERC20",
        "numberOfBytes": "20"
      },
      "t_contract(IERC20)1303": {
        "encoding": "inplace",
        "label": "contract IERC20",
        "numberOfBytes": "20"
      },
      "t_mapping(t_address,t_struct(UserInfo)3339_storage)": {
        "encoding": "mapping",
        "key": "t_address",
        "label": "mapping(address => struct AuroDistributor.UserInfo)",
        "numberOfBytes": "32",
        "value": "t_struct(UserInfo)3339_storage"
      },
      "t_mapping(t_uint256,t_mapping(t_address,t_struct(UserInfo)3339_storage))": {
        "encoding": "mapping",
        "key": "t_uint256",
        "label": "mapping(uint256 => mapping(address => struct AuroDistributor.UserInfo))",
        "numberOfBytes": "32",
        "value": "t_mapping(t_address,t_struct(UserInfo)3339_storage)"
      },
      "t_struct(PoolInfo)3355_storage": {
        "encoding": "inplace",
        "label": "struct AuroDistributor.PoolInfo",
        "members": [
          {
            "astId": 3342,
            "contract": "contracts/farm/AuroDistributor.sol:AuroDistributor",
            "label": "lpToken",
            "offset": 0,
            "slot": "0",
            "type": "t_contract(IERC20)1303"
          },
          {
            "astId": 3344,
            "contract": "contracts/farm/AuroDistributor.sol:AuroDistributor",
            "label": "allocPoint",
            "offset": 0,
            "slot": "1",
            "type": "t_uint256"
          },
          {
            "astId": 3346,
            "contract": "contracts/farm/AuroDistributor.sol:AuroDistributor",
            "label": "lastRewardBlock",
            "offset": 0,
            "slot": "2",
            "type": "t_uint256"
          },
          {
            "astId": 3348,
            "contract": "contracts/farm/AuroDistributor.sol:AuroDistributor",
            "label": "accAuroPerShare",
            "offset": 0,
            "slot": "3",
            "type": "t_uint256"
          },
          {
            "astId": 3350,
            "contract": "contracts/farm/AuroDistributor.sol:AuroDistributor",
            "label": "depositFeeBP",
            "offset": 0,
            "slot": "4",
            "type": "t_uint16"
          },
          {
            "astId": 3352,
            "contract": "contracts/farm/AuroDistributor.sol:AuroDistributor",
            "label": "harvestInterval",
            "offset": 0,
            "slot": "5",
            "type": "t_uint256"
          },
          {
            "astId": 3354,
            "contract": "contracts/farm/AuroDistributor.sol:AuroDistributor",
            "label": "totalLp",
            "offset": 0,
            "slot": "6",
            "type": "t_uint256"
          }
        ],
        "numberOfBytes": "224"
      },
      "t_struct(UserInfo)3339_storage": {
        "encoding": "inplace",
        "label": "struct AuroDistributor.UserInfo",
        "members": [
          {
            "astId": 3332,
            "contract": "contracts/farm/AuroDistributor.sol:AuroDistributor",
            "label": "amount",
            "offset": 0,
            "slot": "0",
            "type": "t_uint256"
          },
          {
            "astId": 3334,
            "contract": "contracts/farm/AuroDistributor.sol:AuroDistributor",
            "label": "rewardDebt",
            "offset": 0,
            "slot": "1",
            "type": "t_uint256"
          },
          {
            "astId": 3336,
            "contract": "contracts/farm/AuroDistributor.sol:AuroDistributor",
            "label": "rewardLockedUp",
            "offset": 0,
            "slot": "2",
            "type": "t_uint256"
          },
          {
            "astId": 3338,
            "contract": "contracts/farm/AuroDistributor.sol:AuroDistributor",
            "label": "nextHarvestUntil",
            "offset": 0,
            "slot": "3",
            "type": "t_uint256"
          }
        ],
        "numberOfBytes": "128"
      },
      "t_uint16": {
        "encoding": "inplace",
        "label": "uint16",
        "numberOfBytes": "2"
      },
      "t_uint256": {
        "encoding": "inplace",
        "label": "uint256",
        "numberOfBytes": "32"
      }
    }
  }
}