{
  "address": "0x019DAE4760f2317D9B447e063a9442688f6C07b4",
  "abi": [
    {
      "inputs": [
        {
          "internalType": "contract IAuroERC20",
          "name": "_auro",
          "type": "address"
        },
        {
          "internalType": "uint256",
          "name": "_auroPerBlock",
          "type": "uint256"
        }
      ],
      "stateMutability": "nonpayable",
      "type": "constructor"
    },
    {
      "anonymous": false,
      "inputs": [
        {
          "indexed": true,
          "internalType": "address",
          "name": "caller",
          "type": "address"
        },
        {
          "indexed": false,
          "internalType": "uint256",
          "name": "previousAmount",
          "type": "uint256"
        },
        {
          "indexed": false,
          "internalType": "uint256",
          "name": "newAmount",
          "type": "uint256"
        }
      ],
      "name": "AllocPointsUpdated",
      "type": "event"
    },
    {
      "anonymous": false,
      "inputs": [
        {
          "indexed": true,
          "internalType": "address",
          "name": "user",
          "type": "address"
        },
        {
          "indexed": true,
          "internalType": "uint256",
          "name": "pid",
          "type": "uint256"
        },
        {
          "indexed": false,
          "internalType": "uint256",
          "name": "amount",
          "type": "uint256"
        }
      ],
      "name": "Deposit",
      "type": "event"
    },
    {
      "anonymous": false,
      "inputs": [
        {
          "indexed": true,
          "internalType": "address",
          "name": "caller",
          "type": "address"
        },
        {
          "indexed": false,
          "internalType": "address",
          "name": "oldAddress",
          "type": "address"
        },
        {
          "indexed": false,
          "internalType": "address",
          "name": "newAddress",
          "type": "address"
        }
      ],
      "name": "DevAddressChanged",
      "type": "event"
    },
    {
      "anonymous": false,
      "inputs": [
        {
          "indexed": true,
          "internalType": "address",
          "name": "user",
          "type": "address"
        },
        {
          "indexed": true,
          "internalType": "uint256",
          "name": "pid",
          "type": "uint256"
        },
        {
          "indexed": false,
          "internalType": "uint256",
          "name": "amount",
          "type": "uint256"
        }
      ],
      "name": "EmergencyWithdraw",
      "type": "event"
    },
    {
      "anonymous": false,
      "inputs": [
        {
          "indexed": true,
          "internalType": "address",
          "name": "caller",
          "type": "address"
        },
        {
          "indexed": false,
          "internalType": "uint256",
          "name": "previousAmount",
          "type": "uint256"
        },
        {
          "indexed": false,
          "internalType": "uint256",
          "name": "newAmount",
          "type": "uint256"
        }
      ],
      "name": "EmissionRateUpdated",
      "type": "event"
    },
    {
      "anonymous": false,
      "inputs": [
        {
          "indexed": true,
          "internalType": "address",
          "name": "caller",
          "type": "address"
        },
        {
          "indexed": false,
          "internalType": "address",
          "name": "oldAddress",
          "type": "address"
        },
        {
          "indexed": false,
          "internalType": "address",
          "name": "newAddress",
          "type": "address"
        }
      ],
      "name": "FeeAddressChanged",
      "type": "event"
    },
    {
      "anonymous": false,
      "inputs": [
        {
          "indexed": true,
          "internalType": "address",
          "name": "previousOperator",
          "type": "address"
        },
        {
          "indexed": true,
          "internalType": "address",
          "name": "newOperator",
          "type": "address"
        }
      ],
      "name": "OperatorTransferred",
      "type": "event"
    },
    {
      "anonymous": false,
      "inputs": [
        {
          "indexed": true,
          "internalType": "address",
          "name": "previousOwner",
          "type": "address"
        },
        {
          "indexed": true,
          "internalType": "address",
          "name": "newOwner",
          "type": "address"
        }
      ],
      "name": "OwnershipTransferred",
      "type": "event"
    },
    {
      "anonymous": false,
      "inputs": [
        {
          "indexed": true,
          "internalType": "address",
          "name": "user",
          "type": "address"
        },
        {
          "indexed": true,
          "internalType": "uint256",
          "name": "pid",
          "type": "uint256"
        },
        {
          "indexed": false,
          "internalType": "uint256",
          "name": "amountLockedUp",
          "type": "uint256"
        }
      ],
      "name": "RewardLockedUp",
      "type": "event"
    },
    {
      "anonymous": false,
      "inputs": [
        {
          "indexed": true,
          "internalType": "address",
          "name": "user",
          "type": "address"
        },
        {
          "indexed": true,
          "internalType": "uint256",
          "name": "pid",
          "type": "uint256"
        },
        {
          "indexed": false,
          "internalType": "uint256",
          "name": "amount",
          "type": "uint256"
        }
      ],
      "name": "Withdraw",
      "type": "event"
    },
    {
      "inputs": [],
      "name": "MAXIMUM_DEPOSIT_FEE_RATE",
      "outputs": [
        {
          "internalType": "uint16",
          "name": "",
          "type": "uint16"
        }
      ],
      "stateMutability": "view",
      "type": "function"
    },
    {
      "inputs": [],
      "name": "MAXIMUM_HARVEST_INTERVAL",
      "outputs": [
        {
          "internalType": "uint256",
          "name": "",
          "type": "uint256"
        }
      ],
      "stateMutability": "view",
      "type": "function"
    },
    {
      "inputs": [
        {
          "internalType": "uint256",
          "name": "_allocPoint",
          "type": "uint256"
        },
        {
          "internalType": "contract IERC20",
          "name": "_lpToken",
          "type": "address"
        },
        {
          "internalType": "uint16",
          "name": "_depositFeeBP",
          "type": "uint16"
        },
        {
          "internalType": "uint256",
          "name": "_harvestInterval",
          "type": "uint256"
        },
        {
          "internalType": "bool",
          "name": "_withUpdate",
          "type": "bool"
        }
      ],
      "name": "add",
      "outputs": [],
      "stateMutability": "nonpayable",
      "type": "function"
    },
    {
      "inputs": [],
      "name": "auro",
      "outputs": [
        {
          "internalType": "contract IAuroERC20",
          "name": "",
          "type": "address"
        }
      ],
      "stateMutability": "view",
      "type": "function"
    },
    {
      "inputs": [],
      "name": "auroPerBlock",
      "outputs": [
        {
          "internalType": "uint256",
          "name": "",
          "type": "uint256"
        }
      ],
      "stateMutability": "view",
      "type": "function"
    },
    {
      "inputs": [
        {
          "internalType": "uint256",
          "name": "_pid",
          "type": "uint256"
        },
        {
          "internalType": "address",
          "name": "_user",
          "type": "address"
        }
      ],
      "name": "canHarvest",
      "outputs": [
        {
          "internalType": "bool",
          "name": "",
          "type": "bool"
        }
      ],
      "stateMutability": "view",
      "type": "function"
    },
    {
      "inputs": [
        {
          "internalType": "uint256",
          "name": "_pid",
          "type": "uint256"
        },
        {
          "internalType": "uint256",
          "name": "_amount",
          "type": "uint256"
        }
      ],
      "name": "deposit",
      "outputs": [],
      "stateMutability": "nonpayable",
      "type": "function"
    },
    {
      "inputs": [],
      "name": "devAddress",
      "outputs": [
        {
          "internalType": "address",
          "name": "",
          "type": "address"
        }
      ],
      "stateMutability": "view",
      "type": "function"
    },
    {
      "inputs": [
        {
          "internalType": "uint256",
          "name": "_pid",
          "type": "uint256"
        }
      ],
      "name": "emergencyWithdraw",
      "outputs": [],
      "stateMutability": "nonpayable",
      "type": "function"
    },
    {
      "inputs": [],
      "name": "feeAddress",
      "outputs": [
        {
          "internalType": "address",
          "name": "",
          "type": "address"
        }
      ],
      "stateMutability": "view",
      "type": "function"
    },
    {
      "inputs": [
        {
          "internalType": "address",
          "name": "forwarder",
          "type": "address"
        }
      ],
      "name": "isTrustedForwarder",
      "outputs": [
        {
          "internalType": "bool",
          "name": "",
          "type": "bool"
        }
      ],
      "stateMutability": "view",
      "type": "function"
    },
    {
      "inputs": [],
      "name": "massUpdatePools",
      "outputs": [],
      "stateMutability": "nonpayable",
      "type": "function"
    },
    {
      "inputs": [],
      "name": "operator",
      "outputs": [
        {
          "internalType": "address",
          "name": "",
          "type": "address"
        }
      ],
      "stateMutability": "view",
      "type": "function"
    },
    {
      "inputs": [],
      "name": "owner",
      "outputs": [
        {
          "internalType": "address",
          "name": "",
          "type": "address"
        }
      ],
      "stateMutability": "view",
      "type": "function"
    },
    {
      "inputs": [
        {
          "internalType": "uint256",
          "name": "_pid",
          "type": "uint256"
        },
        {
          "internalType": "address",
          "name": "_user",
          "type": "address"
        }
      ],
      "name": "pendingAuro",
      "outputs": [
        {
          "internalType": "uint256",
          "name": "",
          "type": "uint256"
        }
      ],
      "stateMutability": "view",
      "type": "function"
    },
    {
      "inputs": [
        {
          "internalType": "uint256",
          "name": "",
          "type": "uint256"
        }
      ],
      "name": "poolInfo",
      "outputs": [
        {
          "internalType": "contract IERC20",
          "name": "lpToken",
          "type": "address"
        },
        {
          "internalType": "uint256",
          "name": "allocPoint",
          "type": "uint256"
        },
        {
          "internalType": "uint256",
          "name": "lastRewardBlock",
          "type": "uint256"
        },
        {
          "internalType": "uint256",
          "name": "accAuroPerShare",
          "type": "uint256"
        },
        {
          "internalType": "uint16",
          "name": "depositFeeBP",
          "type": "uint16"
        },
        {
          "internalType": "uint256",
          "name": "harvestInterval",
          "type": "uint256"
        },
        {
          "internalType": "uint256",
          "name": "totalLp",
          "type": "uint256"
        }
      ],
      "stateMutability": "view",
      "type": "function"
    },
    {
      "inputs": [],
      "name": "poolLength",
      "outputs": [
        {
          "internalType": "uint256",
          "name": "",
          "type": "uint256"
        }
      ],
      "stateMutability": "view",
      "type": "function"
    },
    {
      "inputs": [],
      "name": "renounceOwnership",
      "outputs": [],
      "stateMutability": "nonpayable",
      "type": "function"
    },
    {
      "inputs": [
        {
          "internalType": "uint256",
          "name": "_pid",
          "type": "uint256"
        },
        {
          "internalType": "uint256",
          "name": "_allocPoint",
          "type": "uint256"
        },
        {
          "internalType": "uint16",
          "name": "_depositFeeBP",
          "type": "uint16"
        },
        {
          "internalType": "uint256",
          "name": "_harvestInterval",
          "type": "uint256"
        },
        {
          "internalType": "bool",
          "name": "_withUpdate",
          "type": "bool"
        }
      ],
      "name": "set",
      "outputs": [],
      "stateMutability": "nonpayable",
      "type": "function"
    },
    {
      "inputs": [
        {
          "internalType": "address",
          "name": "_devAddress",
          "type": "address"
        }
      ],
      "name": "setDevAddress",
      "outputs": [],
      "stateMutability": "nonpayable",
      "type": "function"
    },
    {
      "inputs": [
        {
          "internalType": "address",
          "name": "_feeAddress",
          "type": "address"
        }
      ],
      "name": "setFeeAddress",
      "outputs": [],
      "stateMutability": "nonpayable",
      "type": "function"
    },
    {
      "inputs": [],
      "name": "startBlock",
      "outputs": [
        {
          "internalType": "uint256",
          "name": "",
          "type": "uint256"
        }
      ],
      "stateMutability": "view",
      "type": "function"
    },
    {
      "inputs": [],
      "name": "startFarming",
      "outputs": [],
      "stateMutability": "nonpayable",
      "type": "function"
    },
    {
      "inputs": [],
      "name": "totalAllocPoint",
      "outputs": [
        {
          "internalType": "uint256",
          "name": "",
          "type": "uint256"
        }
      ],
      "stateMutability": "view",
      "type": "function"
    },
    {
      "inputs": [],
      "name": "totalAuroInPools",
      "outputs": [
        {
          "internalType": "uint256",
          "name": "",
          "type": "uint256"
        }
      ],
      "stateMutability": "view",
      "type": "function"
    },
    {
      "inputs": [],
      "name": "totalLockedUpRewards",
      "outputs": [
        {
          "internalType": "uint256",
          "name": "",
          "type": "uint256"
        }
      ],
      "stateMutability": "view",
      "type": "function"
    },
    {
      "inputs": [
        {
          "internalType": "address",
          "name": "newOperator",
          "type": "address"
        }
      ],
      "name": "transferOperator",
      "outputs": [],
      "stateMutability": "nonpayable",
      "type": "function"
    },
    {
      "inputs": [
        {
          "internalType": "address",
          "name": "newOwner",
          "type": "address"
        }
      ],
      "name": "transferOwnership",
      "outputs": [],
      "stateMutability": "nonpayable",
      "type": "function"
    },
    {
      "inputs": [
        {
          "internalType": "uint256",
          "name": "_pid",
          "type": "uint256"
        },
        {
          "internalType": "uint256",
          "name": "_allocPoint",
          "type": "uint256"
        },
        {
          "internalType": "bool",
          "name": "_withUpdate",
          "type": "bool"
        }
      ],
      "name": "updateAllocPoint",
      "outputs": [],
      "stateMutability": "nonpayable",
      "type": "function"
    },
    {
      "inputs": [
        {
          "internalType": "uint256",
          "name": "_auroPerBlock",
          "type": "uint256"
        }
      ],
      "name": "updateEmissionRate",
      "outputs": [],
      "stateMutability": "nonpayable",
      "type": "function"
    },
    {
      "inputs": [
        {
          "internalType": "uint256",
          "name": "_pid",
          "type": "uint256"
        }
      ],
      "name": "updatePool",
      "outputs": [],
      "stateMutability": "nonpayable",
      "type": "function"
    },
    {
      "inputs": [
        {
          "internalType": "uint256",
          "name": "",
          "type": "uint256"
        },
        {
          "internalType": "address",
          "name": "",
          "type": "address"
        }
      ],
      "name": "userInfo",
      "outputs": [
        {
          "internalType": "uint256",
          "name": "amount",
          "type": "uint256"
        },
        {
          "internalType": "uint256",
          "name": "rewardDebt",
          "type": "uint256"
        },
        {
          "internalType": "uint256",
          "name": "rewardLockedUp",
          "type": "uint256"
        },
        {
          "internalType": "uint256",
          "name": "nextHarvestUntil",
          "type": "uint256"
        }
      ],
      "stateMutability": "view",
      "type": "function"
    },
    {
      "inputs": [
        {
          "internalType": "uint256",
          "name": "_pid",
          "type": "uint256"
        },
        {
          "internalType": "uint256",
          "name": "_amount",
          "type": "uint256"
        }
      ],
      "name": "withdraw",
      "outputs": [],
      "stateMutability": "nonpayable",
      "type": "function"
    }
  ],
  "transactionHash": "0x52d90bebef33797c13e437007aabe9bf4a6887edc54df745d35ac0ffe32ea658",
  "args": [
    "0xaBE380931cd3Ae6E7197337BBC7462CCb8b90f46",
    "60000000000000000000"
  ],
  "solcInputHash": "b8e48a51010d81979d087574e5d80b16",
  "bytecode": "0x608060405260006009556000600c553480156200001b57600080fd5b506040516200299c3803806200299c8339810160408190526200003e9162000184565b620000526200004c620000e6565b62000130565b6001805562000066436312cc0300620001be565b600a55600280546001600160a01b038085166001600160a01b031992831617909255600683905560048054821633908117909155600580548316821790556003805490921617908190556040519116906000907f74da04524d50c64947f5dd5381ef1a4dca5cba8ed1d816243f9e48aa0b5617ed908290a35050620001e3565b600073ea9983bbb6fd1f95cd0a40275c6ac51b56ae617633141562000115575060131936013560601c6200012d565b6200012a6200018060201b62001cc31760201c565b90505b90565b600080546001600160a01b038381166001600160a01b0319831681178455604051919092169283917f8be0079c531659141344cd1fd0a4f28419497f9722a3daafe3b4186f6b6457e09190a35050565b3390565b6000806040838503121562000197578182fd5b82516001600160a01b0381168114620001ae578283fd5b6020939093015192949293505050565b60008219821115620001de57634e487b7160e01b81526011600452602481fd5b500190565b6127a980620001f36000396000f3fe608060405234801561001057600080fd5b50600436106101fb5760003560e01c8063572b6c051161011a578063a1f5a3eb116100ad578063d0d41fe11161007c578063d0d41fe114610492578063de73149d146104a5578063e2bbb158146104af578063e663f31e146104c2578063f2fde38b146104cb576101fb565b8063a1f5a3eb1461045b578063af018de814610464578063afbcfea114610477578063bde4aeca1461047f576101fb565b80638705fcd4116100e95780638705fcd4146103c45780638da5cb5b146103d757806393acfc48146103e857806393f1a40b146103fb576101fb565b8063572b6c0514610385578063630b5ba114610398578063715018a6146103a0578063812c64f1146103a8576101fb565b80633ad10ef61161019257806348cd4cb11161016157806348cd4cb11461034557806351eb05a61461034e5780635312ea8e14610361578063570ca73514610374576101fb565b80633ad10ef6146103035780634127535814610316578063441a3e7014610329578063474fa6301461033c576101fb565b80632143e545116101ce5780632143e5451461028f57806321dd70e6146102a257806329605e77146102cd5780632e6c998d146102e0576101fb565b8063081e3eda146102005780630ba84cd21461021b5780631526fe271461023057806317caf6f114610286575b600080fd5b6102086104de565b6040519081526020015b60405180910390f35b61022e610229366004612444565b6104e5565b005b61024361023e366004612444565b610563565b604080516001600160a01b039098168852602088019690965294860193909352606085019190915261ffff16608084015260a083015260c082015260e001610212565b61020860095481565b61022e61029d366004612558565b6105c0565b6002546102b5906001600160a01b031681565b6040516001600160a01b039091168152602001610212565b61022e6102db36600461240c565b6107d9565b6102f36102ee366004612474565b6108d0565b6040519015158152602001610212565b6004546102b5906001600160a01b031681565b6005546102b5906001600160a01b031681565b61022e6103373660046124ff565b610910565b610208600b5481565b610208600a5481565b61022e61035c366004612444565b610b4a565b61022e61036f366004612444565b610cf4565b6003546001600160a01b03166102b5565b6102f361039336600461240c565b610ea2565b61022e610ec8565b61022e610fd4565b6103b16103e881565b60405161ffff9091168152602001610212565b61022e6103d236600461240c565b611029565b6000546001600160a01b03166102b5565b6102086103f6366004612474565b611155565b61043b610409366004612474565b600860209081526000928352604080842090915290825290208054600182015460028301546003909301549192909184565b604080519485526020850193909352918301526060820152608001610212565b610208600c5481565b61022e6104723660046124a3565b611268565b61022e61151c565b61022e61048d366004612520565b61161a565b61022e6104a036600461240c565b611741565b6102086212750081565b61022e6104bd3660046124ff565b61186d565b61020860065481565b61022e6104d936600461240c565b611c0c565b6007545b90565b6003546001600160a01b031633146105185760405162461bcd60e51b815260040161050f90612641565b60405180910390fd5b610520610ec8565b600654604080519182526020820183905233917feedc6338c9c1ad8f3cd6c90dd09dbe98dbd57e610d3e59a17996d07acb0d9511910160405180910390a2600655565b6007818154811061057357600080fd5b600091825260209091206007909102018054600182015460028301546003840154600485015460058601546006909601546001600160a01b03909516965092949193909261ffff16919087565b6105c8611cc7565b6001600160a01b03166105e36000546001600160a01b031690565b6001600160a01b0316146106095760405162461bcd60e51b815260040161050f906125d5565b6103e861ffff8416111561065f5760405162461bcd60e51b815260206004820152601960248201527f7365743a206465706f7369742066656520746f6f206869676800000000000000604482015260640161050f565b621275008211156106b25760405162461bcd60e51b815260206004820152601d60248201527f7365743a20696e76616c6964206861727665737420696e74657276616c000000604482015260640161050f565b80156106c0576106c0610ec8565b6107118461070b600788815481106106e857634e487b7160e01b600052603260045260246000fd5b906000526020600020906007020160010154600954611ced90919063ffffffff16565b90611d00565b600981905550836007868154811061073957634e487b7160e01b600052603260045260246000fd5b906000526020600020906007020160010181905550826007868154811061077057634e487b7160e01b600052603260045260246000fd5b906000526020600020906007020160040160006101000a81548161ffff021916908361ffff16021790555081600786815481106107bd57634e487b7160e01b600052603260045260246000fd5b9060005260206000209060070201600501819055505050505050565b6003546001600160a01b031633146108035760405162461bcd60e51b815260040161050f90612641565b6001600160a01b0381166108745760405162461bcd60e51b815260206004820152603260248201527f5472616e736665724f70657261746f723a206e6577206f70657261746f7220696044820152717320746865207a65726f206164647265737360701b606482015260840161050f565b6003546040516001600160a01b038084169216907f74da04524d50c64947f5dd5381ef1a4dca5cba8ed1d816243f9e48aa0b5617ed90600090a3600380546001600160a01b0319166001600160a01b0392909216919091179055565b60008281526008602090815260408083206001600160a01b03851684529091528120600a544310801590610908575080600301544210155b949350505050565b600260015414156109335760405162461bcd60e51b815260040161050f9061260a565b600260018190555060006007838154811061095e57634e487b7160e01b600052603260045260246000fd5b60009182526020808320868452600890915260408320600790920201925081610985611cc7565b6001600160a01b03166001600160a01b03168152602001908152602001600020905082816000015410156109fb5760405162461bcd60e51b815260206004820181905260248201527f57697468647261773a205573657220616d6f756e74206e6f7420656e6f756768604482015260640161050f565b8282600601541015610a4f5760405162461bcd60e51b815260206004820152601f60248201527f57697468647261773a20506f6f6c20746f74616c206e6f7420656e6f75676800604482015260640161050f565b610a5884610b4a565b610a6184611d0c565b8215610acf578054610a739084611ced565b81556006820154610a849084611ced565b600683015560025482546001600160a01b0390811691161415610ab257600c54610aae9084611ced565b600c555b610acf610abd611cc7565b83546001600160a01b03169085611ee9565b60038201548154610af09164e8d4a5100091610aea91611f51565b90611f5d565b600182015583610afe611cc7565b6001600160a01b03167ff279e6a1f5e320cca91135676d9cb6e44ca8a08c0b88342bcdb1144f6511b56885604051610b3891815260200190565b60405180910390a35050600180555050565b600060078281548110610b6d57634e487b7160e01b600052603260045260246000fd5b9060005260206000209060070201905080600201544311610b8e5750610cf1565b60068101541580610ba157506001810154155b15610bb25743600290910155610cf1565b6000610bd3600954610aea8460010154600654611f5190919063ffffffff16565b6002546004549192506001600160a01b03908116916340c10f199116610bfa84600a611f5d565b6040516001600160e01b031960e085901b1681526001600160a01b0390921660048301526024820152604401600060405180830381600087803b158015610c4057600080fd5b505af1158015610c54573d6000803e3d6000fd5b50506002546040516340c10f1960e01b8152306004820152602481018590526001600160a01b0390911692506340c10f199150604401600060405180830381600087803b158015610ca457600080fd5b505af1158015610cb8573d6000803e3d6000fd5b5050506006830154610ce39150610cd890610aea8464e8d4a51000611f51565b600384015490611d00565b600383015550436002909101555b50565b60026001541415610d175760405162461bcd60e51b815260040161050f9061260a565b6002600181905550600060078281548110610d4257634e487b7160e01b600052603260045260246000fd5b60009182526020808320858452600890915260408320600790920201925081610d69611cc7565b6001600160a01b0316815260208101919091526040016000208054600684015491925090811115610ded5760405162461bcd60e51b815260206004820152602860248201527f456d657267656e637957697468647261773a20506f6f6c20746f74616c206e6f6044820152670e840cadcdeeaced60c31b606482015260840161050f565b6000808355600183018190556002830181905560038301556006830154610e149082611ced565b600684015560025483546001600160a01b0390811691161415610e4257600c54610e3e9082611ced565b600c555b610e5f610e4d611cc7565b84546001600160a01b03169083611ee9565b83610e68611cc7565b6001600160a01b03167fbb757047c2b5f3974fe26b7c10f732e7bce710b0952a71082702781e62ae059583604051610b3891815260200190565b6001600160a01b03811673ea9983bbb6fd1f95cd0a40275c6ac51b56ae6176145b919050565b6007546000805b82811015610fb957600060078281548110610efa57634e487b7160e01b600052603260045260246000fd5b9060005260206000209060070201905080600201544311610f1b5750610fa9565b60068101541580610f2e57506001810154155b15610f3f5743600290910155610fa9565b6000610f60600954610aea8460010154600654611f5190919063ffffffff16565b9050610f85610cd88360060154610aea64e8d4a5100085611f5190919063ffffffff16565b6003830155436002830155610fa5610f9e82600a611f5d565b8590611d00565b5050505b610fb28161271f565b9050610ecf565b50600454610fd0906001600160a01b031682611f69565b5050565b610fdc611cc7565b6001600160a01b0316610ff76000546001600160a01b031690565b6001600160a01b03161461101d5760405162461bcd60e51b815260040161050f906125d5565b6110276000612195565b565b6005546001600160a01b031661103d611cc7565b6001600160a01b0316146110935760405162461bcd60e51b815260206004820152601860248201527f736574466565416464726573733a20464f5242494444454e0000000000000000604482015260640161050f565b6001600160a01b0381166110df5760405162461bcd60e51b8152602060048201526013602482015272736574466565416464726573733a205a45524f60681b604482015260640161050f565b6110e7611cc7565b600554604080516001600160a01b039283168152848316602082015292909116917f6690a53895b5691c039238b384bd857e65c42adcc727775381e02cb90a122613910160405180910390a2600580546001600160a01b0319166001600160a01b0392909216919091179055565b6000806007848154811061117957634e487b7160e01b600052603260045260246000fd5b600091825260208083208784526008825260408085206001600160a01b038916865290925292206003600790920290920190810154600682015460028301549294509091431180156111ca57508015155b156112135760006111f0600954610aea8760010154600654611f5190919063ffffffff16565b905061120f61120883610aea8464e8d4a51000611f51565b8490611d00565b9250505b6000611243846001015461123d64e8d4a51000610aea878960000154611f5190919063ffffffff16565b90611ced565b905061125c846002015482611d0090919063ffffffff16565b98975050505050505050565b611270611cc7565b6001600160a01b031661128b6000546001600160a01b031690565b6001600160a01b0316146112b15760405162461bcd60e51b815260040161050f906125d5565b6103e861ffff841611156113075760405162461bcd60e51b815260206004820152601960248201527f6164643a206465706f7369742066656520746f6f206869676800000000000000604482015260640161050f565b6212750082111561135a5760405162461bcd60e51b815260206004820152601d60248201527f6164643a20696e76616c6964206861727665737420696e74657276616c000000604482015260640161050f565b801561136857611368610ec8565b6000600a54431161137b57600a5461137d565b435b60095490915061138d9087611d00565b6009556040805160e0810182526001600160a01b0396871681526020810197885290810191825260006060820181815261ffff9687166080840190815260a0840196875260c08401838152600780546001810182559481905294517fa66cc928b5edb82af9bd49922954155ab7b0942694bea4ce44661d9a8736c6889490950293840180546001600160a01b03191695909a169490941790985597517fa66cc928b5edb82af9bd49922954155ab7b0942694bea4ce44661d9a8736c68982015591517fa66cc928b5edb82af9bd49922954155ab7b0942694bea4ce44661d9a8736c68a83015595517fa66cc928b5edb82af9bd49922954155ab7b0942694bea4ce44661d9a8736c68b82015593517fa66cc928b5edb82af9bd49922954155ab7b0942694bea4ce44661d9a8736c68c8501805461ffff19169190941617909255517fa66cc928b5edb82af9bd49922954155ab7b0942694bea4ce44661d9a8736c68d8301555090517fa66cc928b5edb82af9bd49922954155ab7b0942694bea4ce44661d9a8736c68e90910155565b611524611cc7565b6001600160a01b031661153f6000546001600160a01b031690565b6001600160a01b0316146115655760405162461bcd60e51b815260040161050f906125d5565b600a5443106115b65760405162461bcd60e51b815260206004820152601b60248201527f4572726f723a3a4661726d207374617274656420616c72656164790000000000604482015260640161050f565b60075460005b81811015611612576000600782815481106115e757634e487b7160e01b600052603260045260246000fd5b90600052602060002090600702019050438160020181905550508061160b9061271f565b90506115bc565b505043600a55565b6003546001600160a01b031633146116445760405162461bcd60e51b815260040161050f90612641565b801561165257611652610ec8565b61165a611cc7565b6001600160a01b03167f802633c8d26237616d81bdac01bc40fcdf36e098832601582ec19d7e431c5ef3600785815481106116a557634e487b7160e01b600052603260045260246000fd5b906000526020600020906007020160010154846040516116cf929190918252602082015260400190565b60405180910390a26116ff8261070b600786815481106106e857634e487b7160e01b600052603260045260246000fd5b600981905550816007848154811061172757634e487b7160e01b600052603260045260246000fd5b906000526020600020906007020160010181905550505050565b6004546001600160a01b0316611755611cc7565b6001600160a01b0316146117ab5760405162461bcd60e51b815260206004820152601860248201527f736574446576416464726573733a20464f5242494444454e0000000000000000604482015260640161050f565b6001600160a01b0381166117f75760405162461bcd60e51b8152602060048201526013602482015272736574446576416464726573733a205a45524f60681b604482015260640161050f565b6117ff611cc7565b600454604080516001600160a01b039283168152848316602082015292909116917fd36d63f6c513a911d7912853de740af476b0fbb569aa769e1a4f5bfa37a325c4910160405180910390a2600480546001600160a01b0319166001600160a01b0392909216919091179055565b600260015414156118905760405162461bcd60e51b815260040161050f9061260a565b6002600155600a544310156118fd5760405162461bcd60e51b815260206004820152602d60248201527f4175726f4469737472696275746f723a2043616e206e6f74206465706f73697460448201526c081899599bdc99481cdd185c9d609a1b606482015260840161050f565b60006007838154811061192057634e487b7160e01b600052603260045260246000fd5b60009182526020808320868452600890915260408320600790920201925081611947611cc7565b6001600160a01b03166001600160a01b03168152602001908152602001600020905061197284610b4a565b61197b84611d0c565b8215611ba95781546040516370a0823160e01b81523060048201526000916001600160a01b0316906370a082319060240160206040518083038186803b1580156119c457600080fd5b505afa1580156119d8573d6000803e3d6000fd5b505050506040513d601f19601f820116820180604052508101906119fc919061245c565b9050611a1c611a09611cc7565b84546001600160a01b03169030876121e5565b82546040516370a0823160e01b81523060048201526000916001600160a01b0316906370a082319060240160206040518083038186803b158015611a5f57600080fd5b505afa158015611a73573d6000803e3d6000fd5b505050506040513d601f19601f82011682018060405250810190611a97919061245c565b9050611aa38183611ced565b600485015490955061ffff1615611b5b576004840154600090611ad39061271090610aea90899061ffff16611f51565b6005548654919250611af2916001600160a01b03908116911683611ee9565b8354611b0490829061123d9089611d00565b84556006850154611b1b90829061123d9089611d00565b600686015560025485546001600160a01b0390811691161415611b5557611b518161123d88600c54611d0090919063ffffffff16565b600c555b50611ba6565b8254611b679086611d00565b83556006840154611b789086611d00565b600685015560025484546001600160a01b0390811691161415611ba657600c54611ba29086611d00565b600c555b50505b60038201548154611bc49164e8d4a5100091610aea91611f51565b600182015583611bd2611cc7565b6001600160a01b03167f90890809c654f11d6e72a28fa60149770a0d11ec6c92319d6ceb2bb0a4ea1a1585604051610b3891815260200190565b611c14611cc7565b6001600160a01b0316611c2f6000546001600160a01b031690565b6001600160a01b031614611c555760405162461bcd60e51b815260040161050f906125d5565b6001600160a01b038116611cba5760405162461bcd60e51b815260206004820152602660248201527f4f776e61626c653a206e6577206f776e657220697320746865207a65726f206160448201526564647265737360d01b606482015260840161050f565b610cf181612195565b3390565b6000611cd233610ea2565b15611ce6575060131936013560601c6104e2565b50336104e2565b6000611cf982846126dc565b9392505050565b6000611cf98284612685565b600060078281548110611d2f57634e487b7160e01b600052603260045260246000fd5b60009182526020808320858452600890915260408320600790920201925081611d56611cc7565b6001600160a01b03166001600160a01b03168152602001908152602001600020905080600301546000148015611d8e5750600a544310155b15611da9576005820154611da3904290611d00565b60038201555b6000611dd7826001015461123d64e8d4a51000610aea87600301548760000154611f5190919063ffffffff16565b9050611de5846102ee611cc7565b15611e6d576000811180611dfd575060008260020154115b15611e68576000611e1b836002015483611d0090919063ffffffff16565b9050611e368360020154600b54611ced90919063ffffffff16565b600b55600060028401556005840154611e50904290611d00565b6003840155611e66611e60611cc7565b82611f69565b505b611ee3565b8015611ee3576002820154611e829082611d00565b6002830155600b54611e949082611d00565b600b5583611ea0611cc7565b6001600160a01b03167fee470483107f579a55c754fa00613c45a9a3b617a418b39cb0be97e5381ba7c183604051611eda91815260200190565b60405180910390a35b50505050565b6040516001600160a01b038316602482015260448101829052611f4c90849063a9059cbb60e01b906064015b60408051601f198184030181529190526020810180516001600160e01b03166001600160e01b03199093169290921790915261221d565b505050565b6000611cf982846126bd565b6000611cf9828461269d565b600c546002546040516370a0823160e01b81523060048201526001600160a01b03909116906370a082319060240160206040518083038186803b158015611faf57600080fd5b505afa158015611fc3573d6000803e3d6000fd5b505050506040513d601f19601f82011682018060405250810190611fe7919061245c565b1115610fd057600c546002546040516370a0823160e01b81523060048201526000926120749290916001600160a01b03909116906370a082319060240160206040518083038186803b15801561203c57600080fd5b505afa158015612050573d6000803e3d6000fd5b505050506040513d601f19601f8201168201806040525081019061123d919061245c565b90508082106121095760025460405163a9059cbb60e01b81526001600160a01b038581166004830152602482018490529091169063a9059cbb90604401602060405180830381600087803b1580156120cb57600080fd5b505af11580156120df573d6000803e3d6000fd5b505050506040513d601f19601f820116820180604052508101906121039190612428565b50611f4c565b8115611f4c5760025460405163a9059cbb60e01b81526001600160a01b038581166004830152602482018590529091169063a9059cbb90604401602060405180830381600087803b15801561215d57600080fd5b505af1158015612171573d6000803e3d6000fd5b505050506040513d601f19601f82011682018060405250810190611ee39190612428565b600080546001600160a01b038381166001600160a01b0319831681178455604051919092169283917f8be0079c531659141344cd1fd0a4f28419497f9722a3daafe3b4186f6b6457e09190a35050565b6040516001600160a01b0380851660248301528316604482015260648101829052611ee39085906323b872dd60e01b90608401611f15565b6000612272826040518060400160405280602081526020017f5361666545524332303a206c6f772d6c6576656c2063616c6c206661696c6564815250856001600160a01b03166122ef9092919063ffffffff16565b805190915015611f4c57808060200190518101906122909190612428565b611f4c5760405162461bcd60e51b815260206004820152602a60248201527f5361666545524332303a204552433230206f7065726174696f6e20646964206e6044820152691bdd081cdd58d8d9595960b21b606482015260840161050f565b6060610908848460008585843b6123485760405162461bcd60e51b815260206004820152601d60248201527f416464726573733a2063616c6c20746f206e6f6e2d636f6e7472616374000000604482015260640161050f565b600080866001600160a01b031685876040516123649190612586565b60006040518083038185875af1925050503d80600081146123a1576040519150601f19603f3d011682016040523d82523d6000602084013e6123a6565b606091505b50915091506123b68282866123c1565b979650505050505050565b606083156123d0575081611cf9565b8251156123e05782518084602001fd5b8160405162461bcd60e51b815260040161050f91906125a2565b803561ffff81168114610ec357600080fd5b60006020828403121561241d578081fd5b8135611cf981612750565b600060208284031215612439578081fd5b8151611cf981612765565b600060208284031215612455578081fd5b5035919050565b60006020828403121561246d578081fd5b5051919050565b60008060408385031215612486578081fd5b82359150602083013561249881612750565b809150509250929050565b600080600080600060a086880312156124ba578081fd5b8535945060208601356124cc81612750565b93506124da604087016123fa565b92506060860135915060808601356124f181612765565b809150509295509295909350565b60008060408385031215612511578182fd5b50508035926020909101359150565b600080600060608486031215612534578283fd5b8335925060208401359150604084013561254d81612765565b809150509250925092565b600080600080600060a0868803121561256f578081fd5b85359450602086013593506124da604087016123fa565b600082516125988184602087016126f3565b9190910192915050565b60006020825282518060208401526125c18160408501602087016126f3565b601f01601f19169190910160400192915050565b6020808252818101527f4f776e61626c653a2063616c6c6572206973206e6f7420746865206f776e6572604082015260600190565b6020808252601f908201527f5265656e7472616e637947756172643a207265656e7472616e742063616c6c00604082015260600190565b60208082526024908201527f4f70657261746f723a2063616c6c6572206973206e6f7420746865206f70657260408201526330ba37b960e11b606082015260800190565b600082198211156126985761269861273a565b500190565b6000826126b857634e487b7160e01b81526012600452602481fd5b500490565b60008160001904831182151516156126d7576126d761273a565b500290565b6000828210156126ee576126ee61273a565b500390565b60005b8381101561270e5781810151838201526020016126f6565b83811115611ee35750506000910152565b60006000198214156127335761273361273a565b5060010190565b634e487b7160e01b600052601160045260246000fd5b6001600160a01b0381168114610cf157600080fd5b8015158114610cf157600080fdfea2646970667358221220e57ecb911ad40b502c56d1eed8603c4fa3e8cf7ade49df29e8071a8e259fce9c64736f6c63430008020033",
  "devdoc": {
    "kind": "dev",
    "methods": {
      "owner()": {
        "details": "Returns the address of the current owner."
      },
      "renounceOwnership()": {
        "details": "Leaves the contract without owner. It will not be possible to call `onlyOwner` functions anymore. Can only be called by the current owner. NOTE: Renouncing ownership will leave the contract without an owner, thereby removing any functionality that is only available to the owner."
      },
      "transferOwnership(address)": {
        "details": "Transfers ownership of the contract to a new account (`newOwner`). Can only be called by the current owner."
      }
    },
    "version": 1
  },
  "userdoc": {
    "kind": "user",
    "methods": {},
    "version": 1
  },
  "storageLayout": {
    "storage": [
      {
        "astId": 375,
        "contract": "contracts/farm/AuroDistributor.sol:AuroDistributor",
        "label": "_owner",
        "offset": 0,
        "slot": "0",
        "type": "t_address"
      },
      {
        "astId": 650,
        "contract": "contracts/farm/AuroDistributor.sol:AuroDistributor",
        "label": "_status",
        "offset": 0,
        "slot": "1",
        "type": "t_uint256"
      },
      {
        "astId": 3358,
        "contract": "contracts/farm/AuroDistributor.sol:AuroDistributor",
        "label": "auro",
        "offset": 0,
        "slot": "2",
        "type": "t_contract(IAuroERC20)4964"
      },
      {
        "astId": 3360,
        "contract": "contracts/farm/AuroDistributor.sol:AuroDistributor",
        "label": "_operator",
        "offset": 0,
        "slot": "3",
        "type": "t_address"
      },
      {
        "astId": 3362,
        "contract": "contracts/farm/AuroDistributor.sol:AuroDistributor",
        "label": "devAddress",
        "offset": 0,
        "slot": "4",
        "type": "t_address"
      },
      {
        "astId": 3364,
        "contract": "contracts/farm/AuroDistributor.sol:AuroDistributor",
        "label": "feeAddress",
        "offset": 0,
        "slot": "5",
        "type": "t_address"
      },
      {
        "astId": 3366,
        "contract": "contracts/farm/AuroDistributor.sol:AuroDistributor",
        "label": "auroPerBlock",
        "offset": 0,
        "slot": "6",
        "type": "t_uint256"
      },
      {
        "astId": 3373,
        "contract": "contracts/farm/AuroDistributor.sol:AuroDistributor",
        "label": "poolInfo",
        "offset": 0,
        "slot": "7",
        "type": "t_array(t_struct(PoolInfo)3355_storage)dyn_storage"
      },
      {
        "astId": 3380,
        "contract": "contracts/farm/AuroDistributor.sol:AuroDistributor",
        "label": "userInfo",
        "offset": 0,
        "slot": "8",
        "type": "t_mapping(t_uint256,t_mapping(t_address,t_struct(UserInfo)3339_storage))"
      },
      {
        "astId": 3383,
        "contract": "contracts/farm/AuroDistributor.sol:AuroDistributor",
        "label": "totalAllocPoint",
        "offset": 0,
        "slot": "9",
        "type": "t_uint256"
      },
      {
        "astId": 3385,
        "contract": "contracts/farm/AuroDistributor.sol:AuroDistributor",
        "label": "startBlock",
        "offset": 0,
        "slot": "10",
        "type": "t_uint256"
      },
      {
        "astId": 3387,
        "contract": "contracts/farm/AuroDistributor.sol:AuroDistributor",
        "label": "totalLockedUpRewards",
        "offset": 0,
        "slot": "11",
        "type": "t_uint256"
      },
      {
        "astId": 3390,
        "contract": "contracts/farm/AuroDistributor.sol:AuroDistributor",
        "label": "totalAuroInPools",
        "offset": 0,
        "slot": "12",
        "type": "t_uint256"
      }
    ],
    "types": {
      "t_address": {
        "encoding": "inplace",
        "label": "address",
        "numberOfBytes": "20"
      },
      "t_array(t_struct(PoolInfo)3355_storage)dyn_storage": {
        "base": "t_struct(PoolInfo)3355_storage",
        "encoding": "dynamic_array",
        "label": "struct AuroDistributor.PoolInfo[]",
        "numberOfBytes": "32"
      },
      "t_contract(IAuroERC20)4964": {
        "encoding": "inplace",
        "label": "contract IAuroERC20",
        "numberOfBytes": "20"
      },
      "t_contract(IERC20)1303": {
        "encoding": "inplace",
        "label": "contract IERC20",
        "numberOfBytes": "20"
      },
      "t_mapping(t_address,t_struct(UserInfo)3339_storage)": {
        "encoding": "mapping",
        "key": "t_address",
        "label": "mapping(address => struct AuroDistributor.UserInfo)",
        "numberOfBytes": "32",
        "value": "t_struct(UserInfo)3339_storage"
      },
      "t_mapping(t_uint256,t_mapping(t_address,t_struct(UserInfo)3339_storage))": {
        "encoding": "mapping",
        "key": "t_uint256",
        "label": "mapping(uint256 => mapping(address => struct AuroDistributor.UserInfo))",
        "numberOfBytes": "32",
        "value": "t_mapping(t_address,t_struct(UserInfo)3339_storage)"
      },
      "t_struct(PoolInfo)3355_storage": {
        "encoding": "inplace",
        "label": "struct AuroDistributor.PoolInfo",
        "members": [
          {
            "astId": 3342,
            "contract": "contracts/farm/AuroDistributor.sol:AuroDistributor",
            "label": "lpToken",
            "offset": 0,
            "slot": "0",
            "type": "t_contract(IERC20)1303"
          },
          {
            "astId": 3344,
            "contract": "contracts/farm/AuroDistributor.sol:AuroDistributor",
            "label": "allocPoint",
            "offset": 0,
            "slot": "1",
            "type": "t_uint256"
          },
          {
            "astId": 3346,
            "contract": "contracts/farm/AuroDistributor.sol:AuroDistributor",
            "label": "lastRewardBlock",
            "offset": 0,
            "slot": "2",
            "type": "t_uint256"
          },
          {
            "astId": 3348,
            "contract": "contracts/farm/AuroDistributor.sol:AuroDistributor",
            "label": "accAuroPerShare",
            "offset": 0,
            "slot": "3",
            "type": "t_uint256"
          },
          {
            "astId": 3350,
            "contract": "contracts/farm/AuroDistributor.sol:AuroDistributor",
            "label": "depositFeeBP",
            "offset": 0,
            "slot": "4",
            "type": "t_uint16"
          },
          {
            "astId": 3352,
            "contract": "contracts/farm/AuroDistributor.sol:AuroDistributor",
            "label": "harvestInterval",
            "offset": 0,
            "slot": "5",
            "type": "t_uint256"
          },
          {
            "astId": 3354,
            "contract": "contracts/farm/AuroDistributor.sol:AuroDistributor",
            "label": "totalLp",
            "offset": 0,
            "slot": "6",
            "type": "t_uint256"
          }
        ],
        "numberOfBytes": "224"
      },
      "t_struct(UserInfo)3339_storage": {
        "encoding": "inplace",
        "label": "struct AuroDistributor.UserInfo",
        "members": [
          {
            "astId": 3332,
            "contract": "contracts/farm/AuroDistributor.sol:AuroDistributor",
            "label": "amount",
            "offset": 0,
            "slot": "0",
            "type": "t_uint256"
          },
          {
            "astId": 3334,
            "contract": "contracts/farm/AuroDistributor.sol:AuroDistributor",
            "label": "rewardDebt",
            "offset": 0,
            "slot": "1",
            "type": "t_uint256"
          },
          {
            "astId": 3336,
            "contract": "contracts/farm/AuroDistributor.sol:AuroDistributor",
            "label": "rewardLockedUp",
            "offset": 0,
            "slot": "2",
            "type": "t_uint256"
          },
          {
            "astId": 3338,
            "contract": "contracts/farm/AuroDistributor.sol:AuroDistributor",
            "label": "nextHarvestUntil",
            "offset": 0,
            "slot": "3",
            "type": "t_uint256"
          }
        ],
        "numberOfBytes": "128"
      },
      "t_uint16": {
        "encoding": "inplace",
        "label": "uint16",
        "numberOfBytes": "2"
      },
      "t_uint256": {
        "encoding": "inplace",
        "label": "uint256",
        "numberOfBytes": "32"
      }
    }
  }
}