{
  "address": "0x8392E061aB9fc14CE1f26423A709F28D9227Cb68",
  "abi": [
    {
      "inputs": [
        {
          "internalType": "address",
          "name": "_feeToSetter",
          "type": "address"
        }
      ],
      "stateMutability": "nonpayable",
      "type": "constructor"
    },
    {
      "anonymous": false,
      "inputs": [
        {
          "indexed": true,
          "internalType": "address",
          "name": "token0",
          "type": "address"
        },
        {
          "indexed": true,
          "internalType": "address",
          "name": "token1",
          "type": "address"
        },
        {
          "indexed": false,
          "internalType": "address",
          "name": "pair",
          "type": "address"
        },
        {
          "indexed": false,
          "internalType": "uint256",
          "name": "",
          "type": "uint256"
        }
      ],
      "name": "PairCreated",
      "type": "event"
    },
    {
      "inputs": [],
      "name": "INIT_CODE_PAIR_HASH",
      "outputs": [
        {
          "internalType": "bytes32",
          "name": "",
          "type": "bytes32"
        }
      ],
      "stateMutability": "view",
      "type": "function"
    },
    {
      "inputs": [
        {
          "internalType": "uint256",
          "name": "",
          "type": "uint256"
        }
      ],
      "name": "allPairs",
      "outputs": [
        {
          "internalType": "address",
          "name": "",
          "type": "address"
        }
      ],
      "stateMutability": "view",
      "type": "function"
    },
    {
      "inputs": [],
      "name": "allPairsLength",
      "outputs": [
        {
          "internalType": "uint256",
          "name": "",
          "type": "uint256"
        }
      ],
      "stateMutability": "view",
      "type": "function"
    },
    {
      "inputs": [],
      "name": "auro",
      "outputs": [
        {
          "internalType": "address",
          "name": "",
          "type": "address"
        }
      ],
      "stateMutability": "view",
      "type": "function"
    },
    {
      "inputs": [
        {
          "internalType": "address",
          "name": "tokenA",
          "type": "address"
        },
        {
          "internalType": "address",
          "name": "tokenB",
          "type": "address"
        }
      ],
      "name": "createPair",
      "outputs": [
        {
          "internalType": "address",
          "name": "pair",
          "type": "address"
        }
      ],
      "stateMutability": "nonpayable",
      "type": "function"
    },
    {
      "inputs": [
        {
          "internalType": "address",
          "name": "pairAddress",
          "type": "address"
        }
      ],
      "name": "disableMetaTxnsPair",
      "outputs": [],
      "stateMutability": "nonpayable",
      "type": "function"
    },
    {
      "inputs": [
        {
          "internalType": "address",
          "name": "pairAddress",
          "type": "address"
        }
      ],
      "name": "enableMetaTxnsPair",
      "outputs": [],
      "stateMutability": "nonpayable",
      "type": "function"
    },
    {
      "inputs": [],
      "name": "feeTo",
      "outputs": [
        {
          "internalType": "address",
          "name": "",
          "type": "address"
        }
      ],
      "stateMutability": "view",
      "type": "function"
    },
    {
      "inputs": [],
      "name": "feeToSetter",
      "outputs": [
        {
          "internalType": "address",
          "name": "",
          "type": "address"
        }
      ],
      "stateMutability": "view",
      "type": "function"
    },
    {
      "inputs": [
        {
          "internalType": "address",
          "name": "",
          "type": "address"
        },
        {
          "internalType": "address",
          "name": "",
          "type": "address"
        }
      ],
      "name": "getPair",
      "outputs": [
        {
          "internalType": "address",
          "name": "",
          "type": "address"
        }
      ],
      "stateMutability": "view",
      "type": "function"
    },
    {
      "inputs": [],
      "name": "migrator",
      "outputs": [
        {
          "internalType": "address",
          "name": "",
          "type": "address"
        }
      ],
      "stateMutability": "view",
      "type": "function"
    },
    {
      "inputs": [
        {
          "internalType": "address",
          "name": "_auro",
          "type": "address"
        }
      ],
      "name": "setAuroAddress",
      "outputs": [],
      "stateMutability": "nonpayable",
      "type": "function"
    },
    {
      "inputs": [
        {
          "internalType": "address",
          "name": "_feeTo",
          "type": "address"
        }
      ],
      "name": "setFeeTo",
      "outputs": [],
      "stateMutability": "nonpayable",
      "type": "function"
    },
    {
      "inputs": [
        {
          "internalType": "address",
          "name": "_feeToSetter",
          "type": "address"
        }
      ],
      "name": "setFeeToSetter",
      "outputs": [],
      "stateMutability": "nonpayable",
      "type": "function"
    },
    {
      "inputs": [
        {
          "internalType": "address",
          "name": "_migrator",
          "type": "address"
        }
      ],
      "name": "setMigrator",
      "outputs": [],
      "stateMutability": "nonpayable",
      "type": "function"
    }
  ],
  "transactionHash": "0x433f0dee6d969349c1ca91f2595de1e319bcc1bd490a2f8b1fc3894cc77491e9",
  "args": [
    "0xeAD468684102da07294006F96376FF78b760C9BD"
  ],
  "solcInputHash": "c6f16fec18319f61003f4ef92475b88c",
  "bytecode": "0x608060405234801561001057600080fd5b506040516138153803806138158339818101604052602081101561003357600080fd5b5051600180546001600160a01b0319166001600160a01b039092169190911790556137b2806100636000396000f3fe608060405234801561001057600080fd5b50600436106100f55760003560e01c80635e07d17b11610097578063b0cb33fe11610066578063b0cb33fe1461020f578063c9c6539614610235578063e6a4390514610263578063f46901ed14610291576100f5565b80635e07d17b146101955780636bd7c172146101bb5780637cd07e47146101e1578063a2e74af6146101e9576100f5565b806321dd70e6116100d357806321dd70e61461014357806323cf31181461014b578063574f2ba3146101735780635855a25a1461018d576100f5565b8063017e7e58146100fa578063094b74151461011e5780631e3dd18b14610126575b600080fd5b6101026102b7565b604080516001600160a01b039092168252519081900360200190f35b6101026102c6565b6101026004803603602081101561013c57600080fd5b50356102d5565b6101026102fc565b6101716004803603602081101561016157600080fd5b50356001600160a01b031661030b565b005b61017b61037a565b60408051918252519081900360200190f35b61017b610380565b610171600480360360208110156101ab57600080fd5b50356001600160a01b0316610413565b610171600480360360208110156101d157600080fd5b50356001600160a01b03166105b8565b610102610682565b610171600480360360208110156101ff57600080fd5b50356001600160a01b0316610691565b6101716004803603602081101561022557600080fd5b50356001600160a01b0316610700565b6101026004803603604081101561024b57600080fd5b506001600160a01b0381358116916020013516610888565b6101026004803603604081101561027957600080fd5b506001600160a01b0381358116916020013516610ba4565b610171600480360360208110156102a757600080fd5b50356001600160a01b0316610bca565b6000546001600160a01b031681565b6001546001600160a01b031681565b600581815481106102e257fe5b6000918252602090912001546001600160a01b0316905081565b6003546001600160a01b031681565b6001546001600160a01b03163314610358576040805162461bcd60e51b8152602060048201526017602482015260008051602061375d833981519152604482015290519081900360640190fd5b600280546001600160a01b0319166001600160a01b0392909216919091179055565b60055490565b60405161038f60208201610c39565b6020820181038252601f19601f820116604052506040516020018082805190602001908083835b602083106103d55780518252601f1990920191602091820191016103b6565b6001836020036101000a0380198251168184511680821785525050505050509050019150506040516020818303038152906040528051906020012081565b6001546001600160a01b03163314610460576040805162461bcd60e51b8152602060048201526017602482015260008051602061375d833981519152604482015290519081900360640190fd5b6001600160a01b0381166104bb576040805162461bcd60e51b815260206004820152601d60248201527f566972616c617461537761703a20504149525f4e4f545f455849535453000000604482015290519081900360640190fd5b6000819050806001600160a01b031663a8c95dc06040518163ffffffff1660e01b815260040160206040518083038186803b1580156104f957600080fd5b505afa15801561050d573d6000803e3d6000fd5b505050506040513d602081101561052357600080fd5b5051156105615760405162461bcd60e51b81526004018080602001828103825260278152602001806137156027913960400191505060405180910390fd5b806001600160a01b031663578bb42d6040518163ffffffff1660e01b8152600401600060405180830381600087803b15801561059c57600080fd5b505af11580156105b0573d6000803e3d6000fd5b505050505050565b6001546001600160a01b03163314610605576040805162461bcd60e51b8152602060048201526017602482015260008051602061375d833981519152604482015290519081900360640190fd5b6001600160a01b038116610660576040805162461bcd60e51b815260206004820152601d60248201527f566972616c617461537761703a20494e56414c49445f41444452455353000000604482015290519081900360640190fd5b600380546001600160a01b0319166001600160a01b0392909216919091179055565b6002546001600160a01b031681565b6001546001600160a01b031633146106de576040805162461bcd60e51b8152602060048201526017602482015260008051602061375d833981519152604482015290519081900360640190fd5b600180546001600160a01b0319166001600160a01b0392909216919091179055565b6001546001600160a01b0316331461074d576040805162461bcd60e51b8152602060048201526017602482015260008051602061375d833981519152604482015290519081900360640190fd5b6001600160a01b0381166107a8576040805162461bcd60e51b815260206004820152601d60248201527f566972616c617461537761703a20504149525f4e4f545f455849535453000000604482015290519081900360640190fd5b6000819050806001600160a01b031663a8c95dc06040518163ffffffff1660e01b815260040160206040518083038186803b1580156107e657600080fd5b505afa1580156107fa573d6000803e3d6000fd5b505050506040513d602081101561081057600080fd5b505161084d5760405162461bcd60e51b81526004018080602001828103825260288152602001806136ed6028913960400191505060405180910390fd5b806001600160a01b031663083836406040518163ffffffff1660e01b8152600401600060405180830381600087803b15801561059c57600080fd5b6000816001600160a01b0316836001600160a01b031614156108db5760405162461bcd60e51b815260040180806020018281038252602181526020018061373c6021913960400191505060405180910390fd5b600080836001600160a01b0316856001600160a01b0316106108fe578385610901565b84845b90925090506001600160a01b038216610961576040805162461bcd60e51b815260206004820152601a60248201527f566972616c617461537761703a205a45524f5f41444452455353000000000000604482015290519081900360640190fd5b6001600160a01b038281166000908152600460209081526040808320858516845290915290205416156109db576040805162461bcd60e51b815260206004820152601960248201527f566972616c617461537761703a20504149525f45584953545300000000000000604482015290519081900360640190fd5b6060604051806020016109ed90610c39565b6020820181038252601f19601f8201166040525090506000838360405160200180836001600160a01b031660601b8152601401826001600160a01b031660601b815260140192505050604051602081830303815290604052805190602001209050808251602084016000f59450846001600160a01b031663485cc95585856040518363ffffffff1660e01b815260040180836001600160a01b03168152602001826001600160a01b0316815260200192505050600060405180830381600087803b158015610aba57600080fd5b505af1158015610ace573d6000803e3d6000fd5b505050506001600160a01b0384811660008181526004602081815260408084208987168086529083528185208054978d166001600160a01b031998891681179091559383528185208686528352818520805488168517905560058054600181018255958190527f036b6384b5eca791c62761152d0c79bb0604c104a5fb6f4eb0703f3154bb3db090950180549097168417909655925483519283529082015281517f0d3648bd0f6ba80134a33ba9275ac585d9d315f0ad8355cddefde31afa28d0e9929181900390910190a35050505092915050565b60046020908152600092835260408084209091529082529020546001600160a01b031681565b6001546001600160a01b03163314610c17576040805162461bcd60e51b8152602060048201526017602482015260008051602061375d833981519152604482015290519081900360640190fd5b600080546001600160a01b0319166001600160a01b0392909216919091179055565b612aa680610c478339019056fe60806040526005805460ff60a01b191690556001600d5534801561002257600080fd5b50604080518082018252601581527f566972616c61746153776170204c5020546f6b656e00000000000000000000006020918201528151808301835260018152603160f81b9082015281517f8b73c3c69bb8fe3d512ecc4cf759cc79239f7b179b0ffacaa9a75d522b39400f818301527f74395e1e6331e722a2daafb6a053df80b7ff71036f1a18db088bab1d965fe5db818401527fc89efdaa54c0f20c7adf612882df0950f5a951637e0307cdcb4c672f298b8bc660608201524660808201523060a0808301919091528351808303909101815260c09091019092528151910120600355600680546001600160a01b0319163317905561297e806101286000396000f3fe608060405234801561001057600080fd5b50600436106101e55760003560e01c80635a3d54931161010f578063a9059cbb116100a2578063d21220a711610071578063d21220a7146105ae578063d505accf146105b6578063dd62ed3e14610607578063fff6cae914610635576101e5565b8063a9059cbb1461054c578063ba9a7a5614610578578063bc25cf7714610580578063c45a0155146105a6576101e5565b80637ecebe00116100de5780637ecebe00146104d757806389afcb44146104fd57806395d89b411461053c578063a8c95dc014610544576101e5565b80635a3d54931461047b5780636a6278421461048357806370a08231146104a95780637464fc3d146104cf576101e5565b806323b872dd11610187578063485cc95511610156578063485cc95514610417578063572b6c0514610445578063578bb42d1461046b5780635909c0d514610473576101e5565b806323b872dd146103b357806330adf81f146103e9578063313ce567146103f15780633644e5151461040f576101e5565b80630902f1ac116101c35780630902f1ac146102fd578063095ea7b3146103355780630dfe16811461037557806318160ddd14610399576101e5565b8063022c0d9f146101ea57806306fdde031461027857806308383640146102f5575b600080fd5b6102766004803603608081101561020057600080fd5b8135916020810135916001600160a01b03604083013516919081019060808101606082013564010000000081111561023757600080fd5b82018360208201111561024957600080fd5b8035906020019184600183028401116401000000008311171561026b57600080fd5b50909250905061063d565b005b610280610d13565b6040805160208082528351818301528351919283929083019185019080838360005b838110156102ba5781810151838201526020016102a2565b50505050905090810190601f1680156102e75780820380516001836020036101000a031916815260200191505b509250505060405180910390f35b610276610d44565b610305610e41565b604080516001600160701b03948516815292909316602083015263ffffffff168183015290519081900360600190f35b6103616004803603604081101561034b57600080fd5b506001600160a01b038135169060200135610e6b565b604080519115158252519081900360200190f35b61037d610e89565b604080516001600160a01b039092168252519081900360200190f35b6103a1610e98565b60408051918252519081900360200190f35b610361600480360360608110156103c957600080fd5b506001600160a01b03813581169160208101359091169060400135610e9e565b6103a1610f81565b6103f9610fa5565b6040805160ff9092168252519081900360200190f35b6103a1610faa565b6102766004803603604081101561042d57600080fd5b506001600160a01b0381358116916020013516610fb0565b6103616004803603602081101561045b57600080fd5b50356001600160a01b0316611037565b610276611068565b6103a161116c565b6103a1611172565b6103a16004803603602081101561049957600080fd5b50356001600160a01b0316611178565b6103a1600480360360208110156104bf57600080fd5b50356001600160a01b031661161d565b6103a161162f565b6103a1600480360360208110156104ed57600080fd5b50356001600160a01b0316611635565b6105236004803603602081101561051357600080fd5b50356001600160a01b0316611647565b6040805192835260208301919091528051918290030190f35b6102806119f0565b610361611a0f565b6103616004803603604081101561056257600080fd5b506001600160a01b038135169060200135611a1f565b6103a1611a33565b6102766004803603602081101561059657600080fd5b50356001600160a01b0316611a39565b61037d611bae565b61037d611bbd565b610276600480360360e08110156105cc57600080fd5b506001600160a01b03813581169160208101359091169060408101359060608101359060ff6080820135169060a08101359060c00135611bcc565b6103a16004803603604081101561061d57600080fd5b506001600160a01b0381358116916020013516611dd1565b610276611dee565b600d5460011461068b576040805162461bcd60e51b8152602060048201526014602482015273159a5c985b185d1854ddd85c0e881313d0d2d15160621b604482015290519081900360640190fd5b6000600d558415158061069e5750600084115b6106d95760405162461bcd60e51b81526004018080602001828103825260288152602001806128ab6028913960400191505060405180910390fd5b6106e16127e1565b6040518060e0016040528060006001600160701b0316815260200160006001600160701b031681526020016000815260200160008152602001600081526020016000815260200160008152509050610737610e41565b506001600160701b0390811660208401521680825286108015610766575080602001516001600160701b031685105b6107a15760405162461bcd60e51b81526004018080602001828103825260248152602001806129256024913960400191505060405180910390fd5b601960c0820152600654604080516310eeb87360e11b815290516000926001600160a01b0316916321dd70e6916004808301926020929190829003018186803b1580156107ed57600080fd5b505afa158015610801573d6000803e3d6000fd5b505050506040513d602081101561081757600080fd5b50516007546008549192506001600160a01b0390811691811690871682148015906108545750806001600160a01b0316876001600160a01b031614155b6108a5576040805162461bcd60e51b815260206004820152601860248201527f566972616c617461537761703a20494e56414c49445f544f0000000000000000604482015290519081900360640190fd5b88156108b6576108b682888b611f53565b87156108c7576108c781888a611f53565b841561098057866001600160a01b03166310d1e85c6108e46120ed565b8b8b8a8a6040518663ffffffff1660e01b815260040180866001600160a01b03168152602001858152602001848152602001806020018281038252848482818152602001925080828437600081840152601f19601f8201169050808301925050509650505050505050600060405180830381600087803b15801561096757600080fd5b505af115801561097b573d6000803e3d6000fd5b505050505b826001600160a01b0316826001600160a01b031614806109b15750826001600160a01b0316816001600160a01b0316145b156109be57603260c08501525b604080516370a0823160e01b815230600482015290516001600160a01b038416916370a08231916024808301926020929190829003018186803b158015610a0457600080fd5b505afa158015610a18573d6000803e3d6000fd5b505050506040513d6020811015610a2e57600080fd5b505160408086019190915280516370a0823160e01b815230600482015290516001600160a01b038316916370a08231916024808301926020929190829003018186803b158015610a7d57600080fd5b505afa158015610a91573d6000803e3d6000fd5b505050506040513d6020811015610aa757600080fd5b505160608501525050815160408301516001600160701b0390911688900310610ad1576000610ae8565b8682600001516001600160701b0316038260400151035b8260800181815250508582602001516001600160701b031603826060015111610b12576000610b29565b8582602001516001600160701b0316038260600151035b60a08301526080820151151580610b44575060008260a00151115b610b7f5760405162461bcd60e51b81526004018080602001828103825260278152602001806128fe6027913960400191505060405180910390fd5b6000610bb6610b9f8460c00151856080015161211290919063ffffffff16565b6040850151610bb090612710612112565b90612175565b90506000610be9610bd88560c001518660a0015161211290919063ffffffff16565b6060860151610bb090612710612112565b9050610c266305f5e100610c2086602001516001600160701b031687600001516001600160701b031661211290919063ffffffff16565b90612112565b610c308383612112565b1015610c75576040805162461bcd60e51b815260206004820152600f60248201526e566972616c617461537761703a204b60881b604482015290519081900360640190fd5b5050610c9382604001518360600151846000015185602001516121c5565b846001600160a01b0316610ca56120ed565b6001600160a01b03167fd78ad95fa46c994b6551d0da85fc275fe613ce37657fb8d5e3d130840159d82284608001518560a001518b8b6040518085815260200184815260200183815260200182815260200194505050505060405180910390a350506001600d555050505050565b604051806040016040528060158152602001742b34b930b630ba30a9bbb0b8102628102a37b5b2b760591b81525081565b6006546001600160a01b0316610d586120ed565b6001600160a01b031614610dad576040805162461bcd60e51b81526020600482015260176024820152762b34b930b630ba30a9bbb0b81d102327a92124a22222a760491b604482015290519081900360640190fd5b600554600160a01b900460ff16610df55760405162461bcd60e51b81526004018080602001828103825260288152602001806128316028913960400191505060405180910390fd5b6005805460ff60a01b19169055610e0a6120ed565b6001600160a01b03167f096be170ccc67847e55535e7d8334b2afedd95805baedc160005addb9144745060405160405180910390a2565b6009546001600160701b0380821692600160701b830490911691600160e01b900463ffffffff1690565b6000610e7f610e786120ed565b8484612387565b5060015b92915050565b6007546001600160a01b031681565b60005481565b6001600160a01b03831660009081526002602052604081206000199082610ec36120ed565b6001600160a01b03166001600160a01b031681526020019081526020016000205414610f6c576001600160a01b0384166000908152600260205260408120610f3091849190610f106120ed565b6001600160a01b0316815260208101919091526040016000205490612175565b6001600160a01b038516600090815260026020526040812090610f516120ed565b6001600160a01b031681526020810191909152604001600020555b610f778484846123e9565b5060019392505050565b7f6e71edae12b1b97f4d1f60370fef10105fa2faae0126114a169c64845d6126c981565b601281565b60035481565b6006546001600160a01b03163314611009576040805162461bcd60e51b81526020600482015260176024820152762b34b930b630ba30a9bbb0b81d102327a92124a22222a760491b604482015290519081900360640190fd5b600780546001600160a01b039384166001600160a01b03199182161790915560088054929093169116179055565b600554600090600160a01b900460ff16801561106057506005546001600160a01b038381169116145b90505b919050565b6006546001600160a01b031661107c6120ed565b6001600160a01b0316146110d1576040805162461bcd60e51b81526020600482015260176024820152762b34b930b630ba30a9bbb0b81d102327a92124a22222a760491b604482015290519081900360640190fd5b600554600160a01b900460ff161561111a5760405162461bcd60e51b81526004018080602001828103825260278152602001806128596027913960400191505060405180910390fd5b6005805460ff60a01b1916600160a01b1790556111356120ed565b6001600160a01b03167f92e4c08d47b71e8dc051232b8e475ec296489a67a4ba5cca88ff20fb6ac499e660405160405180910390a2565b600a5481565b600b5481565b6000600d546001146111c8576040805162461bcd60e51b8152602060048201526014602482015273159a5c985b185d1854ddd85c0e881313d0d2d15160621b604482015290519081900360640190fd5b6000600d819055806111d8610e41565b50600754604080516370a0823160e01b815230600482015290519395509193506000926001600160a01b03909116916370a08231916024808301926020929190829003018186803b15801561122c57600080fd5b505afa158015611240573d6000803e3d6000fd5b505050506040513d602081101561125657600080fd5b5051600854604080516370a0823160e01b815230600482015290519293506000926001600160a01b03909216916370a0823191602480820192602092909190829003018186803b1580156112a957600080fd5b505afa1580156112bd573d6000803e3d6000fd5b505050506040513d60208110156112d357600080fd5b5051905060006112ec836001600160701b038716612175565b90506000611303836001600160701b038716612175565b905060006113118787612497565b600054909150806114f85760065460408051637cd07e4760e01b815290516000926001600160a01b031691637cd07e47916004808301926020929190829003018186803b15801561136157600080fd5b505afa158015611375573d6000803e3d6000fd5b505050506040513d602081101561138b57600080fd5b505190506001600160a01b0381166113a16120ed565b6001600160a01b0316141561147657806001600160a01b03166340dc0e376040518163ffffffff1660e01b815260040160206040518083038186803b1580156113e957600080fd5b505afa1580156113fd573d6000803e3d6000fd5b505050506040513d602081101561141357600080fd5b50519950891580159061142857506000198a14155b611471576040805162461bcd60e51b81526020600482015260156024820152744261642064657369726564206c697175696469747960581b604482015290519081900360640190fd5b6114f2565b6001600160a01b038116156114cb576040805162461bcd60e51b815260206004820152601660248201527526bab9ba103737ba103430bb329036b4b3b930ba37b960511b604482015290519081900360640190fd5b6114e36103e8610bb06114de8888612112565b6125d6565b99506114f260006103e8612627565b5061153b565b6115386001600160701b03891661150f8684612112565b8161151657fe5b046001600160701b03891661152b8685612112565b8161153257fe5b046126b1565b98505b6000891161157a5760405162461bcd60e51b815260040180806020018281038252602b8152602001806128d3602b913960400191505060405180910390fd5b6115848a8a612627565b61159086868a8a6121c5565b81156115ba576009546115b6906001600160701b0380821691600160701b900416612112565b600c555b6115c26120ed565b6001600160a01b03167f4c209b5fc8ad50758f13e2e1088ba56a560dff690a1c6fef26394f4c03821c4f8585604051808381526020018281526020019250505060405180910390a250506001600d5550949695505050505050565b60016020526000908152604090205481565b600c5481565b60046020526000908152604090205481565b600080600d54600114611698576040805162461bcd60e51b8152602060048201526014602482015273159a5c985b185d1854ddd85c0e881313d0d2d15160621b604482015290519081900360640190fd5b6000600d819055806116a8610e41565b50600754600854604080516370a0823160e01b815230600482015290519496509294506001600160a01b039182169391169160009184916370a08231916024808301926020929190829003018186803b15801561170457600080fd5b505afa158015611718573d6000803e3d6000fd5b505050506040513d602081101561172e57600080fd5b5051604080516370a0823160e01b815230600482015290519192506000916001600160a01b038516916370a08231916024808301926020929190829003018186803b15801561177c57600080fd5b505afa158015611790573d6000803e3d6000fd5b505050506040513d60208110156117a657600080fd5b5051306000908152600160205260408120549192506117c58888612497565b600054909150806117d68487612112565b816117dd57fe5b049a50806117eb8486612112565b816117f257fe5b04995060008b118015611805575060008a115b6118405760405162461bcd60e51b815260040180806020018281038252602b815260200180612880602b913960400191505060405180910390fd5b61184a30846126c9565b611855878d8d611f53565b611860868d8c611f53565b604080516370a0823160e01b815230600482015290516001600160a01b038916916370a08231916024808301926020929190829003018186803b1580156118a657600080fd5b505afa1580156118ba573d6000803e3d6000fd5b505050506040513d60208110156118d057600080fd5b5051604080516370a0823160e01b815230600482015290519196506001600160a01b038816916370a0823191602480820192602092909190829003018186803b15801561191c57600080fd5b505afa158015611930573d6000803e3d6000fd5b505050506040513d602081101561194657600080fd5b5051935061195685858b8b6121c5565b81156119805760095461197c906001600160701b0380821691600160701b900416612112565b600c555b8b6001600160a01b03166119926120ed565b6001600160a01b03167fdccd412f0b1252819cb1fd330b93224ca42612892bb3f4f789976e6d819364968d8d604051808381526020018281526020019250505060405180910390a35050505050505050506001600d81905550915091565b604051806040016040528060038152602001620564c560ec1b81525081565b600554600160a01b900460ff1681565b6000610e7f611a2c6120ed565b84846123e9565b6103e881565b600d54600114611a87576040805162461bcd60e51b8152602060048201526014602482015273159a5c985b185d1854ddd85c0e881313d0d2d15160621b604482015290519081900360640190fd5b6000600d55600754600854600954604080516370a0823160e01b815230600482015290516001600160a01b039485169490931692611b309285928792611b2b926001600160701b03169185916370a0823191602480820192602092909190829003018186803b158015611af957600080fd5b505afa158015611b0d573d6000803e3d6000fd5b505050506040513d6020811015611b2357600080fd5b505190612175565b611f53565b611ba48184611b2b6009600e9054906101000a90046001600160701b03166001600160701b0316856001600160a01b03166370a08231306040518263ffffffff1660e01b815260040180826001600160a01b0316815260200191505060206040518083038186803b158015611af957600080fd5b50506001600d5550565b6006546001600160a01b031681565b6008546001600160a01b031681565b42841015611c19576040805162461bcd60e51b8152602060048201526015602482015274159a5c985b185d1854ddd85c0e8811561412549151605a1b604482015290519081900360640190fd5b6003546001600160a01b0380891660008181526004602090815260408083208054600180820190925582517f6e71edae12b1b97f4d1f60370fef10105fa2faae0126114a169c64845d6126c98186015280840196909652958d166060860152608085018c905260a085019590955260c08085018b90528151808603909101815260e08501825280519083012061190160f01b6101008601526101028501969096526101228085019690965280518085039096018652610142840180825286519683019690962095839052610162840180825286905260ff89166101828501526101a284018890526101c28401879052519193926101e280820193601f1981019281900390910190855afa158015611d34573d6000803e3d6000fd5b5050604051601f1901519150506001600160a01b03811615801590611d6a5750886001600160a01b0316816001600160a01b0316145b611dbb576040805162461bcd60e51b815260206004820152601f60248201527f566972616c617461537761703a20494e56414c49445f5349474e415455524500604482015290519081900360640190fd5b611dc6898989612387565b505050505050505050565b600260209081526000928352604080842090915290825290205481565b600d54600114611e3c576040805162461bcd60e51b8152602060048201526014602482015273159a5c985b185d1854ddd85c0e881313d0d2d15160621b604482015290519081900360640190fd5b6000600d55600754604080516370a0823160e01b81523060048201529051611f4c926001600160a01b0316916370a08231916024808301926020929190829003018186803b158015611e8d57600080fd5b505afa158015611ea1573d6000803e3d6000fd5b505050506040513d6020811015611eb757600080fd5b5051600854604080516370a0823160e01b815230600482015290516001600160a01b03909216916370a0823191602480820192602092909190829003018186803b158015611f0457600080fd5b505afa158015611f18573d6000803e3d6000fd5b505050506040513d6020811015611f2e57600080fd5b50516009546001600160701b0380821691600160701b9004166121c5565b6001600d55565b604080518082018252601981527f7472616e7366657228616464726573732c75696e74323536290000000000000060209182015281516001600160a01b0385811660248301526044808301869052845180840390910181526064909201845291810180516001600160e01b031663a9059cbb60e01b1781529251815160009460609489169392918291908083835b602083106120005780518252601f199092019160209182019101611fe1565b6001836020036101000a0380198251168184511680821785525050505050509050019150506000604051808303816000865af19150503d8060008114612062576040519150601f19603f3d011682016040523d82523d6000602084013e612067565b606091505b5091509150818015612095575080511580612095575080806020019051602081101561209257600080fd5b50515b6120e6576040805162461bcd60e51b815260206004820152601d60248201527f566972616c617461537761703a205452414e534645525f4641494c4544000000604482015290519081900360640190fd5b5050505050565b60006120f833611037565b1561210c575060131936013560601c61210f565b50335b90565b600081158061212d5750508082028282828161212a57fe5b04145b610e83576040805162461bcd60e51b815260206004820152601460248201527364732d6d6174682d6d756c2d6f766572666c6f7760601b604482015290519081900360640190fd5b80820382811115610e83576040805162461bcd60e51b815260206004820152601560248201527464732d6d6174682d7375622d756e646572666c6f7760581b604482015290519081900360640190fd5b6001600160701b0384118015906121e357506001600160701b038311155b61222d576040805162461bcd60e51b8152602060048201526016602482015275566972616c617461537761703a204f564552464c4f5760501b604482015290519081900360640190fd5b60095463ffffffff42811691600160e01b9004811682039081161580159061225d57506001600160701b03841615155b801561227157506001600160701b03831615155b156122dc578063ffffffff166122998561228a8661275b565b6001600160e01b03169061276d565b600a80546001600160e01b03929092169290920201905563ffffffff81166122c48461228a8761275b565b600b80546001600160e01b0392909216929092020190555b600980546dffffffffffffffffffffffffffff19166001600160701b03888116919091176dffffffffffffffffffffffffffff60701b1916600160701b8883168102919091176001600160e01b0316600160e01b63ffffffff871602179283905560408051848416815291909304909116602082015281517f1c411e9a96e071241c2f21f7726b17ae89e3cab4c78be50e062b03a9fffbbad1929181900390910190a1505050505050565b6001600160a01b03808416600081815260026020908152604080832094871680845294825291829020859055815185815291517f8c5be1e5ebec7d5bd14f71427d1e84f3dd0314c0f7b2291e5b200ac8c7c3b9259281900390910190a3505050565b6001600160a01b03831660009081526001602052604090205461240c9082612175565b6001600160a01b03808516600090815260016020526040808220939093559084168152205461243b9082612792565b6001600160a01b0380841660008181526001602090815260409182902094909455805185815290519193928716927fddf252ad1be2c89b69c2b068fc378daa952ba7f163c4a11628f55a4df523b3ef92918290030190a3505050565b600080600660009054906101000a90046001600160a01b03166001600160a01b031663017e7e586040518163ffffffff1660e01b815260040160206040518083038186803b1580156124e857600080fd5b505afa1580156124fc573d6000803e3d6000fd5b505050506040513d602081101561251257600080fd5b5051600c546001600160a01b0382161580159450919250906125c25780156125bd57600061254f6114de6001600160701b03888116908816612112565b9050600061255c836125d6565b9050808211156125ba57600061257e6125758484612175565b60005490612112565b90506000612596836125908684612112565b90612792565b905060008183816125a357fe5b04905080156125b6576125b68782612627565b5050505b50505b6125ce565b80156125ce576000600c555b505092915050565b60006003821115612619575080600160028204015b818110156126135780915060028182858161260257fe5b04018161260b57fe5b0490506125eb565b50611063565b811561106357506001919050565b6000546126349082612792565b60009081556001600160a01b0383168152600160205260409020546126599082612792565b6001600160a01b03831660008181526001602090815260408083209490945583518581529351929391927fddf252ad1be2c89b69c2b068fc378daa952ba7f163c4a11628f55a4df523b3ef9281900390910190a35050565b60008183106126c057816126c2565b825b9392505050565b6001600160a01b0382166000908152600160205260409020546126ec9082612175565b6001600160a01b038316600090815260016020526040812091909155546127139082612175565b60009081556040805183815290516001600160a01b038516917fddf252ad1be2c89b69c2b068fc378daa952ba7f163c4a11628f55a4df523b3ef919081900360200190a35050565b6001600160701b0316600160701b0290565b60006001600160701b0382166001600160e01b0384168161278a57fe5b049392505050565b80820182811015610e83576040805162461bcd60e51b815260206004820152601460248201527364732d6d6174682d6164642d6f766572666c6f7760601b604482015290519081900360640190fd5b6040518060e0016040528060006001600160701b0316815260200160006001600160701b031681526020016000815260200160008152602001600081526020016000815260200160008152509056fe566972616c617461537761703a204d4554415f54584e535f414c52454144595f44495341424c4544566972616c617461537761703a204d4554415f54584e535f414c52454144595f454e41424c4544566972616c617461537761703a20494e53554646494349454e545f4c49515549444954595f4255524e4544566972616c617461537761703a20494e53554646494349454e545f4f55545055545f414d4f554e54566972616c617461537761703a20494e53554646494349454e545f4c49515549444954595f4d494e544544566972616c617461537761703a20494e53554646494349454e545f494e5055545f414d4f554e54566972616c617461537761703a20494e53554646494349454e545f4c4951554944495459a2646970667358221220722dfbe23f84b6452d2d55fa8bb512f5fe4b265164bb82fab3afd0be4a4cf54564736f6c634300060c0033566972616c617461537761703a204d4554415f54584e535f414c52454144595f44495341424c4544566972616c617461537761703a204d4554415f54584e535f414c52454144595f454e41424c4544566972616c617461537761703a204944454e544943414c5f414444524553534553566972616c617461537761703a20464f5242494444454e000000000000000000a2646970667358221220d88385ed2fce485dec2d6b2c1ea4f4193dcadc814b48967d0290d5ccdf8036a564736f6c634300060c0033",
  "devdoc": {
    "kind": "dev",
    "methods": {},
    "version": 1
  },
  "userdoc": {
    "kind": "user",
    "methods": {},
    "version": 1
  },
  "storageLayout": {
    "storage": [
      {
        "astId": 477,
        "contract": "contracts/uniswapv2/ViralataFactory.sol:ViralataFactory",
        "label": "feeTo",
        "offset": 0,
        "slot": "0",
        "type": "t_address"
      },
      {
        "astId": 480,
        "contract": "contracts/uniswapv2/ViralataFactory.sol:ViralataFactory",
        "label": "feeToSetter",
        "offset": 0,
        "slot": "1",
        "type": "t_address"
      },
      {
        "astId": 483,
        "contract": "contracts/uniswapv2/ViralataFactory.sol:ViralataFactory",
        "label": "migrator",
        "offset": 0,
        "slot": "2",
        "type": "t_address"
      },
      {
        "astId": 486,
        "contract": "contracts/uniswapv2/ViralataFactory.sol:ViralataFactory",
        "label": "auro",
        "offset": 0,
        "slot": "3",
        "type": "t_address"
      },
      {
        "astId": 493,
        "contract": "contracts/uniswapv2/ViralataFactory.sol:ViralataFactory",
        "label": "getPair",
        "offset": 0,
        "slot": "4",
        "type": "t_mapping(t_address,t_mapping(t_address,t_address))"
      },
      {
        "astId": 497,
        "contract": "contracts/uniswapv2/ViralataFactory.sol:ViralataFactory",
        "label": "allPairs",
        "offset": 0,
        "slot": "5",
        "type": "t_array(t_address)dyn_storage"
      }
    ],
    "types": {
      "t_address": {
        "encoding": "inplace",
        "label": "address",
        "numberOfBytes": "20"
      },
      "t_array(t_address)dyn_storage": {
        "base": "t_address",
        "encoding": "dynamic_array",
        "label": "address[]",
        "numberOfBytes": "32"
      },
      "t_mapping(t_address,t_address)": {
        "encoding": "mapping",
        "key": "t_address",
        "label": "mapping(address => address)",
        "numberOfBytes": "32",
        "value": "t_address"
      },
      "t_mapping(t_address,t_mapping(t_address,t_address))": {
        "encoding": "mapping",
        "key": "t_address",
        "label": "mapping(address => mapping(address => address))",
        "numberOfBytes": "32",
        "value": "t_mapping(t_address,t_address)"
      }
    }
  }
}