{
  "address": "0xc9EF919fCf8722C38Bf947195c4bC82D25323939",
  "abi": [
    {
      "inputs": [
        {
          "internalType": "address",
          "name": "_factory",
          "type": "address"
        },
        {
          "internalType": "address",
          "name": "_WETH",
          "type": "address"
        }
      ],
      "stateMutability": "nonpayable",
      "type": "constructor"
    },
    {
      "inputs": [],
      "name": "WETH",
      "outputs": [
        {
          "internalType": "address",
          "name": "",
          "type": "address"
        }
      ],
      "stateMutability": "view",
      "type": "function"
    },
    {
      "inputs": [
        {
          "internalType": "address",
          "name": "tokenA",
          "type": "address"
        },
        {
          "internalType": "address",
          "name": "tokenB",
          "type": "address"
        },
        {
          "internalType": "uint256",
          "name": "amountADesired",
          "type": "uint256"
        },
        {
          "internalType": "uint256",
          "name": "amountBDesired",
          "type": "uint256"
        },
        {
          "internalType": "uint256",
          "name": "amountAMin",
          "type": "uint256"
        },
        {
          "internalType": "uint256",
          "name": "amountBMin",
          "type": "uint256"
        },
        {
          "internalType": "address",
          "name": "to",
          "type": "address"
        },
        {
          "internalType": "uint256",
          "name": "deadline",
          "type": "uint256"
        }
      ],
      "name": "addLiquidity",
      "outputs": [
        {
          "internalType": "uint256",
          "name": "amountA",
          "type": "uint256"
        },
        {
          "internalType": "uint256",
          "name": "amountB",
          "type": "uint256"
        },
        {
          "internalType": "uint256",
          "name": "liquidity",
          "type": "uint256"
        }
      ],
      "stateMutability": "nonpayable",
      "type": "function"
    },
    {
      "inputs": [
        {
          "internalType": "address",
          "name": "token",
          "type": "address"
        },
        {
          "internalType": "uint256",
          "name": "amountTokenDesired",
          "type": "uint256"
        },
        {
          "internalType": "uint256",
          "name": "amountTokenMin",
          "type": "uint256"
        },
        {
          "internalType": "uint256",
          "name": "amountETHMin",
          "type": "uint256"
        },
        {
          "internalType": "address",
          "name": "to",
          "type": "address"
        },
        {
          "internalType": "uint256",
          "name": "deadline",
          "type": "uint256"
        }
      ],
      "name": "addLiquidityETH",
      "outputs": [
        {
          "internalType": "uint256",
          "name": "amountToken",
          "type": "uint256"
        },
        {
          "internalType": "uint256",
          "name": "amountETH",
          "type": "uint256"
        },
        {
          "internalType": "uint256",
          "name": "liquidity",
          "type": "uint256"
        }
      ],
      "stateMutability": "payable",
      "type": "function"
    },
    {
      "inputs": [],
      "name": "factory",
      "outputs": [
        {
          "internalType": "address",
          "name": "",
          "type": "address"
        }
      ],
      "stateMutability": "view",
      "type": "function"
    },
    {
      "inputs": [
        {
          "internalType": "uint256",
          "name": "amountOut",
          "type": "uint256"
        },
        {
          "internalType": "uint256",
          "name": "reserveIn",
          "type": "uint256"
        },
        {
          "internalType": "uint256",
          "name": "reserveOut",
          "type": "uint256"
        },
        {
          "internalType": "uint256",
          "name": "fee",
          "type": "uint256"
        }
      ],
      "name": "getAmountIn",
      "outputs": [
        {
          "internalType": "uint256",
          "name": "amountIn",
          "type": "uint256"
        }
      ],
      "stateMutability": "pure",
      "type": "function"
    },
    {
      "inputs": [
        {
          "internalType": "uint256",
          "name": "amountIn",
          "type": "uint256"
        },
        {
          "internalType": "uint256",
          "name": "reserveIn",
          "type": "uint256"
        },
        {
          "internalType": "uint256",
          "name": "reserveOut",
          "type": "uint256"
        },
        {
          "internalType": "uint256",
          "name": "fee",
          "type": "uint256"
        }
      ],
      "name": "getAmountOut",
      "outputs": [
        {
          "internalType": "uint256",
          "name": "amountOut",
          "type": "uint256"
        }
      ],
      "stateMutability": "pure",
      "type": "function"
    },
    {
      "inputs": [
        {
          "internalType": "uint256",
          "name": "amountOut",
          "type": "uint256"
        },
        {
          "internalType": "address[]",
          "name": "path",
          "type": "address[]"
        },
        {
          "internalType": "uint256",
          "name": "fee",
          "type": "uint256"
        }
      ],
      "name": "getAmountsIn",
      "outputs": [
        {
          "internalType": "uint256[]",
          "name": "amounts",
          "type": "uint256[]"
        }
      ],
      "stateMutability": "view",
      "type": "function"
    },
    {
      "inputs": [
        {
          "internalType": "uint256",
          "name": "amountIn",
          "type": "uint256"
        },
        {
          "internalType": "address[]",
          "name": "path",
          "type": "address[]"
        },
        {
          "internalType": "uint256",
          "name": "fee",
          "type": "uint256"
        }
      ],
      "name": "getAmountsOut",
      "outputs": [
        {
          "internalType": "uint256[]",
          "name": "amounts",
          "type": "uint256[]"
        }
      ],
      "stateMutability": "view",
      "type": "function"
    },
    {
      "inputs": [
        {
          "internalType": "uint256",
          "name": "amountA",
          "type": "uint256"
        },
        {
          "internalType": "uint256",
          "name": "reserveA",
          "type": "uint256"
        },
        {
          "internalType": "uint256",
          "name": "reserveB",
          "type": "uint256"
        }
      ],
      "name": "quote",
      "outputs": [
        {
          "internalType": "uint256",
          "name": "amountB",
          "type": "uint256"
        }
      ],
      "stateMutability": "pure",
      "type": "function"
    },
    {
      "inputs": [
        {
          "internalType": "address",
          "name": "tokenA",
          "type": "address"
        },
        {
          "internalType": "address",
          "name": "tokenB",
          "type": "address"
        },
        {
          "internalType": "uint256",
          "name": "liquidity",
          "type": "uint256"
        },
        {
          "internalType": "uint256",
          "name": "amountAMin",
          "type": "uint256"
        },
        {
          "internalType": "uint256",
          "name": "amountBMin",
          "type": "uint256"
        },
        {
          "internalType": "address",
          "name": "to",
          "type": "address"
        },
        {
          "internalType": "uint256",
          "name": "deadline",
          "type": "uint256"
        }
      ],
      "name": "removeLiquidity",
      "outputs": [
        {
          "internalType": "uint256",
          "name": "amountA",
          "type": "uint256"
        },
        {
          "internalType": "uint256",
          "name": "amountB",
          "type": "uint256"
        }
      ],
      "stateMutability": "nonpayable",
      "type": "function"
    },
    {
      "inputs": [
        {
          "internalType": "address",
          "name": "token",
          "type": "address"
        },
        {
          "internalType": "uint256",
          "name": "liquidity",
          "type": "uint256"
        },
        {
          "internalType": "uint256",
          "name": "amountTokenMin",
          "type": "uint256"
        },
        {
          "internalType": "uint256",
          "name": "amountETHMin",
          "type": "uint256"
        },
        {
          "internalType": "address",
          "name": "to",
          "type": "address"
        },
        {
          "internalType": "uint256",
          "name": "deadline",
          "type": "uint256"
        }
      ],
      "name": "removeLiquidityETH",
      "outputs": [
        {
          "internalType": "uint256",
          "name": "amountToken",
          "type": "uint256"
        },
        {
          "internalType": "uint256",
          "name": "amountETH",
          "type": "uint256"
        }
      ],
      "stateMutability": "nonpayable",
      "type": "function"
    },
    {
      "inputs": [
        {
          "internalType": "address",
          "name": "token",
          "type": "address"
        },
        {
          "internalType": "uint256",
          "name": "liquidity",
          "type": "uint256"
        },
        {
          "internalType": "uint256",
          "name": "amountTokenMin",
          "type": "uint256"
        },
        {
          "internalType": "uint256",
          "name": "amountETHMin",
          "type": "uint256"
        },
        {
          "internalType": "address",
          "name": "to",
          "type": "address"
        },
        {
          "internalType": "uint256",
          "name": "deadline",
          "type": "uint256"
        }
      ],
      "name": "removeLiquidityETHSupportingFeeOnTransferTokens",
      "outputs": [
        {
          "internalType": "uint256",
          "name": "amountETH",
          "type": "uint256"
        }
      ],
      "stateMutability": "nonpayable",
      "type": "function"
    },
    {
      "inputs": [
        {
          "internalType": "address",
          "name": "token",
          "type": "address"
        },
        {
          "internalType": "uint256",
          "name": "liquidity",
          "type": "uint256"
        },
        {
          "internalType": "uint256",
          "name": "amountTokenMin",
          "type": "uint256"
        },
        {
          "internalType": "uint256",
          "name": "amountETHMin",
          "type": "uint256"
        },
        {
          "internalType": "address",
          "name": "to",
          "type": "address"
        },
        {
          "internalType": "uint256",
          "name": "deadline",
          "type": "uint256"
        },
        {
          "internalType": "bool",
          "name": "approveMax",
          "type": "bool"
        },
        {
          "internalType": "uint8",
          "name": "v",
          "type": "uint8"
        },
        {
          "internalType": "bytes32",
          "name": "r",
          "type": "bytes32"
        },
        {
          "internalType": "bytes32",
          "name": "s",
          "type": "bytes32"
        }
      ],
      "name": "removeLiquidityETHWithPermit",
      "outputs": [
        {
          "internalType": "uint256",
          "name": "amountToken",
          "type": "uint256"
        },
        {
          "internalType": "uint256",
          "name": "amountETH",
          "type": "uint256"
        }
      ],
      "stateMutability": "nonpayable",
      "type": "function"
    },
    {
      "inputs": [
        {
          "internalType": "address",
          "name": "token",
          "type": "address"
        },
        {
          "internalType": "uint256",
          "name": "liquidity",
          "type": "uint256"
        },
        {
          "internalType": "uint256",
          "name": "amountTokenMin",
          "type": "uint256"
        },
        {
          "internalType": "uint256",
          "name": "amountETHMin",
          "type": "uint256"
        },
        {
          "internalType": "address",
          "name": "to",
          "type": "address"
        },
        {
          "internalType": "uint256",
          "name": "deadline",
          "type": "uint256"
        },
        {
          "internalType": "bool",
          "name": "approveMax",
          "type": "bool"
        },
        {
          "internalType": "uint8",
          "name": "v",
          "type": "uint8"
        },
        {
          "internalType": "bytes32",
          "name": "r",
          "type": "bytes32"
        },
        {
          "internalType": "bytes32",
          "name": "s",
          "type": "bytes32"
        }
      ],
      "name": "removeLiquidityETHWithPermitSupportingFeeOnTransferTokens",
      "outputs": [
        {
          "internalType": "uint256",
          "name": "amountETH",
          "type": "uint256"
        }
      ],
      "stateMutability": "nonpayable",
      "type": "function"
    },
    {
      "inputs": [
        {
          "internalType": "address",
          "name": "tokenA",
          "type": "address"
        },
        {
          "internalType": "address",
          "name": "tokenB",
          "type": "address"
        },
        {
          "internalType": "uint256",
          "name": "liquidity",
          "type": "uint256"
        },
        {
          "internalType": "uint256",
          "name": "amountAMin",
          "type": "uint256"
        },
        {
          "internalType": "uint256",
          "name": "amountBMin",
          "type": "uint256"
        },
        {
          "internalType": "address",
          "name": "to",
          "type": "address"
        },
        {
          "internalType": "uint256",
          "name": "deadline",
          "type": "uint256"
        },
        {
          "internalType": "bool",
          "name": "approveMax",
          "type": "bool"
        },
        {
          "internalType": "uint8",
          "name": "v",
          "type": "uint8"
        },
        {
          "internalType": "bytes32",
          "name": "r",
          "type": "bytes32"
        },
        {
          "internalType": "bytes32",
          "name": "s",
          "type": "bytes32"
        }
      ],
      "name": "removeLiquidityWithPermit",
      "outputs": [
        {
          "internalType": "uint256",
          "name": "amountA",
          "type": "uint256"
        },
        {
          "internalType": "uint256",
          "name": "amountB",
          "type": "uint256"
        }
      ],
      "stateMutability": "nonpayable",
      "type": "function"
    },
    {
      "inputs": [
        {
          "internalType": "uint256",
          "name": "amountOut",
          "type": "uint256"
        },
        {
          "internalType": "address[]",
          "name": "path",
          "type": "address[]"
        },
        {
          "internalType": "address",
          "name": "to",
          "type": "address"
        },
        {
          "internalType": "uint256",
          "name": "deadline",
          "type": "uint256"
        }
      ],
      "name": "swapETHForExactTokens",
      "outputs": [
        {
          "internalType": "uint256[]",
          "name": "amounts",
          "type": "uint256[]"
        }
      ],
      "stateMutability": "payable",
      "type": "function"
    },
    {
      "inputs": [
        {
          "internalType": "uint256",
          "name": "amountOutMin",
          "type": "uint256"
        },
        {
          "internalType": "address[]",
          "name": "path",
          "type": "address[]"
        },
        {
          "internalType": "address",
          "name": "to",
          "type": "address"
        },
        {
          "internalType": "uint256",
          "name": "deadline",
          "type": "uint256"
        }
      ],
      "name": "swapExactETHForTokens",
      "outputs": [
        {
          "internalType": "uint256[]",
          "name": "amounts",
          "type": "uint256[]"
        }
      ],
      "stateMutability": "payable",
      "type": "function"
    },
    {
      "inputs": [
        {
          "internalType": "uint256",
          "name": "amountOutMin",
          "type": "uint256"
        },
        {
          "internalType": "address[]",
          "name": "path",
          "type": "address[]"
        },
        {
          "internalType": "address",
          "name": "to",
          "type": "address"
        },
        {
          "internalType": "uint256",
          "name": "deadline",
          "type": "uint256"
        }
      ],
      "name": "swapExactETHForTokensSupportingFeeOnTransferTokens",
      "outputs": [],
      "stateMutability": "payable",
      "type": "function"
    },
    {
      "inputs": [
        {
          "internalType": "uint256",
          "name": "amountIn",
          "type": "uint256"
        },
        {
          "internalType": "uint256",
          "name": "amountOutMin",
          "type": "uint256"
        },
        {
          "internalType": "address[]",
          "name": "path",
          "type": "address[]"
        },
        {
          "internalType": "address",
          "name": "to",
          "type": "address"
        },
        {
          "internalType": "uint256",
          "name": "deadline",
          "type": "uint256"
        }
      ],
      "name": "swapExactTokensForETH",
      "outputs": [
        {
          "internalType": "uint256[]",
          "name": "amounts",
          "type": "uint256[]"
        }
      ],
      "stateMutability": "nonpayable",
      "type": "function"
    },
    {
      "inputs": [
        {
          "internalType": "uint256",
          "name": "amountIn",
          "type": "uint256"
        },
        {
          "internalType": "uint256",
          "name": "amountOutMin",
          "type": "uint256"
        },
        {
          "internalType": "address[]",
          "name": "path",
          "type": "address[]"
        },
        {
          "internalType": "address",
          "name": "to",
          "type": "address"
        },
        {
          "internalType": "uint256",
          "name": "deadline",
          "type": "uint256"
        }
      ],
      "name": "swapExactTokensForETHSupportingFeeOnTransferTokens",
      "outputs": [],
      "stateMutability": "nonpayable",
      "type": "function"
    },
    {
      "inputs": [
        {
          "internalType": "uint256",
          "name": "amountIn",
          "type": "uint256"
        },
        {
          "internalType": "uint256",
          "name": "amountOutMin",
          "type": "uint256"
        },
        {
          "internalType": "address[]",
          "name": "path",
          "type": "address[]"
        },
        {
          "internalType": "address",
          "name": "to",
          "type": "address"
        },
        {
          "internalType": "uint256",
          "name": "deadline",
          "type": "uint256"
        }
      ],
      "name": "swapExactTokensForTokens",
      "outputs": [
        {
          "internalType": "uint256[]",
          "name": "amounts",
          "type": "uint256[]"
        }
      ],
      "stateMutability": "nonpayable",
      "type": "function"
    },
    {
      "inputs": [
        {
          "internalType": "uint256",
          "name": "amountIn",
          "type": "uint256"
        },
        {
          "internalType": "uint256",
          "name": "amountOutMin",
          "type": "uint256"
        },
        {
          "internalType": "address[]",
          "name": "path",
          "type": "address[]"
        },
        {
          "internalType": "address",
          "name": "to",
          "type": "address"
        },
        {
          "internalType": "uint256",
          "name": "deadline",
          "type": "uint256"
        }
      ],
      "name": "swapExactTokensForTokensSupportingFeeOnTransferTokens",
      "outputs": [],
      "stateMutability": "nonpayable",
      "type": "function"
    },
    {
      "inputs": [
        {
          "internalType": "uint256",
          "name": "amountOut",
          "type": "uint256"
        },
        {
          "internalType": "uint256",
          "name": "amountInMax",
          "type": "uint256"
        },
        {
          "internalType": "address[]",
          "name": "path",
          "type": "address[]"
        },
        {
          "internalType": "address",
          "name": "to",
          "type": "address"
        },
        {
          "internalType": "uint256",
          "name": "deadline",
          "type": "uint256"
        }
      ],
      "name": "swapTokensForExactETH",
      "outputs": [
        {
          "internalType": "uint256[]",
          "name": "amounts",
          "type": "uint256[]"
        }
      ],
      "stateMutability": "nonpayable",
      "type": "function"
    },
    {
      "inputs": [
        {
          "internalType": "uint256",
          "name": "amountOut",
          "type": "uint256"
        },
        {
          "internalType": "uint256",
          "name": "amountInMax",
          "type": "uint256"
        },
        {
          "internalType": "address[]",
          "name": "path",
          "type": "address[]"
        },
        {
          "internalType": "address",
          "name": "to",
          "type": "address"
        },
        {
          "internalType": "uint256",
          "name": "deadline",
          "type": "uint256"
        }
      ],
      "name": "swapTokensForExactTokens",
      "outputs": [
        {
          "internalType": "uint256[]",
          "name": "amounts",
          "type": "uint256[]"
        }
      ],
      "stateMutability": "nonpayable",
      "type": "function"
    },
    {
      "stateMutability": "payable",
      "type": "receive"
    }
  ],
  "transactionHash": "0xc0f435ab6b752436451da088324f3eb17fa6bb46bedf27b0150d0ec0b0d3af80",
  "args": [
    "0x8392E061aB9fc14CE1f26423A709F28D9227Cb68",
    "0xc778417E063141139Fce010982780140Aa0cD5Ab"
  ],
  "solcInputHash": "bc0e72009c3f156a454415eac7108269",
  "bytecode": "0x60c060405234801561001057600080fd5b5060405162004e1a38038062004e1a8339818101604052604081101561003557600080fd5b5080516020909101516001600160601b0319606092831b8116608052911b1660a05260805160601c60a05160601c614c72620001a86000398061015f5280610cf45280610d2f5280610e11528061112c52806115b5528061183d5280611bec5280611cc75280611da15280611e6f52806120b2528061213a5280612485528061250052806125b4528061268b528061272052806127945280612c4a5280612ee25280612f385280612f6c5280612fe0528061316e52806133ae5280613436525080610e9e5280610f9a528061107352806111f75280611331528061142d52806115365280611642528061173e528061181b528061198b5280611f015280611ffd528061216c52806122d752806123d352806127c65280612a045280612bfc5280612c285280612d395280612dc35280612f16528061320052806132fc52806134685280613c185280613c5b528061410652806141d8528061433e528061465d528061471652806147c95250614c726000f3fe60806040526004361061014f5760003560e01c80638803dbee116100b6578063c45a01551161006f578063c45a015514610a1e578063ded9382a14610a33578063e815c46614610aa6578063e8e3370014610b5d578063f305d71914610bdd578063fb3bdb4114610c2357610188565b80638803dbee146107ed578063ad5c464814610883578063ad615dec146108b4578063af2979eb146108ea578063b6f9de951461093d578063baa2abde146109c157610188565b806352707d8c1161010857806352707d8c14610540578063571fd0121461058e5780635b0d5984146105ca5780635c11d7951461063d578063791ac947146106d35780637ff36ab51461076957610188565b806302751cec1461018d57806318cbafe5146101f95780632195995c146102df57806338ed17391461035d5780634955796c146103f35780634a25d94a146104aa57610188565b3661018857336001600160a01b037f0000000000000000000000000000000000000000000000000000000000000000161461018657fe5b005b600080fd5b34801561019957600080fd5b506101e0600480360360c08110156101b057600080fd5b506001600160a01b0381358116916020810135916040820135916060810135916080820135169060a00135610ca7565b6040805192835260208301919091528051918290030190f35b34801561020557600080fd5b5061028f600480360360a081101561021c57600080fd5b813591602081013591810190606081016040820135600160201b81111561024257600080fd5b82018360208201111561025457600080fd5b803590602001918460208302840111600160201b8311171561027557600080fd5b91935091506001600160a01b038135169060200135610dc1565b60408051602080825283518183015283519192839290830191858101910280838360005b838110156102cb5781810151838201526020016102b3565b505050509050019250505060405180910390f35b3480156102eb57600080fd5b506101e0600480360361016081101561030357600080fd5b506001600160a01b038135811691602081013582169160408201359160608101359160808201359160a08101359091169060c08101359060e081013515159060ff61010082013516906101208101359061014001356111ed565b34801561036957600080fd5b5061028f600480360360a081101561038057600080fd5b813591602081013591810190606081016040820135600160201b8111156103a657600080fd5b8201836020820111156103b857600080fd5b803590602001918460208302840111600160201b831117156103d957600080fd5b91935091506001600160a01b0381351690602001356112e7565b3480156103ff57600080fd5b5061028f6004803603606081101561041657600080fd5b81359190810190604081016020820135600160201b81111561043757600080fd5b82018360208201111561044957600080fd5b803590602001918460208302840111600160201b8311171561046a57600080fd5b919080806020026020016040519081016040528093929190818152602001838360200280828437600092019190915250929550509135925061152f915050565b3480156104b657600080fd5b5061028f600480360360a08110156104cd57600080fd5b813591602081013591810190606081016040820135600160201b8111156104f357600080fd5b82018360208201111561050557600080fd5b803590602001918460208302840111600160201b8311171561052657600080fd5b91935091506001600160a01b038135169060200135611565565b34801561054c57600080fd5b5061057c6004803603608081101561056357600080fd5b50803590602081013590604081013590606001356117ee565b60408051918252519081900360200190f35b34801561059a57600080fd5b5061057c600480360360808110156105b157600080fd5b5080359060208101359060408101359060600135611805565b3480156105d657600080fd5b5061057c60048036036101408110156105ee57600080fd5b506001600160a01b0381358116916020810135916040820135916060810135916080820135169060a08101359060c081013515159060ff60e08201351690610100810135906101200135611813565b34801561064957600080fd5b50610186600480360360a081101561066057600080fd5b813591602081013591810190606081016040820135600160201b81111561068657600080fd5b82018360208201111561069857600080fd5b803590602001918460208302840111600160201b831117156106b957600080fd5b91935091506001600160a01b038135169060200135611921565b3480156106df57600080fd5b50610186600480360360a08110156106f657600080fd5b813591602081013591810190606081016040820135600160201b81111561071c57600080fd5b82018360208201111561072e57600080fd5b803590602001918460208302840111600160201b8311171561074f57600080fd5b91935091506001600160a01b038135169060200135611b9e565b61028f6004803603608081101561077f57600080fd5b81359190810190604081016020820135600160201b8111156107a057600080fd5b8201836020820111156107b257600080fd5b803590602001918460208302840111600160201b831117156107d357600080fd5b91935091506001600160a01b038135169060200135611e27565b3480156107f957600080fd5b5061028f600480360360a081101561081057600080fd5b813591602081013591810190606081016040820135600160201b81111561083657600080fd5b82018360208201111561084857600080fd5b803590602001918460208302840111600160201b8311171561086957600080fd5b91935091506001600160a01b03813516906020013561228d565b34801561088f57600080fd5b50610898612483565b604080516001600160a01b039092168252519081900360200190f35b3480156108c057600080fd5b5061057c600480360360608110156108d757600080fd5b50803590602081013590604001356124a7565b3480156108f657600080fd5b5061057c600480360360c081101561090d57600080fd5b506001600160a01b0381358116916020810135916040820135916060810135916080820135169060a001356124b4565b6101866004803603608081101561095357600080fd5b81359190810190604081016020820135600160201b81111561097457600080fd5b82018360208201111561098657600080fd5b803590602001918460208302840111600160201b831117156109a757600080fd5b91935091506001600160a01b038135169060200135612645565b3480156109cd57600080fd5b506101e0600480360360e08110156109e457600080fd5b506001600160a01b038135811691602081013582169160408201359160608101359160808201359160a08101359091169060c001356129b6565b348015610a2a57600080fd5b50610898612bfa565b348015610a3f57600080fd5b506101e06004803603610140811015610a5757600080fd5b506001600160a01b0381358116916020810135916040820135916060810135916080820135169060a08101359060c081013515159060ff60e08201351690610100810135906101200135612c1e565b348015610ab257600080fd5b5061028f60048036036060811015610ac957600080fd5b81359190810190604081016020820135600160201b811115610aea57600080fd5b820183602082011115610afc57600080fd5b803590602001918460208302840111600160201b83111715610b1d57600080fd5b9190808060200260200160405190810160405280939291908181526020018383602002808284376000920191909152509295505091359250612d32915050565b348015610b6957600080fd5b50610bbf6004803603610100811015610b8157600080fd5b506001600160a01b038135811691602081013582169160408201359160608101359160808201359160a08101359160c0820135169060e00135612d60565b60408051938452602084019290925282820152519081900360600190f35b610bbf600480360360c0811015610bf357600080fd5b506001600160a01b0381358116916020810135916040820135916060810135916080820135169060a00135612e93565b61028f60048036036080811015610c3957600080fd5b81359190810190604081016020820135600160201b811115610c5a57600080fd5b820183602082011115610c6c57600080fd5b803590602001918460208302840111600160201b83111715610c8d57600080fd5b91935091506001600160a01b038135169060200135613126565b6000808242811015610cee576040805162461bcd60e51b81526020600482015260176024820152600080516020614aec833981519152604482015290519081900360640190fd5b610d1d897f00000000000000000000000000000000000000000000000000000000000000008a8a8a308a6129b6565b9093509150610d2d89868561359c565b7f00000000000000000000000000000000000000000000000000000000000000006001600160a01b0316632e1a7d4d836040518263ffffffff1660e01b815260040180828152602001915050600060405180830381600087803b158015610d9357600080fd5b505af1158015610da7573d6000803e3d6000fd5b50505050610db58583613706565b50965096945050505050565b60608142811015610e07576040805162461bcd60e51b81526020600482015260176024820152600080516020614aec833981519152604482015290519081900360640190fd5b6001600160a01b037f00000000000000000000000000000000000000000000000000000000000000001686866000198101818110610e4157fe5b905060200201356001600160a01b03166001600160a01b031614610e9a576040805162461bcd60e51b815260206004820152601c6024820152600080516020614b0c833981519152604482015290519081900360640190fd5b60007f00000000000000000000000000000000000000000000000000000000000000006001600160a01b03166321dd70e66040518163ffffffff1660e01b815260040160206040518083038186803b158015610ef557600080fd5b505afa158015610f09573d6000803e3d6000fd5b505050506040513d6020811015610f1f57600080fd5b5051905060196001600160a01b0382168888600081610f3a57fe5b905060200201356001600160a01b03166001600160a01b03161480610f8c5750816001600160a01b031688886001818110610f7157fe5b905060200201356001600160a01b03166001600160a01b0316145b15610f95575060325b610ff57f00000000000000000000000000000000000000000000000000000000000000008b8a8a808060200260200160405190810160405280939291908181526020018383602002808284376000920191909152508792506137fe915050565b9350888460018651038151811061100857fe5b6020026020010151101561104d5760405162461bcd60e51b815260040180806020018281038252602a815260200180614ba8602a913960400191505060405180910390fd5b6110eb8888600081811061105d57fe5b905060200201356001600160a01b0316336110d17f00000000000000000000000000000000000000000000000000000000000000008c8c600081811061109f57fe5b905060200201356001600160a01b03168d8d60018181106110bc57fe5b905060200201356001600160a01b031661394c565b876000815181106110de57fe5b6020026020010151613a0c565b61112a84898980806020026020016040519081016040528093929190818152602001838360200280828437600092019190915250309250613b69915050565b7f00000000000000000000000000000000000000000000000000000000000000006001600160a01b0316632e1a7d4d8560018751038151811061116957fe5b60200260200101516040518263ffffffff1660e01b815260040180828152602001915050600060405180830381600087803b1580156111a757600080fd5b505af11580156111bb573d6000803e3d6000fd5b505050506111e086856001875103815181106111d357fe5b6020026020010151613706565b5050509695505050505050565b600080600061121d7f00000000000000000000000000000000000000000000000000000000000000008f8f61394c565b905060008761122c578c611230565b6000195b6040805163d505accf60e01b815233600482015230602482015260448101839052606481018c905260ff8a16608482015260a4810189905260c4810188905290519192506001600160a01b0384169163d505accf9160e48082019260009290919082900301818387803b1580156112a657600080fd5b505af11580156112ba573d6000803e3d6000fd5b505050506112cd8f8f8f8f8f8f8f6129b6565b809450819550505050509b509b9950505050505050505050565b6060814281101561132d576040805162461bcd60e51b81526020600482015260176024820152600080516020614aec833981519152604482015290519081900360640190fd5b60007f00000000000000000000000000000000000000000000000000000000000000006001600160a01b03166321dd70e66040518163ffffffff1660e01b815260040160206040518083038186803b15801561138857600080fd5b505afa15801561139c573d6000803e3d6000fd5b505050506040513d60208110156113b257600080fd5b5051905060196001600160a01b03821688886000816113cd57fe5b905060200201356001600160a01b03166001600160a01b0316148061141f5750816001600160a01b03168888600181811061140457fe5b905060200201356001600160a01b03166001600160a01b0316145b15611428575060325b6114887f00000000000000000000000000000000000000000000000000000000000000008b8a8a808060200260200160405190810160405280939291908181526020018383602002808284376000920191909152508792506137fe915050565b9350888460018651038151811061149b57fe5b602002602001015110156114e05760405162461bcd60e51b815260040180806020018281038252602a815260200180614ba8602a913960400191505060405180910390fd5b6114f08888600081811061105d57fe5b6111e0848989808060200260200160405190810160405280939291908181526020018383602002808284376000920191909152508b9250613b69915050565b606061155d7f00000000000000000000000000000000000000000000000000000000000000008585856137fe565b949350505050565b606081428110156115ab576040805162461bcd60e51b81526020600482015260176024820152600080516020614aec833981519152604482015290519081900360640190fd5b6001600160a01b037f000000000000000000000000000000000000000000000000000000000000000016868660001981018181106115e557fe5b905060200201356001600160a01b03166001600160a01b03161461163e576040805162461bcd60e51b815260206004820152601c6024820152600080516020614b0c833981519152604482015290519081900360640190fd5b60007f00000000000000000000000000000000000000000000000000000000000000006001600160a01b03166321dd70e66040518163ffffffff1660e01b815260040160206040518083038186803b15801561169957600080fd5b505afa1580156116ad573d6000803e3d6000fd5b505050506040513d60208110156116c357600080fd5b5051905060196001600160a01b03821688886000816116de57fe5b905060200201356001600160a01b03166001600160a01b031614806117305750816001600160a01b03168888600181811061171557fe5b905060200201356001600160a01b03166001600160a01b0316145b15611739575060325b6117997f00000000000000000000000000000000000000000000000000000000000000008b8a8a80806020026020016040519081016040528093929190818152602001838360200280828437600092019190915250879250613da6915050565b935088846000815181106117a957fe5b6020026020010151111561104d5760405162461bcd60e51b8152600401808060200182810382526026815260200180614a7d6026913960400191505060405180910390fd5b60006117fc85858585613edf565b95945050505050565b60006117fc85858585613fc7565b6000806118617f00000000000000000000000000000000000000000000000000000000000000008d7f000000000000000000000000000000000000000000000000000000000000000061394c565b9050600086611870578b611874565b6000195b6040805163d505accf60e01b815233600482015230602482015260448101839052606481018b905260ff8916608482015260a4810188905260c4810187905290519192506001600160a01b0384169163d505accf9160e48082019260009290919082900301818387803b1580156118ea57600080fd5b505af11580156118fe573d6000803e3d6000fd5b505050506119108d8d8d8d8d8d6124b4565b9d9c50505050505050505050505050565b8042811015611965576040805162461bcd60e51b81526020600482015260176024820152600080516020614aec833981519152604482015290519081900360640190fd5b6119da8585600081811061197557fe5b905060200201356001600160a01b0316336119d47f0000000000000000000000000000000000000000000000000000000000000000898960008181106119b757fe5b905060200201356001600160a01b03168a8a60018181106110bc57fe5b8a613a0c565b6000858560001981018181106119ec57fe5b905060200201356001600160a01b03166001600160a01b03166370a08231856040518263ffffffff1660e01b815260040180826001600160a01b0316815260200191505060206040518083038186803b158015611a4857600080fd5b505afa158015611a5c573d6000803e3d6000fd5b505050506040513d6020811015611a7257600080fd5b50516040805160208881028281018201909352888252929350611ab49290918991899182918501908490808284376000920191909152508892506140af915050565b86611b578288886000198101818110611ac957fe5b905060200201356001600160a01b03166001600160a01b03166370a08231886040518263ffffffff1660e01b815260040180826001600160a01b0316815260200191505060206040518083038186803b158015611b2557600080fd5b505afa158015611b39573d6000803e3d6000fd5b505050506040513d6020811015611b4f57600080fd5b505190614473565b1015611b945760405162461bcd60e51b815260040180806020018281038252602a815260200180614ba8602a913960400191505060405180910390fd5b5050505050505050565b8042811015611be2576040805162461bcd60e51b81526020600482015260176024820152600080516020614aec833981519152604482015290519081900360640190fd5b6001600160a01b037f00000000000000000000000000000000000000000000000000000000000000001685856000198101818110611c1c57fe5b905060200201356001600160a01b03166001600160a01b031614611c75576040805162461bcd60e51b815260206004820152601c6024820152600080516020614b0c833981519152604482015290519081900360640190fd5b611c858585600081811061197557fe5b611cc38585808060200260200160405190810160405280939291908181526020018383602002808284376000920191909152503092506140af915050565b60007f00000000000000000000000000000000000000000000000000000000000000006001600160a01b03166370a08231306040518263ffffffff1660e01b815260040180826001600160a01b0316815260200191505060206040518083038186803b158015611d3257600080fd5b505afa158015611d46573d6000803e3d6000fd5b505050506040513d6020811015611d5c57600080fd5b5051905086811015611d9f5760405162461bcd60e51b815260040180806020018281038252602a815260200180614ba8602a913960400191505060405180910390fd5b7f00000000000000000000000000000000000000000000000000000000000000006001600160a01b0316632e1a7d4d826040518263ffffffff1660e01b815260040180828152602001915050600060405180830381600087803b158015611e0557600080fd5b505af1158015611e19573d6000803e3d6000fd5b50505050611b948482613706565b60608142811015611e6d576040805162461bcd60e51b81526020600482015260176024820152600080516020614aec833981519152604482015290519081900360640190fd5b7f00000000000000000000000000000000000000000000000000000000000000006001600160a01b031686866000818110611ea457fe5b905060200201356001600160a01b03166001600160a01b031614611efd576040805162461bcd60e51b815260206004820152601c6024820152600080516020614b0c833981519152604482015290519081900360640190fd5b60007f00000000000000000000000000000000000000000000000000000000000000006001600160a01b03166321dd70e66040518163ffffffff1660e01b815260040160206040518083038186803b158015611f5857600080fd5b505afa158015611f6c573d6000803e3d6000fd5b505050506040513d6020811015611f8257600080fd5b5051905060196001600160a01b0382168888600081611f9d57fe5b905060200201356001600160a01b03166001600160a01b03161480611fef5750816001600160a01b031688886001818110611fd457fe5b905060200201356001600160a01b03166001600160a01b0316145b15611ff8575060325b6120587f0000000000000000000000000000000000000000000000000000000000000000348a8a808060200260200160405190810160405280939291908181526020018383602002808284376000920191909152508792506137fe915050565b9350888460018651038151811061206b57fe5b602002602001015110156120b05760405162461bcd60e51b815260040180806020018281038252602a815260200180614ba8602a913960400191505060405180910390fd5b7f00000000000000000000000000000000000000000000000000000000000000006001600160a01b031663d0e30db0856000815181106120ec57fe5b60200260200101516040518263ffffffff1660e01b81526004016000604051808303818588803b15801561211f57600080fd5b505af1158015612133573d6000803e3d6000fd5b50505050507f00000000000000000000000000000000000000000000000000000000000000006001600160a01b031663a9059cbb6121b57f00000000000000000000000000000000000000000000000000000000000000008b8b600081811061219857fe5b905060200201356001600160a01b03168c8c60018181106110bc57fe5b866000815181106121c257fe5b60200260200101516040518363ffffffff1660e01b815260040180836001600160a01b0316815260200182815260200192505050602060405180830381600087803b15801561221057600080fd5b505af1158015612224573d6000803e3d6000fd5b505050506040513d602081101561223a57600080fd5b505161224257fe5b612281848989808060200260200160405190810160405280939291908181526020018383602002808284376000920191909152508b9250613b69915050565b50505095945050505050565b606081428110156122d3576040805162461bcd60e51b81526020600482015260176024820152600080516020614aec833981519152604482015290519081900360640190fd5b60007f00000000000000000000000000000000000000000000000000000000000000006001600160a01b03166321dd70e66040518163ffffffff1660e01b815260040160206040518083038186803b15801561232e57600080fd5b505afa158015612342573d6000803e3d6000fd5b505050506040513d602081101561235857600080fd5b5051905060196001600160a01b038216888860008161237357fe5b905060200201356001600160a01b03166001600160a01b031614806123c55750816001600160a01b0316888860018181106123aa57fe5b905060200201356001600160a01b03166001600160a01b0316145b156123ce575060325b61242e7f00000000000000000000000000000000000000000000000000000000000000008b8a8a80806020026020016040519081016040528093929190818152602001838360200280828437600092019190915250879250613da6915050565b9350888460008151811061243e57fe5b602002602001015111156114e05760405162461bcd60e51b8152600401808060200182810382526026815260200180614a7d6026913960400191505060405180910390fd5b7f000000000000000000000000000000000000000000000000000000000000000081565b600061155d8484846144c9565b600081428110156124fa576040805162461bcd60e51b81526020600482015260176024820152600080516020614aec833981519152604482015290519081900360640190fd5b612529887f000000000000000000000000000000000000000000000000000000000000000089898930896129b6565b9050809250506125b288858a6001600160a01b03166370a08231306040518263ffffffff1660e01b815260040180826001600160a01b0316815260200191505060206040518083038186803b15801561258157600080fd5b505afa158015612595573d6000803e3d6000fd5b505050506040513d60208110156125ab57600080fd5b505161359c565b7f00000000000000000000000000000000000000000000000000000000000000006001600160a01b0316632e1a7d4d836040518263ffffffff1660e01b815260040180828152602001915050600060405180830381600087803b15801561261857600080fd5b505af115801561262c573d6000803e3d6000fd5b5050505061263a8483613706565b509695505050505050565b8042811015612689576040805162461bcd60e51b81526020600482015260176024820152600080516020614aec833981519152604482015290519081900360640190fd5b7f00000000000000000000000000000000000000000000000000000000000000006001600160a01b0316858560008181106126c057fe5b905060200201356001600160a01b03166001600160a01b031614612719576040805162461bcd60e51b815260206004820152601c6024820152600080516020614b0c833981519152604482015290519081900360640190fd5b60003490507f00000000000000000000000000000000000000000000000000000000000000006001600160a01b031663d0e30db0826040518263ffffffff1660e01b81526004016000604051808303818588803b15801561277957600080fd5b505af115801561278d573d6000803e3d6000fd5b50505050507f00000000000000000000000000000000000000000000000000000000000000006001600160a01b031663a9059cbb6127f27f0000000000000000000000000000000000000000000000000000000000000000898960008181106119b757fe5b836040518363ffffffff1660e01b815260040180836001600160a01b0316815260200182815260200192505050602060405180830381600087803b15801561283957600080fd5b505af115801561284d573d6000803e3d6000fd5b505050506040513d602081101561286357600080fd5b505161286b57fe5b60008686600019810181811061287d57fe5b905060200201356001600160a01b03166001600160a01b03166370a08231866040518263ffffffff1660e01b815260040180826001600160a01b0316815260200191505060206040518083038186803b1580156128d957600080fd5b505afa1580156128ed573d6000803e3d6000fd5b505050506040513d602081101561290357600080fd5b505160408051602089810282810182019093528982529293506129459290918a918a9182918501908490808284376000920191909152508992506140af915050565b87611b57828989600019810181811061295a57fe5b905060200201356001600160a01b03166001600160a01b03166370a08231896040518263ffffffff1660e01b815260040180826001600160a01b0316815260200191505060206040518083038186803b158015611b2557600080fd5b60008082428110156129fd576040805162461bcd60e51b81526020600482015260176024820152600080516020614aec833981519152604482015290519081900360640190fd5b6000612a2a7f00000000000000000000000000000000000000000000000000000000000000008c8c61394c565b604080516323b872dd60e01b81523360048201526001600160a01b03831660248201819052604482018d9052915192935090916323b872dd916064808201926020929091908290030181600087803b158015612a8557600080fd5b505af1158015612a99573d6000803e3d6000fd5b505050506040513d6020811015612aaf57600080fd5b50506040805163226bf2d160e21b81526001600160a01b03888116600483015282516000938493928616926389afcb44926024808301939282900301818787803b158015612afc57600080fd5b505af1158015612b10573d6000803e3d6000fd5b505050506040513d6040811015612b2657600080fd5b50805160209091015190925090506000612b408e8e61456f565b509050806001600160a01b03168e6001600160a01b031614612b63578183612b66565b82825b90975095508a871015612baa5760405162461bcd60e51b8152600401808060200182810382526025815260200180614aa36025913960400191505060405180910390fd5b89861015612be95760405162461bcd60e51b8152600401808060200182810382526025815260200180614a586025913960400191505060405180910390fd5b505050505097509795505050505050565b7f000000000000000000000000000000000000000000000000000000000000000081565b6000806000612c6e7f00000000000000000000000000000000000000000000000000000000000000008e7f000000000000000000000000000000000000000000000000000000000000000061394c565b9050600087612c7d578c612c81565b6000195b6040805163d505accf60e01b815233600482015230602482015260448101839052606481018c905260ff8a16608482015260a4810189905260c4810188905290519192506001600160a01b0384169163d505accf9160e48082019260009290919082900301818387803b158015612cf757600080fd5b505af1158015612d0b573d6000803e3d6000fd5b50505050612d1d8e8e8e8e8e8e610ca7565b909f909e509c50505050505050505050505050565b606061155d7f0000000000000000000000000000000000000000000000000000000000000000858585613da6565b60008060008342811015612da9576040805162461bcd60e51b81526020600482015260176024820152600080516020614aec833981519152604482015290519081900360640190fd5b612db78c8c8c8c8c8c61464d565b90945092506000612de97f00000000000000000000000000000000000000000000000000000000000000008e8e61394c565b9050612df78d338388613a0c565b612e038c338387613a0c565b806001600160a01b0316636a627842886040518263ffffffff1660e01b815260040180826001600160a01b03168152602001915050602060405180830381600087803b158015612e5257600080fd5b505af1158015612e66573d6000803e3d6000fd5b505050506040513d6020811015612e7c57600080fd5b5051949d939c50939a509198505050505050505050565b60008060008342811015612edc576040805162461bcd60e51b81526020600482015260176024820152600080516020614aec833981519152604482015290519081900360640190fd5b612f0a8a7f00000000000000000000000000000000000000000000000000000000000000008b348c8c61464d565b90945092506000612f5c7f00000000000000000000000000000000000000000000000000000000000000008c7f000000000000000000000000000000000000000000000000000000000000000061394c565b9050612f6a8b338388613a0c565b7f00000000000000000000000000000000000000000000000000000000000000006001600160a01b031663d0e30db0856040518263ffffffff1660e01b81526004016000604051808303818588803b158015612fc557600080fd5b505af1158015612fd9573d6000803e3d6000fd5b50505050507f00000000000000000000000000000000000000000000000000000000000000006001600160a01b031663a9059cbb82866040518363ffffffff1660e01b815260040180836001600160a01b0316815260200182815260200192505050602060405180830381600087803b15801561305557600080fd5b505af1158015613069573d6000803e3d6000fd5b505050506040513d602081101561307f57600080fd5b505161308757fe5b806001600160a01b0316636a627842886040518263ffffffff1660e01b815260040180826001600160a01b03168152602001915050602060405180830381600087803b1580156130d657600080fd5b505af11580156130ea573d6000803e3d6000fd5b505050506040513d602081101561310057600080fd5b50519250348410156131185761311833853403613706565b505096509650969350505050565b6060814281101561316c576040805162461bcd60e51b81526020600482015260176024820152600080516020614aec833981519152604482015290519081900360640190fd5b7f00000000000000000000000000000000000000000000000000000000000000006001600160a01b0316868660008181106131a357fe5b905060200201356001600160a01b03166001600160a01b0316146131fc576040805162461bcd60e51b815260206004820152601c6024820152600080516020614b0c833981519152604482015290519081900360640190fd5b60007f00000000000000000000000000000000000000000000000000000000000000006001600160a01b03166321dd70e66040518163ffffffff1660e01b815260040160206040518083038186803b15801561325757600080fd5b505afa15801561326b573d6000803e3d6000fd5b505050506040513d602081101561328157600080fd5b5051905060196001600160a01b038216888860008161329c57fe5b905060200201356001600160a01b03166001600160a01b031614806132ee5750816001600160a01b0316888860018181106132d357fe5b905060200201356001600160a01b03166001600160a01b0316145b156132f7575060325b6133577f00000000000000000000000000000000000000000000000000000000000000008a8a8a80806020026020016040519081016040528093929190818152602001838360200280828437600092019190915250879250613da6915050565b9350348460008151811061336757fe5b602002602001015111156133ac5760405162461bcd60e51b8152600401808060200182810382526026815260200180614a7d6026913960400191505060405180910390fd5b7f00000000000000000000000000000000000000000000000000000000000000006001600160a01b031663d0e30db0856000815181106133e857fe5b60200260200101516040518263ffffffff1660e01b81526004016000604051808303818588803b15801561341b57600080fd5b505af115801561342f573d6000803e3d6000fd5b50505050507f00000000000000000000000000000000000000000000000000000000000000006001600160a01b031663a9059cbb6134947f00000000000000000000000000000000000000000000000000000000000000008b8b600081811061219857fe5b866000815181106134a157fe5b60200260200101516040518363ffffffff1660e01b815260040180836001600160a01b0316815260200182815260200192505050602060405180830381600087803b1580156134ef57600080fd5b505af1158015613503573d6000803e3d6000fd5b505050506040513d602081101561351957600080fd5b505161352157fe5b613560848989808060200260200160405190810160405280939291908181526020018383602002808284376000920191909152508b9250613b69915050565b8360008151811061356d57fe5b602002602001015134111561228157612281338560008151811061358d57fe5b60200260200101513403613706565b604080516001600160a01b038481166024830152604480830185905283518084039091018152606490920183526020820180516001600160e01b031663a9059cbb60e01b178152925182516000946060949389169392918291908083835b602083106136195780518252601f1990920191602091820191016135fa565b6001836020036101000a0380198251168184511680821785525050505050509050019150506000604051808303816000865af19150503d806000811461367b576040519150601f19603f3d011682016040523d82523d6000602084013e613680565b606091505b50915091508180156136ae5750805115806136ae57508080602001905160208110156136ab57600080fd5b50515b6136ff576040805162461bcd60e51b815260206004820152601f60248201527f5472616e7366657248656c7065723a205452414e534645525f4641494c454400604482015290519081900360640190fd5b5050505050565b604080516000808252602082019092526001600160a01b0384169083906040518082805190602001908083835b602083106137525780518252601f199092019160209182019101613733565b6001836020036101000a03801982511681845116808217855250505050505090500191505060006040518083038185875af1925050503d80600081146137b4576040519150601f19603f3d011682016040523d82523d6000602084013e6137b9565b606091505b50509050806137f95760405162461bcd60e51b8152600401808060200182810382526023815260200180614bf66023913960400191505060405180910390fd5b505050565b6060600283511015613857576040805162461bcd60e51b815260206004820152601d60248201527f566972616c6174614c6962726172793a20494e56414c49445f50415448000000604482015290519081900360640190fd5b825167ffffffffffffffff8111801561386f57600080fd5b50604051908082528060200260200182016040528015613899578160200160208202803683370190505b50905083816000815181106138aa57fe5b60200260200101818152505060005b6001845103811015613943576000806138fc888785815181106138d857fe5b60200260200101518886600101815181106138ef57fe5b60200260200101516148de565b9150915061391f84848151811061390f57fe5b6020026020010151838388613edf565b84846001018151811061392e57fe5b602090810291909101015250506001016138b9565b50949350505050565b600080600061395b858561456f565b604080516bffffffffffffffffffffffff19606094851b811660208084019190915293851b81166034830152825160288184030181526048830184528051908501206001600160f81b031960688401529a90941b9093166069840152607d8301989098527f655f71b32f0fd4af90bb1464d8ef7dcd1ed59e717e394729d849f4ee13389d45609d808401919091528851808403909101815260bd909201909752805196019590952095945050505050565b604080516001600160a01b0385811660248301528481166044830152606480830185905283518084039091018152608490920183526020820180516001600160e01b03166323b872dd60e01b17815292518251600094606094938a169392918291908083835b60208310613a915780518252601f199092019160209182019101613a72565b6001836020036101000a0380198251168184511680821785525050505050509050019150506000604051808303816000865af19150503d8060008114613af3576040519150601f19603f3d011682016040523d82523d6000602084013e613af8565b606091505b5091509150818015613b26575080511580613b265750808060200190516020811015613b2357600080fd5b50515b613b615760405162461bcd60e51b8152600401808060200182810382526024815260200180614c196024913960400191505060405180910390fd5b505050505050565b60005b6001835103811015613da057600080848381518110613b8757fe5b6020026020010151858460010181518110613b9e57fe5b6020026020010151915091506000613bb6838361456f565b5090506000878560010181518110613bca57fe5b60200260200101519050600080836001600160a01b0316866001600160a01b031614613bf857826000613bfc565b6000835b91509150600060028a51038810613c135788613c54565b613c547f0000000000000000000000000000000000000000000000000000000000000000878c8b60020181518110613c4757fe5b602002602001015161394c565b9050613c817f0000000000000000000000000000000000000000000000000000000000000000888861394c565b6001600160a01b031663022c0d9f84848460006040519080825280601f01601f191660200182016040528015613cbe576020820181803683370190505b506040518563ffffffff1660e01b815260040180858152602001848152602001836001600160a01b0316815260200180602001828103825283818151815260200191508051906020019080838360005b83811015613d26578181015183820152602001613d0e565b50505050905090810190601f168015613d535780820380516001836020036101000a031916815260200191505b5095505050505050600060405180830381600087803b158015613d7557600080fd5b505af1158015613d89573d6000803e3d6000fd5b505060019099019850613b6c975050505050505050565b50505050565b6060600283511015613dff576040805162461bcd60e51b815260206004820152601d60248201527f566972616c6174614c6962726172793a20494e56414c49445f50415448000000604482015290519081900360640190fd5b825167ffffffffffffffff81118015613e1757600080fd5b50604051908082528060200260200182016040528015613e41578160200160208202803683370190505b5090508381600183510381518110613e5557fe5b60209081029190910101528251600019015b801561394357600080613e9788876001860381518110613e8357fe5b60200260200101518886815181106138ef57fe5b91509150613eba848481518110613eaa57fe5b6020026020010151838388613fc7565b846001850381518110613ec957fe5b6020908102919091010152505060001901613e67565b6000808511613f1f5760405162461bcd60e51b815260040180806020018281038252602a815260200180614b7e602a913960400191505060405180910390fd5b600084118015613f2f5750600083115b613f6a5760405162461bcd60e51b8152600401808060200182810382526027815260200180614b2c6027913960400191505060405180910390fd5b6000613f7861271084614473565b90506000613f8687836149a5565b90506000613f9482876149a5565b90506000613fae83613fa88a6127106149a5565b90614a08565b9050808281613fb957fe5b049998505050505050505050565b60008085116140075760405162461bcd60e51b815260040180806020018281038252602b815260200180614b53602b913960400191505060405180910390fd5b6000841180156140175750600083115b6140525760405162461bcd60e51b8152600401808060200182810382526027815260200180614b2c6027913960400191505060405180910390fd5b600061406061271084614473565b9050600061407a612710614074888a6149a5565b906149a5565b9050600061408c83614074888b614473565b90506140a3600182848161409c57fe5b0490614a08565b98975050505050505050565b60005b60018351038110156137f9576000808483815181106140cd57fe5b60200260200101518584600101815181106140e457fe5b60200260200101519150915060006140fc838361456f565b509050600061412c7f0000000000000000000000000000000000000000000000000000000000000000858561394c565b9050600080600080846001600160a01b0316630902f1ac6040518163ffffffff1660e01b815260040160606040518083038186803b15801561416d57600080fd5b505afa158015614181573d6000803e3d6000fd5b505050506040513d606081101561419757600080fd5b5080516020909101516001600160701b0391821693501690506000806001600160a01b038a8116908916146141cd5782846141d0565b83835b9150915060007f00000000000000000000000000000000000000000000000000000000000000006001600160a01b03166321dd70e66040518163ffffffff1660e01b815260040160206040518083038186803b15801561422f57600080fd5b505afa158015614243573d6000803e3d6000fd5b505050506040513d602081101561425957600080fd5b5051905060196001600160a01b038c8116908316148061428a5750816001600160a01b03168b6001600160a01b0316145b15614293575060325b6142e4848d6001600160a01b03166370a082318c6040518263ffffffff1660e01b815260040180826001600160a01b0316815260200191505060206040518083038186803b158015611b2557600080fd5b97506142f288858584613edf565b9650505050505050600080856001600160a01b0316886001600160a01b03161461431e57826000614322565b6000835b91509150600060028c51038a10614339578a61436d565b61436d7f0000000000000000000000000000000000000000000000000000000000000000898e8d60020181518110613c4757fe5b604080516000808252602082019283905263022c0d9f60e01b835260248201878152604483018790526001600160a01b038086166064850152608060848501908152845160a48601819052969750908c169563022c0d9f958a958a958a9591949193919260c486019290918190849084905b838110156143f75781810151838201526020016143df565b50505050905090810190601f1680156144245780820380516001836020036101000a031916815260200191505b5095505050505050600060405180830381600087803b15801561444657600080fd5b505af115801561445a573d6000803e3d6000fd5b50506001909b019a506140b29950505050505050505050565b808203828111156144c3576040805162461bcd60e51b815260206004820152601560248201527464732d6d6174682d7375622d756e646572666c6f7760581b604482015290519081900360640190fd5b92915050565b60008084116145095760405162461bcd60e51b8152600401808060200182810382526024815260200180614ac86024913960400191505060405180910390fd5b6000831180156145195750600082115b6145545760405162461bcd60e51b8152600401808060200182810382526027815260200180614b2c6027913960400191505060405180910390fd5b8261455f85846149a5565b8161456657fe5b04949350505050565b600080826001600160a01b0316846001600160a01b031614156145c35760405162461bcd60e51b8152600401808060200182810382526024815260200180614bd26024913960400191505060405180910390fd5b826001600160a01b0316846001600160a01b0316106145e35782846145e6565b83835b90925090506001600160a01b038216614646576040805162461bcd60e51b815260206004820152601d60248201527f566972616c6174614c6962726172793a205a45524f5f41444452455353000000604482015290519081900360640190fd5b9250929050565b60008060006001600160a01b03167f00000000000000000000000000000000000000000000000000000000000000006001600160a01b031663e6a439058a8a6040518363ffffffff1660e01b815260040180836001600160a01b03168152602001826001600160a01b031681526020019250505060206040518083038186803b1580156146d957600080fd5b505afa1580156146ed573d6000803e3d6000fd5b505050506040513d602081101561470357600080fd5b50516001600160a01b031614156147c1577f00000000000000000000000000000000000000000000000000000000000000006001600160a01b031663c9c6539689896040518363ffffffff1660e01b815260040180836001600160a01b03168152602001826001600160a01b0316815260200192505050602060405180830381600087803b15801561479457600080fd5b505af11580156147a8573d6000803e3d6000fd5b505050506040513d60208110156147be57600080fd5b50505b6000806147ef7f00000000000000000000000000000000000000000000000000000000000000008b8b6148de565b91509150816000148015614801575080155b15614811578793508692506148d1565b600061481e8984846144c9565b905087811161487157858110156148665760405162461bcd60e51b8152600401808060200182810382526025815260200180614a586025913960400191505060405180910390fd5b8894509250826148cf565b600061487e8984866144c9565b90508981111561488a57fe5b878110156148c95760405162461bcd60e51b8152600401808060200182810382526025815260200180614aa36025913960400191505060405180910390fd5b94508793505b505b5050965096945050505050565b60008060006148ed858561456f565b5090506000806148fe88888861394c565b6001600160a01b0316630902f1ac6040518163ffffffff1660e01b815260040160606040518083038186803b15801561493657600080fd5b505afa15801561494a573d6000803e3d6000fd5b505050506040513d606081101561496057600080fd5b5080516020909101516001600160701b0391821693501690506001600160a01b0387811690841614614993578082614996565b81815b90999098509650505050505050565b60008115806149c0575050808202828282816149bd57fe5b04145b6144c3576040805162461bcd60e51b815260206004820152601460248201527364732d6d6174682d6d756c2d6f766572666c6f7760601b604482015290519081900360640190fd5b808201828110156144c3576040805162461bcd60e51b815260206004820152601460248201527364732d6d6174682d6164642d6f766572666c6f7760601b604482015290519081900360640190fdfe566972616c617461526f757465723a20494e53554646494349454e545f425f414d4f554e54566972616c617461526f757465723a204558434553534956455f494e5055545f414d4f554e54566972616c617461526f757465723a20494e53554646494349454e545f415f414d4f554e54566972616c6174614c6962726172793a20494e53554646494349454e545f414d4f554e54566972616c617461526f757465723a2045585049524544000000000000000000566972616c617461526f757465723a20494e56414c49445f5041544800000000566972616c6174614c6962726172793a20494e53554646494349454e545f4c4951554944495459566972616c6174614c6962726172793a20494e53554646494349454e545f4f55545055545f414d4f554e54566972616c6174614c6962726172793a20494e53554646494349454e545f494e5055545f414d4f554e54566972616c617461526f757465723a20494e53554646494349454e545f4f55545055545f414d4f554e54566972616c6174614c6962726172793a204944454e544943414c5f4144445245535345535472616e7366657248656c7065723a204554485f5452414e534645525f4641494c45445472616e7366657248656c7065723a205452414e534645525f46524f4d5f4641494c4544a2646970667358221220899942ef59d292745e7669b1cd02679924d4d8197f21d785dae5a0df2d586f9964736f6c634300060c0033",
  "devdoc": {
    "kind": "dev",
    "methods": {},
    "version": 1
  },
  "userdoc": {
    "kind": "user",
    "methods": {},
    "version": 1
  },
  "storageLayout": {
    "storage": [],
    "types": null
  }
}