{
  "address": "0xaBE380931cd3Ae6E7197337BBC7462CCb8b90f46",
  "abi": [
    {
      "inputs": [
        {
          "internalType": "address",
          "name": "trustedForwarder",
          "type": "address"
        }
      ],
      "stateMutability": "nonpayable",
      "type": "constructor"
    },
    {
      "anonymous": false,
      "inputs": [
        {
          "indexed": true,
          "internalType": "address",
          "name": "owner",
          "type": "address"
        },
        {
          "indexed": true,
          "internalType": "address",
          "name": "spender",
          "type": "address"
        },
        {
          "indexed": false,
          "internalType": "uint256",
          "name": "value",
          "type": "uint256"
        }
      ],
      "name": "Approval",
      "type": "event"
    },
    {
      "anonymous": false,
      "inputs": [
        {
          "indexed": false,
          "internalType": "address",
          "name": "account",
          "type": "address"
        }
      ],
      "name": "Paused",
      "type": "event"
    },
    {
      "anonymous": false,
      "inputs": [
        {
          "indexed": true,
          "internalType": "bytes32",
          "name": "role",
          "type": "bytes32"
        },
        {
          "indexed": true,
          "internalType": "bytes32",
          "name": "previousAdminRole",
          "type": "bytes32"
        },
        {
          "indexed": true,
          "internalType": "bytes32",
          "name": "newAdminRole",
          "type": "bytes32"
        }
      ],
      "name": "RoleAdminChanged",
      "type": "event"
    },
    {
      "anonymous": false,
      "inputs": [
        {
          "indexed": true,
          "internalType": "bytes32",
          "name": "role",
          "type": "bytes32"
        },
        {
          "indexed": true,
          "internalType": "address",
          "name": "account",
          "type": "address"
        },
        {
          "indexed": true,
          "internalType": "address",
          "name": "sender",
          "type": "address"
        }
      ],
      "name": "RoleGranted",
      "type": "event"
    },
    {
      "anonymous": false,
      "inputs": [
        {
          "indexed": true,
          "internalType": "bytes32",
          "name": "role",
          "type": "bytes32"
        },
        {
          "indexed": true,
          "internalType": "address",
          "name": "account",
          "type": "address"
        },
        {
          "indexed": true,
          "internalType": "address",
          "name": "sender",
          "type": "address"
        }
      ],
      "name": "RoleRevoked",
      "type": "event"
    },
    {
      "anonymous": false,
      "inputs": [
        {
          "indexed": true,
          "internalType": "address",
          "name": "sender",
          "type": "address"
        },
        {
          "indexed": true,
          "internalType": "address",
          "name": "token",
          "type": "address"
        },
        {
          "indexed": false,
          "internalType": "uint256",
          "name": "value",
          "type": "uint256"
        }
      ],
      "name": "TokensRescued",
      "type": "event"
    },
    {
      "anonymous": false,
      "inputs": [
        {
          "indexed": true,
          "internalType": "address",
          "name": "from",
          "type": "address"
        },
        {
          "indexed": true,
          "internalType": "address",
          "name": "to",
          "type": "address"
        },
        {
          "indexed": false,
          "internalType": "uint256",
          "name": "value",
          "type": "uint256"
        }
      ],
      "name": "Transfer",
      "type": "event"
    },
    {
      "anonymous": false,
      "inputs": [
        {
          "indexed": false,
          "internalType": "address",
          "name": "account",
          "type": "address"
        }
      ],
      "name": "Unpaused",
      "type": "event"
    },
    {
      "inputs": [],
      "name": "DEFAULT_ADMIN_ROLE",
      "outputs": [
        {
          "internalType": "bytes32",
          "name": "",
          "type": "bytes32"
        }
      ],
      "stateMutability": "view",
      "type": "function"
    },
    {
      "inputs": [],
      "name": "DOMAIN_SEPARATOR",
      "outputs": [
        {
          "internalType": "bytes32",
          "name": "",
          "type": "bytes32"
        }
      ],
      "stateMutability": "view",
      "type": "function"
    },
    {
      "inputs": [],
      "name": "MINTER_ROLE",
      "outputs": [
        {
          "internalType": "bytes32",
          "name": "",
          "type": "bytes32"
        }
      ],
      "stateMutability": "view",
      "type": "function"
    },
    {
      "inputs": [],
      "name": "PAUSER_ROLE",
      "outputs": [
        {
          "internalType": "bytes32",
          "name": "",
          "type": "bytes32"
        }
      ],
      "stateMutability": "view",
      "type": "function"
    },
    {
      "inputs": [],
      "name": "RESCUER_ROLE",
      "outputs": [
        {
          "internalType": "bytes32",
          "name": "",
          "type": "bytes32"
        }
      ],
      "stateMutability": "view",
      "type": "function"
    },
    {
      "inputs": [],
      "name": "ROUTER_ROLE",
      "outputs": [
        {
          "internalType": "bytes32",
          "name": "",
          "type": "bytes32"
        }
      ],
      "stateMutability": "view",
      "type": "function"
    },
    {
      "inputs": [],
      "name": "TAKE_FEE_ROLE",
      "outputs": [
        {
          "internalType": "bytes32",
          "name": "",
          "type": "bytes32"
        }
      ],
      "stateMutability": "view",
      "type": "function"
    },
    {
      "inputs": [
        {
          "internalType": "address",
          "name": "owner",
          "type": "address"
        },
        {
          "internalType": "address",
          "name": "spender",
          "type": "address"
        }
      ],
      "name": "allowance",
      "outputs": [
        {
          "internalType": "uint256",
          "name": "",
          "type": "uint256"
        }
      ],
      "stateMutability": "view",
      "type": "function"
    },
    {
      "inputs": [
        {
          "internalType": "address",
          "name": "spender",
          "type": "address"
        },
        {
          "internalType": "uint256",
          "name": "amount",
          "type": "uint256"
        }
      ],
      "name": "approve",
      "outputs": [
        {
          "internalType": "bool",
          "name": "",
          "type": "bool"
        }
      ],
      "stateMutability": "nonpayable",
      "type": "function"
    },
    {
      "inputs": [
        {
          "internalType": "address",
          "name": "account",
          "type": "address"
        }
      ],
      "name": "balanceOf",
      "outputs": [
        {
          "internalType": "uint256",
          "name": "",
          "type": "uint256"
        }
      ],
      "stateMutability": "view",
      "type": "function"
    },
    {
      "inputs": [],
      "name": "decimals",
      "outputs": [
        {
          "internalType": "uint8",
          "name": "",
          "type": "uint8"
        }
      ],
      "stateMutability": "view",
      "type": "function"
    },
    {
      "inputs": [
        {
          "internalType": "address",
          "name": "spender",
          "type": "address"
        },
        {
          "internalType": "uint256",
          "name": "subtractedValue",
          "type": "uint256"
        }
      ],
      "name": "decreaseAllowance",
      "outputs": [
        {
          "internalType": "bool",
          "name": "",
          "type": "bool"
        }
      ],
      "stateMutability": "nonpayable",
      "type": "function"
    },
    {
      "inputs": [
        {
          "internalType": "bytes32",
          "name": "role",
          "type": "bytes32"
        }
      ],
      "name": "getRoleAdmin",
      "outputs": [
        {
          "internalType": "bytes32",
          "name": "",
          "type": "bytes32"
        }
      ],
      "stateMutability": "view",
      "type": "function"
    },
    {
      "inputs": [
        {
          "internalType": "bytes32",
          "name": "role",
          "type": "bytes32"
        },
        {
          "internalType": "address",
          "name": "account",
          "type": "address"
        }
      ],
      "name": "grantRole",
      "outputs": [],
      "stateMutability": "nonpayable",
      "type": "function"
    },
    {
      "inputs": [
        {
          "internalType": "bytes32",
          "name": "role",
          "type": "bytes32"
        },
        {
          "internalType": "address",
          "name": "account",
          "type": "address"
        }
      ],
      "name": "hasRole",
      "outputs": [
        {
          "internalType": "bool",
          "name": "",
          "type": "bool"
        }
      ],
      "stateMutability": "view",
      "type": "function"
    },
    {
      "inputs": [
        {
          "internalType": "address",
          "name": "spender",
          "type": "address"
        },
        {
          "internalType": "uint256",
          "name": "addedValue",
          "type": "uint256"
        }
      ],
      "name": "increaseAllowance",
      "outputs": [
        {
          "internalType": "bool",
          "name": "",
          "type": "bool"
        }
      ],
      "stateMutability": "nonpayable",
      "type": "function"
    },
    {
      "inputs": [
        {
          "internalType": "address",
          "name": "forwarder",
          "type": "address"
        }
      ],
      "name": "isTrustedForwarder",
      "outputs": [
        {
          "internalType": "bool",
          "name": "",
          "type": "bool"
        }
      ],
      "stateMutability": "view",
      "type": "function"
    },
    {
      "inputs": [],
      "name": "maxSupply",
      "outputs": [
        {
          "internalType": "uint256",
          "name": "",
          "type": "uint256"
        }
      ],
      "stateMutability": "view",
      "type": "function"
    },
    {
      "inputs": [
        {
          "internalType": "address",
          "name": "to",
          "type": "address"
        },
        {
          "internalType": "uint256",
          "name": "amount",
          "type": "uint256"
        }
      ],
      "name": "mint",
      "outputs": [],
      "stateMutability": "nonpayable",
      "type": "function"
    },
    {
      "inputs": [],
      "name": "name",
      "outputs": [
        {
          "internalType": "string",
          "name": "",
          "type": "string"
        }
      ],
      "stateMutability": "view",
      "type": "function"
    },
    {
      "inputs": [
        {
          "internalType": "address",
          "name": "owner",
          "type": "address"
        }
      ],
      "name": "nonces",
      "outputs": [
        {
          "internalType": "uint256",
          "name": "",
          "type": "uint256"
        }
      ],
      "stateMutability": "view",
      "type": "function"
    },
    {
      "inputs": [],
      "name": "pause",
      "outputs": [],
      "stateMutability": "nonpayable",
      "type": "function"
    },
    {
      "inputs": [],
      "name": "paused",
      "outputs": [
        {
          "internalType": "bool",
          "name": "",
          "type": "bool"
        }
      ],
      "stateMutability": "view",
      "type": "function"
    },
    {
      "inputs": [
        {
          "internalType": "address",
          "name": "owner",
          "type": "address"
        },
        {
          "internalType": "address",
          "name": "spender",
          "type": "address"
        },
        {
          "internalType": "uint256",
          "name": "value",
          "type": "uint256"
        },
        {
          "internalType": "uint256",
          "name": "deadline",
          "type": "uint256"
        },
        {
          "internalType": "uint8",
          "name": "v",
          "type": "uint8"
        },
        {
          "internalType": "bytes32",
          "name": "r",
          "type": "bytes32"
        },
        {
          "internalType": "bytes32",
          "name": "s",
          "type": "bytes32"
        }
      ],
      "name": "permit",
      "outputs": [],
      "stateMutability": "nonpayable",
      "type": "function"
    },
    {
      "inputs": [
        {
          "internalType": "bytes32",
          "name": "role",
          "type": "bytes32"
        },
        {
          "internalType": "address",
          "name": "account",
          "type": "address"
        }
      ],
      "name": "renounceRole",
      "outputs": [],
      "stateMutability": "nonpayable",
      "type": "function"
    },
    {
      "inputs": [
        {
          "internalType": "contract IERC20",
          "name": "token",
          "type": "address"
        },
        {
          "internalType": "uint256",
          "name": "value",
          "type": "uint256"
        }
      ],
      "name": "rescueTokens",
      "outputs": [],
      "stateMutability": "nonpayable",
      "type": "function"
    },
    {
      "inputs": [
        {
          "internalType": "bytes32",
          "name": "role",
          "type": "bytes32"
        },
        {
          "internalType": "address",
          "name": "account",
          "type": "address"
        }
      ],
      "name": "revokeRole",
      "outputs": [],
      "stateMutability": "nonpayable",
      "type": "function"
    },
    {
      "inputs": [
        {
          "internalType": "bytes4",
          "name": "interfaceId",
          "type": "bytes4"
        }
      ],
      "name": "supportsInterface",
      "outputs": [
        {
          "internalType": "bool",
          "name": "",
          "type": "bool"
        }
      ],
      "stateMutability": "view",
      "type": "function"
    },
    {
      "inputs": [],
      "name": "symbol",
      "outputs": [
        {
          "internalType": "string",
          "name": "",
          "type": "string"
        }
      ],
      "stateMutability": "view",
      "type": "function"
    },
    {
      "inputs": [],
      "name": "totalSupply",
      "outputs": [
        {
          "internalType": "uint256",
          "name": "",
          "type": "uint256"
        }
      ],
      "stateMutability": "view",
      "type": "function"
    },
    {
      "inputs": [
        {
          "internalType": "address",
          "name": "recipient",
          "type": "address"
        },
        {
          "internalType": "uint256",
          "name": "amount",
          "type": "uint256"
        }
      ],
      "name": "transfer",
      "outputs": [
        {
          "internalType": "bool",
          "name": "",
          "type": "bool"
        }
      ],
      "stateMutability": "nonpayable",
      "type": "function"
    },
    {
      "inputs": [
        {
          "internalType": "address",
          "name": "sender",
          "type": "address"
        },
        {
          "internalType": "address",
          "name": "recipient",
          "type": "address"
        },
        {
          "internalType": "uint256",
          "name": "amount",
          "type": "uint256"
        }
      ],
      "name": "transferFrom",
      "outputs": [
        {
          "internalType": "bool",
          "name": "",
          "type": "bool"
        }
      ],
      "stateMutability": "nonpayable",
      "type": "function"
    },
    {
      "inputs": [],
      "name": "unpause",
      "outputs": [],
      "stateMutability": "nonpayable",
      "type": "function"
    }
  ],
  "transactionHash": "0x2758fa6bca5e739a0fd89197b40b1ea03d6efe2d174d77b7ec7a8cfde88a3b25",
  "args": [
    "0x8dCfDe0B1bF39451882f5cc958609c74Ef50A96c"
  ],
  "solcInputHash": "b8e48a51010d81979d087574e5d80b16",
  "bytecode": "0x6101406040527f6e71edae12b1b97f4d1f60370fef10105fa2faae0126114a169c64845d6126c96101205262000034620002b2565b6200004190600a62000695565b6200005190637735940062000780565b6008556200005e620002b2565b6200006b90600a62000695565b6200007a9062030d4062000780565b6009553480156200008a57600080fd5b506040516200245f3803806200245f833981016040819052620000ad9162000604565b604051806040016040528060128152602001712b34b930b630ba30a9bbb0b8102a37b5b2b760711b81525080604051806040016040528060018152602001603160f81b815250604051806040016040528060128152602001712b34b930b630ba30a9bbb0b8102a37b5b2b760711b815250604051806040016040528060048152602001634155524f60e01b8152508160039080519060200190620001539291906200055e565b508051620001699060049060208401906200055e565b5050825160208085019190912083519184019190912060c082905260e08190524660a0529091507f8b73c3c69bb8fe3d512ecc4cf759cc79239f7b179b0ffacaa9a75d522b39400f620001be818484620002b8565b6080526101005250506006805460ff1916905550620001ec915060009050620001e662000302565b62000346565b6200021b7f65d7a28e3265b37a6474929f336521b332c1681b933f6cb9f3376673440d862a620001e662000302565b6200024a7f9f2df0fed2c77648de5860a4cc508cd0818c85b8b8a1ab4ceeef8d981c8956a6620001e662000302565b620002797fcf6f9f892731e14b8859835f2ff35575f447fb501f46243c4eb8bac19e31a050620001e662000302565b600a80546001600160a01b0319166001600160a01b038316179055620002ab620002a262000302565b60095462000356565b50620007f5565b60125b90565b6040805160208101859052908101839052606081018290524660808201523060a082015260009060c0016040516020818303038152906040528051906020012090505b9392505050565b600a546000906001600160a01b031633141562000329575060131936013560601c620002b5565b6200033e6200044f60201b62000cc71760201c565b9050620002b5565b62000352828262000453565b5050565b6001600160a01b038216620003b25760405162461bcd60e51b815260206004820152601f60248201527f45524332303a206d696e7420746f20746865207a65726f20616464726573730060448201526064015b60405180910390fd5b620003c060008383620004f9565b8060026000828254620003d491906200062d565b90915550506001600160a01b03821660009081526020819052604081208054839290620004039084906200062d565b90915550506040518181526001600160a01b038316906000907fddf252ad1be2c89b69c2b068fc378daa952ba7f163c4a11628f55a4df523b3ef9060200160405180910390a362000352565b3390565b60008281526007602090815260408083206001600160a01b038516845290915290205460ff16620003525760008281526007602090815260408083206001600160a01b03851684529091529020805460ff19166001179055620004b562000302565b6001600160a01b0316816001600160a01b0316837f2f8788117e7eff1d82e926ec794901d17c78024a50270940304540a733656f0d60405160405180910390a45050565b60065460ff1615620005415760405162461bcd60e51b815260206004820152601060248201526f14185d5cd8589b194e881c185d5cd95960821b6044820152606401620003a9565b620005598383836200055960201b620006e61760201c565b505050565b8280546200056c90620007a2565b90600052602060002090601f016020900481019282620005905760008555620005db565b82601f10620005ab57805160ff1916838001178555620005db565b82800160010185558215620005db579182015b82811115620005db578251825591602001919060010190620005be565b50620005e9929150620005ed565b5090565b5b80821115620005e95760008155600101620005ee565b60006020828403121562000616578081fd5b81516001600160a01b0381168114620002fb578182fd5b60008219821115620006435762000643620007df565b500190565b80825b60018086116200065c57506200068c565b818704821115620006715762000671620007df565b808616156200067f57918102915b9490941c9380026200064b565b94509492505050565b6000620002fb60001960ff851684600082620006b457506001620002fb565b81620006c357506000620002fb565b8160018114620006dc5760028114620006e7576200071b565b6001915050620002fb565b60ff841115620006fb57620006fb620007df565b6001841b915084821115620007145762000714620007df565b50620002fb565b5060208310610133831016604e8410600b841016171562000753575081810a838111156200074d576200074d620007df565b620002fb565b62000762848484600162000648565b808604821115620007775762000777620007df565b02949350505050565b60008160001904831182151516156200079d576200079d620007df565b500290565b600281046001821680620007b757607f821691505b60208210811415620007d957634e487b7160e01b600052602260045260246000fd5b50919050565b634e487b7160e01b600052601160045260246000fd5b60805160a05160c05160e0516101005161012051611c1a620008456000396000610b8f01526000611132015260006111810152600061115c015260006110df015260006111080152611c1a6000f3fe608060405234801561001057600080fd5b50600436106101fb5760003560e01c80635c975abb1161011a578063a217fddf116100ad578063d53913931161007c578063d53913931461045a578063d547741f14610481578063d5abeb0114610494578063dd62ed3e1461049c578063e63ab1e9146104d5576101fb565b8063a217fddf14610419578063a457c2d714610421578063a9059cbb14610434578063d505accf14610447576101fb565b806381566eaa116100e957806381566eaa146103cf5780638456cb59146103f657806391d14854146103fe57806395d89b4114610411576101fb565b80635c975abb1461036157806370a082311461036c57806371372544146103955780637ecebe00146103bc576101fb565b8063313ce567116101925780633f4ba83a116101615780633f4ba83a1461031157806340c10f1914610319578063572b6c051461032c578063573761981461034e576101fb565b8063313ce567146102d45780633644e515146102e357806336568abe146102eb57806339509351146102fe576101fb565b806323b872dd116101ce57806323b872dd14610262578063248a9ca3146102755780632f2ff15d1461029857806330d643b5146102ad576101fb565b806301ffc9a71461020057806306fdde0314610228578063095ea7b31461023d57806318160ddd14610250575b600080fd5b61021361020e366004611a3a565b6104fc565b60405190151581526020015b60405180910390f35b610230610533565b60405161021f9190611ad7565b61021361024b3660046119b3565b6105c6565b6002545b60405190815260200161021f565b6102136102703660046118fe565b6105e3565b6102546102833660046119fe565b60009081526007602052604090206001015490565b6102ab6102a6366004611a16565b6106b9565b005b6102547f7a05a596cb0ce7fdea8a1e1ec73be300bdb35097c944ce1897202f7a13122eb281565b6040516012815260200161021f565b6102546106eb565b6102ab6102f9366004611a16565b6106fa565b61021361030c3660046119b3565b610788565b6102ab6107dc565b6102ab6103273660046119b3565b610814565b61021361033a3660046118aa565b600a546001600160a01b0390811691161490565b6102ab61035c3660046119b3565b6108c5565b60065460ff16610213565b61025461037a3660046118aa565b6001600160a01b031660009081526020819052604090205490565b6102547fcf6f9f892731e14b8859835f2ff35575f447fb501f46243c4eb8bac19e31a05081565b6102546103ca3660046118aa565b6109e3565b6102547ffca79f3adba7490137e2d16caa9b169b63452adad6a6798627350f3fe4a4aaf081565b6102ab610a01565b61021361040c366004611a16565b610a36565b610230610a61565b610254600081565b61021361042f3660046119b3565b610a70565b6102136104423660046119b3565b610b27565b6102ab61045536600461193e565b610b3b565b6102547f9f2df0fed2c77648de5860a4cc508cd0818c85b8b8a1ab4ceeef8d981c8956a681565b6102ab61048f366004611a16565b610c9f565b600854610254565b6102546104aa3660046118c6565b6001600160a01b03918216600090815260016020908152604080832093909416825291909152205490565b6102547f65d7a28e3265b37a6474929f336521b332c1681b933f6cb9f3376673440d862a81565b60006001600160e01b03198216637965db0b60e01b148061052d57506301ffc9a760e01b6001600160e01b03198316145b92915050565b60606003805461054290611b84565b80601f016020809104026020016040519081016040528092919081815260200182805461056e90611b84565b80156105bb5780601f10610590576101008083540402835291602001916105bb565b820191906000526020600020905b81548152906001019060200180831161059e57829003601f168201915b505050505090505b90565b60006105da6105d3610ccb565b8484610cf9565b50600192915050565b60006105f0848484610e15565b6001600160a01b038416600090815260016020526040812081610611610ccb565b6001600160a01b03166001600160a01b031681526020019081526020016000205490508281101561069a5760405162461bcd60e51b815260206004820152602860248201527f45524332303a207472616e7366657220616d6f756e74206578636565647320616044820152676c6c6f77616e636560c01b60648201526084015b60405180910390fd5b6106ae856106a6610ccb565b858403610cf9565b506001949350505050565b6000828152600760205260409020600101546106dc816106d7610ccb565b610ff0565b6106e68383611054565b505050565b60006106f56110db565b905090565b610702610ccb565b6001600160a01b0316816001600160a01b03161461077a5760405162461bcd60e51b815260206004820152602f60248201527f416363657373436f6e74726f6c3a2063616e206f6e6c792072656e6f756e636560448201526e103937b632b9903337b91039b2b63360891b6064820152608401610691565b61078482826111d1565b5050565b60006105da610795610ccb565b8484600160006107a3610ccb565b6001600160a01b03908116825260208083019390935260409182016000908120918b16815292529020546107d79190611b0a565b610cf9565b7f65d7a28e3265b37a6474929f336521b332c1681b933f6cb9f3376673440d862a610809816106d7610ccb565b610811611256565b50565b7f9f2df0fed2c77648de5860a4cc508cd0818c85b8b8a1ab4ceeef8d981c8956a6610841816106d7610ccb565b6008548261084e60025490565b6108589190611b0a565b11156108bb5760405162461bcd60e51b815260206004820152602c60248201527f45524332303a2063616e6e6f74206d696e74206d6f726520746f6b656e732c2060448201526b18d85c08195e18d95959195960a21b6064820152608401610691565b6106e683836112ef565b7fcf6f9f892731e14b8859835f2ff35575f447fb501f46243c4eb8bac19e31a0506108f2816106d7610ccb565b826001600160a01b031663a9059cbb610909610ccb565b6040516001600160e01b031960e084901b1681526001600160a01b03909116600482015260248101859052604401602060405180830381600087803b15801561095157600080fd5b505af1158015610965573d6000803e3d6000fd5b505050506040513d601f19601f8201168201806040525081019061098991906119de565b50826001600160a01b031661099c610ccb565b6001600160a01b03167f77023e19c7343ad491fd706c36335ca0e738340a91f29b1fd81e2673d44896c4846040516109d691815260200190565b60405180910390a3505050565b6001600160a01b03811660009081526005602052604081205461052d565b7f65d7a28e3265b37a6474929f336521b332c1681b933f6cb9f3376673440d862a610a2e816106d7610ccb565b6108116113db565b60009182526007602090815260408084206001600160a01b0393909316845291905290205460ff1690565b60606004805461054290611b84565b60008060016000610a7f610ccb565b6001600160a01b0390811682526020808301939093526040918201600090812091881681529252902054905082811015610b095760405162461bcd60e51b815260206004820152602560248201527f45524332303a2064656372656173656420616c6c6f77616e63652062656c6f77604482015264207a65726f60d81b6064820152608401610691565b610b1d610b14610ccb565b85858403610cf9565b5060019392505050565b60006105da610b34610ccb565b8484610e15565b83421115610b8b5760405162461bcd60e51b815260206004820152601d60248201527f45524332305065726d69743a206578706972656420646561646c696e650000006044820152606401610691565b60007f0000000000000000000000000000000000000000000000000000000000000000888888610bba8c611457565b6040805160208101969096526001600160a01b0394851690860152929091166060840152608083015260a082015260c0810186905260e0016040516020818303038152906040528051906020012090506000610c158261147f565b90506000610c25828787876114cd565b9050896001600160a01b0316816001600160a01b031614610c885760405162461bcd60e51b815260206004820152601e60248201527f45524332305065726d69743a20696e76616c6964207369676e617475726500006044820152606401610691565b610c938a8a8a610cf9565b50505050505050505050565b600082815260076020526040902060010154610cbd816106d7610ccb565b6106e683836111d1565b3390565b600a546000906001600160a01b0316331415610cf0575060131936013560601c6105c3565b335b90506105c3565b6001600160a01b038316610d5b5760405162461bcd60e51b8152602060048201526024808201527f45524332303a20617070726f76652066726f6d20746865207a65726f206164646044820152637265737360e01b6064820152608401610691565b6001600160a01b038216610dbc5760405162461bcd60e51b815260206004820152602260248201527f45524332303a20617070726f766520746f20746865207a65726f206164647265604482015261737360f01b6064820152608401610691565b6001600160a01b0383811660008181526001602090815260408083209487168084529482529182902085905590518481527f8c5be1e5ebec7d5bd14f71427d1e84f3dd0314c0f7b2291e5b200ac8c7c3b92591016109d6565b6001600160a01b038316610e795760405162461bcd60e51b815260206004820152602560248201527f45524332303a207472616e736665722066726f6d20746865207a65726f206164604482015264647265737360d81b6064820152608401610691565b6001600160a01b038216610edb5760405162461bcd60e51b815260206004820152602360248201527f45524332303a207472616e7366657220746f20746865207a65726f206164647260448201526265737360e81b6064820152608401610691565b610ee6838383611676565b6001600160a01b03831660009081526020819052604090205481811015610f5e5760405162461bcd60e51b815260206004820152602660248201527f45524332303a207472616e7366657220616d6f756e7420657863656564732062604482015265616c616e636560d01b6064820152608401610691565b6001600160a01b03808516600090815260208190526040808220858503905591851681529081208054849290610f95908490611b0a565b92505081905550826001600160a01b0316846001600160a01b03167fddf252ad1be2c89b69c2b068fc378daa952ba7f163c4a11628f55a4df523b3ef84604051610fe191815260200190565b60405180910390a35b50505050565b610ffa8282610a36565b61078457611012816001600160a01b031660146116c1565b61101d8360206116c1565b60405160200161102e929190611a62565b60408051601f198184030181529082905262461bcd60e51b825261069191600401611ad7565b61105e8282610a36565b6107845760008281526007602090815260408083206001600160a01b03851684529091529020805460ff19166001179055611097610ccb565b6001600160a01b0316816001600160a01b0316837f2f8788117e7eff1d82e926ec794901d17c78024a50270940304540a733656f0d60405160405180910390a45050565b60007f000000000000000000000000000000000000000000000000000000000000000046141561112c57507f00000000000000000000000000000000000000000000000000000000000000006105c3565b604080517f00000000000000000000000000000000000000000000000000000000000000006020808301919091527f0000000000000000000000000000000000000000000000000000000000000000828401527f000000000000000000000000000000000000000000000000000000000000000060608301524660808301523060a0808401919091528351808403909101815260c09092019092528051910120610cf2565b6111db8282610a36565b156107845760008281526007602090815260408083206001600160a01b03851684529091529020805460ff19169055611212610ccb565b6001600160a01b0316816001600160a01b0316837ff6391f5c32d9c69d2a47ea670b442974b53935d1edc7fd64eb21e047a839171b60405160405180910390a45050565b60065460ff1661129f5760405162461bcd60e51b815260206004820152601460248201527314185d5cd8589b194e881b9bdd081c185d5cd95960621b6044820152606401610691565b6006805460ff191690557f5db9ee0a495bf2e6ff9c91a7834c1ba4fdd244a5e8aa4e537bd38aeae4b073aa6112d2610ccb565b6040516001600160a01b03909116815260200160405180910390a1565b6001600160a01b0382166113455760405162461bcd60e51b815260206004820152601f60248201527f45524332303a206d696e7420746f20746865207a65726f2061646472657373006044820152606401610691565b61135160008383611676565b80600260008282546113639190611b0a565b90915550506001600160a01b03821660009081526020819052604081208054839290611390908490611b0a565b90915550506040518181526001600160a01b038316906000907fddf252ad1be2c89b69c2b068fc378daa952ba7f163c4a11628f55a4df523b3ef9060200160405180910390a3610784565b60065460ff16156114215760405162461bcd60e51b815260206004820152601060248201526f14185d5cd8589b194e881c185d5cd95960821b6044820152606401610691565b6006805460ff191660011790557f62e78cea01bee320cd4e420270b5ea74000d11b0c9f74754ebdbfc544b05a2586112d2610ccb565b6001600160a01b03811660009081526005602052604090208054600181018255905b50919050565b600061052d61148c6110db565b8360405161190160f01b6020820152602281018390526042810182905260009060620160405160208183030381529060405280519060200120905092915050565b60007f7fffffffffffffffffffffffffffffff5d576e7357a4501ddfe92f46681b20a082111561154a5760405162461bcd60e51b815260206004820152602260248201527f45434453413a20696e76616c6964207369676e6174757265202773272076616c604482015261756560f01b6064820152608401610691565b8360ff16601b148061155f57508360ff16601c145b6115b65760405162461bcd60e51b815260206004820152602260248201527f45434453413a20696e76616c6964207369676e6174757265202776272076616c604482015261756560f01b6064820152608401610691565b6040805160008082526020820180845288905260ff871692820192909252606081018590526080810184905260019060a0016020604051602081039080840390855afa15801561160a573d6000803e3d6000fd5b5050604051601f1901519150506001600160a01b03811661166d5760405162461bcd60e51b815260206004820152601860248201527f45434453413a20696e76616c6964207369676e617475726500000000000000006044820152606401610691565b95945050505050565b60065460ff16156116bc5760405162461bcd60e51b815260206004820152601060248201526f14185d5cd8589b194e881c185d5cd95960821b6044820152606401610691565b6106e6565b606060006116d0836002611b22565b6116db906002611b0a565b67ffffffffffffffff81111561170157634e487b7160e01b600052604160045260246000fd5b6040519080825280601f01601f19166020018201604052801561172b576020820181803683370190505b509050600360fc1b8160008151811061175457634e487b7160e01b600052603260045260246000fd5b60200101906001600160f81b031916908160001a905350600f60fb1b8160018151811061179157634e487b7160e01b600052603260045260246000fd5b60200101906001600160f81b031916908160001a90535060006117b5846002611b22565b6117c0906001611b0a565b90505b6001811115611854576f181899199a1a9b1b9c1cb0b131b232b360811b85600f166010811061180257634e487b7160e01b600052603260045260246000fd5b1a60f81b82828151811061182657634e487b7160e01b600052603260045260246000fd5b60200101906001600160f81b031916908160001a90535060049490941c9361184d81611b6d565b90506117c3565b5083156118a35760405162461bcd60e51b815260206004820181905260248201527f537472696e67733a20686578206c656e67746820696e73756666696369656e746044820152606401610691565b9392505050565b6000602082840312156118bb578081fd5b81356118a381611bcf565b600080604083850312156118d8578081fd5b82356118e381611bcf565b915060208301356118f381611bcf565b809150509250929050565b600080600060608486031215611912578081fd5b833561191d81611bcf565b9250602084013561192d81611bcf565b929592945050506040919091013590565b600080600080600080600060e0888a031215611958578283fd5b873561196381611bcf565b9650602088013561197381611bcf565b95506040880135945060608801359350608088013560ff81168114611996578384fd5b9699959850939692959460a0840135945060c09093013592915050565b600080604083850312156119c5578182fd5b82356119d081611bcf565b946020939093013593505050565b6000602082840312156119ef578081fd5b815180151581146118a3578182fd5b600060208284031215611a0f578081fd5b5035919050565b60008060408385031215611a28578182fd5b8235915060208301356118f381611bcf565b600060208284031215611a4b578081fd5b81356001600160e01b0319811681146118a3578182fd5b60007f416363657373436f6e74726f6c3a206163636f756e742000000000000000000082528351611a9a816017850160208801611b41565b7001034b99036b4b9b9b4b733903937b6329607d1b6017918401918201528351611acb816028840160208801611b41565b01602801949350505050565b6000602082528251806020840152611af6816040850160208701611b41565b601f01601f19169190910160400192915050565b60008219821115611b1d57611b1d611bb9565b500190565b6000816000190483118215151615611b3c57611b3c611bb9565b500290565b60005b83811015611b5c578181015183820152602001611b44565b83811115610fea5750506000910152565b600081611b7c57611b7c611bb9565b506000190190565b600281046001821680611b9857607f821691505b6020821081141561147957634e487b7160e01b600052602260045260246000fd5b634e487b7160e01b600052601160045260246000fd5b6001600160a01b038116811461081157600080fdfea264697066735822122054808fb9ccb1192558dc5cf6a8bbc2a444276ee3a38f6066a8d067485c65ef5e64736f6c63430008020033",
  "devdoc": {
    "kind": "dev",
    "methods": {
      "DOMAIN_SEPARATOR()": {
        "details": "See {IERC20Permit-DOMAIN_SEPARATOR}."
      },
      "allowance(address,address)": {
        "details": "See {IERC20-allowance}."
      },
      "approve(address,uint256)": {
        "details": "See {IERC20-approve}. Requirements: - `spender` cannot be the zero address."
      },
      "balanceOf(address)": {
        "details": "See {IERC20-balanceOf}."
      },
      "decimals()": {
        "details": "Returns the number of decimals used to get its user representation. For example, if `decimals` equals `2`, a balance of `505` tokens should be displayed to a user as `5,05` (`505 / 10 ** 2`). Tokens usually opt for a value of 18, imitating the relationship between Ether and Wei. This is the value {ERC20} uses, unless this function is overridden; NOTE: This information is only used for _display_ purposes: it in no way affects any of the arithmetic of the contract, including {IERC20-balanceOf} and {IERC20-transfer}."
      },
      "decreaseAllowance(address,uint256)": {
        "details": "Atomically decreases the allowance granted to `spender` by the caller. This is an alternative to {approve} that can be used as a mitigation for problems described in {IERC20-approve}. Emits an {Approval} event indicating the updated allowance. Requirements: - `spender` cannot be the zero address. - `spender` must have allowance for the caller of at least `subtractedValue`."
      },
      "getRoleAdmin(bytes32)": {
        "details": "Returns the admin role that controls `role`. See {grantRole} and {revokeRole}. To change a role's admin, use {_setRoleAdmin}."
      },
      "grantRole(bytes32,address)": {
        "details": "Grants `role` to `account`. If `account` had not been already granted `role`, emits a {RoleGranted} event. Requirements: - the caller must have ``role``'s admin role."
      },
      "hasRole(bytes32,address)": {
        "details": "Returns `true` if `account` has been granted `role`."
      },
      "increaseAllowance(address,uint256)": {
        "details": "Atomically increases the allowance granted to `spender` by the caller. This is an alternative to {approve} that can be used as a mitigation for problems described in {IERC20-approve}. Emits an {Approval} event indicating the updated allowance. Requirements: - `spender` cannot be the zero address."
      },
      "maxSupply()": {
        "details": "Returns the maximum amount of tokens that can be minted."
      },
      "name()": {
        "details": "Returns the name of the token."
      },
      "nonces(address)": {
        "details": "See {IERC20Permit-nonces}."
      },
      "paused()": {
        "details": "Returns true if the contract is paused, and false otherwise."
      },
      "permit(address,address,uint256,uint256,uint8,bytes32,bytes32)": {
        "details": "See {IERC20Permit-permit}."
      },
      "renounceRole(bytes32,address)": {
        "details": "Revokes `role` from the calling account. Roles are often managed via {grantRole} and {revokeRole}: this function's purpose is to provide a mechanism for accounts to lose their privileges if they are compromised (such as when a trusted device is misplaced). If the calling account had been granted `role`, emits a {RoleRevoked} event. Requirements: - the caller must be `account`."
      },
      "revokeRole(bytes32,address)": {
        "details": "Revokes `role` from `account`. If `account` had been granted `role`, emits a {RoleRevoked} event. Requirements: - the caller must have ``role``'s admin role."
      },
      "supportsInterface(bytes4)": {
        "details": "See {IERC165-supportsInterface}."
      },
      "symbol()": {
        "details": "Returns the symbol of the token, usually a shorter version of the name."
      },
      "totalSupply()": {
        "details": "See {IERC20-totalSupply}."
      },
      "transfer(address,uint256)": {
        "details": "See {IERC20-transfer}. Requirements: - `recipient` cannot be the zero address. - the caller must have a balance of at least `amount`."
      },
      "transferFrom(address,address,uint256)": {
        "details": "See {IERC20-transferFrom}. Emits an {Approval} event indicating the updated allowance. This is not required by the EIP. See the note at the beginning of {ERC20}. Requirements: - `sender` and `recipient` cannot be the zero address. - `sender` must have a balance of at least `amount`. - the caller must have allowance for ``sender``'s tokens of at least `amount`."
      }
    },
    "version": 1
  },
  "userdoc": {
    "kind": "user",
    "methods": {},
    "version": 1
  },
  "storageLayout": {
    "storage": [
      {
        "astId": 695,
        "contract": "contracts/auro/ViralataSwapToken.sol:ViralataSwapToken",
        "label": "_balances",
        "offset": 0,
        "slot": "0",
        "type": "t_mapping(t_address,t_uint256)"
      },
      {
        "astId": 701,
        "contract": "contracts/auro/ViralataSwapToken.sol:ViralataSwapToken",
        "label": "_allowances",
        "offset": 0,
        "slot": "1",
        "type": "t_mapping(t_address,t_mapping(t_address,t_uint256))"
      },
      {
        "astId": 703,
        "contract": "contracts/auro/ViralataSwapToken.sol:ViralataSwapToken",
        "label": "_totalSupply",
        "offset": 0,
        "slot": "2",
        "type": "t_uint256"
      },
      {
        "astId": 705,
        "contract": "contracts/auro/ViralataSwapToken.sol:ViralataSwapToken",
        "label": "_name",
        "offset": 0,
        "slot": "3",
        "type": "t_string_storage"
      },
      {
        "astId": 707,
        "contract": "contracts/auro/ViralataSwapToken.sol:ViralataSwapToken",
        "label": "_symbol",
        "offset": 0,
        "slot": "4",
        "type": "t_string_storage"
      },
      {
        "astId": 1351,
        "contract": "contracts/auro/ViralataSwapToken.sol:ViralataSwapToken",
        "label": "_nonces",
        "offset": 0,
        "slot": "5",
        "type": "t_mapping(t_address,t_struct(Counter)2080_storage)"
      },
      {
        "astId": 565,
        "contract": "contracts/auro/ViralataSwapToken.sol:ViralataSwapToken",
        "label": "_paused",
        "offset": 0,
        "slot": "6",
        "type": "t_bool"
      },
      {
        "astId": 62,
        "contract": "contracts/auro/ViralataSwapToken.sol:ViralataSwapToken",
        "label": "_roles",
        "offset": 0,
        "slot": "7",
        "type": "t_mapping(t_bytes32,t_struct(RoleData)57_storage)"
      },
      {
        "astId": 3078,
        "contract": "contracts/auro/ViralataSwapToken.sol:ViralataSwapToken",
        "label": "_maxSupply",
        "offset": 0,
        "slot": "8",
        "type": "t_uint256"
      },
      {
        "astId": 3086,
        "contract": "contracts/auro/ViralataSwapToken.sol:ViralataSwapToken",
        "label": "_initialSupply",
        "offset": 0,
        "slot": "9",
        "type": "t_uint256"
      },
      {
        "astId": 3088,
        "contract": "contracts/auro/ViralataSwapToken.sol:ViralataSwapToken",
        "label": "_trustedForwarder",
        "offset": 0,
        "slot": "10",
        "type": "t_address"
      }
    ],
    "types": {
      "t_address": {
        "encoding": "inplace",
        "label": "address",
        "numberOfBytes": "20"
      },
      "t_bool": {
        "encoding": "inplace",
        "label": "bool",
        "numberOfBytes": "1"
      },
      "t_bytes32": {
        "encoding": "inplace",
        "label": "bytes32",
        "numberOfBytes": "32"
      },
      "t_mapping(t_address,t_bool)": {
        "encoding": "mapping",
        "key": "t_address",
        "label": "mapping(address => bool)",
        "numberOfBytes": "32",
        "value": "t_bool"
      },
      "t_mapping(t_address,t_mapping(t_address,t_uint256))": {
        "encoding": "mapping",
        "key": "t_address",
        "label": "mapping(address => mapping(address => uint256))",
        "numberOfBytes": "32",
        "value": "t_mapping(t_address,t_uint256)"
      },
      "t_mapping(t_address,t_struct(Counter)2080_storage)": {
        "encoding": "mapping",
        "key": "t_address",
        "label": "mapping(address => struct Counters.Counter)",
        "numberOfBytes": "32",
        "value": "t_struct(Counter)2080_storage"
      },
      "t_mapping(t_address,t_uint256)": {
        "encoding": "mapping",
        "key": "t_address",
        "label": "mapping(address => uint256)",
        "numberOfBytes": "32",
        "value": "t_uint256"
      },
      "t_mapping(t_bytes32,t_struct(RoleData)57_storage)": {
        "encoding": "mapping",
        "key": "t_bytes32",
        "label": "mapping(bytes32 => struct AccessControl.RoleData)",
        "numberOfBytes": "32",
        "value": "t_struct(RoleData)57_storage"
      },
      "t_string_storage": {
        "encoding": "bytes",
        "label": "string",
        "numberOfBytes": "32"
      },
      "t_struct(Counter)2080_storage": {
        "encoding": "inplace",
        "label": "struct Counters.Counter",
        "members": [
          {
            "astId": 2079,
            "contract": "contracts/auro/ViralataSwapToken.sol:ViralataSwapToken",
            "label": "_value",
            "offset": 0,
            "slot": "0",
            "type": "t_uint256"
          }
        ],
        "numberOfBytes": "32"
      },
      "t_struct(RoleData)57_storage": {
        "encoding": "inplace",
        "label": "struct AccessControl.RoleData",
        "members": [
          {
            "astId": 54,
            "contract": "contracts/auro/ViralataSwapToken.sol:ViralataSwapToken",
            "label": "members",
            "offset": 0,
            "slot": "0",
            "type": "t_mapping(t_address,t_bool)"
          },
          {
            "astId": 56,
            "contract": "contracts/auro/ViralataSwapToken.sol:ViralataSwapToken",
            "label": "adminRole",
            "offset": 0,
            "slot": "1",
            "type": "t_bytes32"
          }
        ],
        "numberOfBytes": "64"
      },
      "t_uint256": {
        "encoding": "inplace",
        "label": "uint256",
        "numberOfBytes": "32"
      }
    }
  }
}