{
  "address": "0xACe9D6c27FCf4013f3F7Ae8e8C1f58B0eefc9949",
  "abi": [
    {
      "inputs": [
        {
          "internalType": "address",
          "name": "_feeToSetter",
          "type": "address"
        }
      ],
      "stateMutability": "nonpayable",
      "type": "constructor"
    },
    {
      "anonymous": false,
      "inputs": [
        {
          "indexed": true,
          "internalType": "address",
          "name": "token0",
          "type": "address"
        },
        {
          "indexed": true,
          "internalType": "address",
          "name": "token1",
          "type": "address"
        },
        {
          "indexed": false,
          "internalType": "address",
          "name": "pair",
          "type": "address"
        },
        {
          "indexed": false,
          "internalType": "uint256",
          "name": "",
          "type": "uint256"
        }
      ],
      "name": "PairCreated",
      "type": "event"
    },
    {
      "inputs": [],
      "name": "INIT_CODE_PAIR_HASH",
      "outputs": [
        {
          "internalType": "bytes32",
          "name": "",
          "type": "bytes32"
        }
      ],
      "stateMutability": "view",
      "type": "function"
    },
    {
      "inputs": [
        {
          "internalType": "uint256",
          "name": "",
          "type": "uint256"
        }
      ],
      "name": "allPairs",
      "outputs": [
        {
          "internalType": "address",
          "name": "",
          "type": "address"
        }
      ],
      "stateMutability": "view",
      "type": "function"
    },
    {
      "inputs": [],
      "name": "allPairsLength",
      "outputs": [
        {
          "internalType": "uint256",
          "name": "",
          "type": "uint256"
        }
      ],
      "stateMutability": "view",
      "type": "function"
    },
    {
      "inputs": [
        {
          "internalType": "address",
          "name": "tokenA",
          "type": "address"
        },
        {
          "internalType": "address",
          "name": "tokenB",
          "type": "address"
        }
      ],
      "name": "createPair",
      "outputs": [
        {
          "internalType": "address",
          "name": "pair",
          "type": "address"
        }
      ],
      "stateMutability": "nonpayable",
      "type": "function"
    },
    {
      "inputs": [],
      "name": "feeTo",
      "outputs": [
        {
          "internalType": "address",
          "name": "",
          "type": "address"
        }
      ],
      "stateMutability": "view",
      "type": "function"
    },
    {
      "inputs": [],
      "name": "feeToSetter",
      "outputs": [
        {
          "internalType": "address",
          "name": "",
          "type": "address"
        }
      ],
      "stateMutability": "view",
      "type": "function"
    },
    {
      "inputs": [
        {
          "internalType": "address",
          "name": "",
          "type": "address"
        },
        {
          "internalType": "address",
          "name": "",
          "type": "address"
        }
      ],
      "name": "getPair",
      "outputs": [
        {
          "internalType": "address",
          "name": "",
          "type": "address"
        }
      ],
      "stateMutability": "view",
      "type": "function"
    },
    {
      "inputs": [],
      "name": "migrator",
      "outputs": [
        {
          "internalType": "address",
          "name": "",
          "type": "address"
        }
      ],
      "stateMutability": "view",
      "type": "function"
    },
    {
      "inputs": [
        {
          "internalType": "address",
          "name": "_feeTo",
          "type": "address"
        }
      ],
      "name": "setFeeTo",
      "outputs": [],
      "stateMutability": "nonpayable",
      "type": "function"
    },
    {
      "inputs": [
        {
          "internalType": "address",
          "name": "_feeToSetter",
          "type": "address"
        }
      ],
      "name": "setFeeToSetter",
      "outputs": [],
      "stateMutability": "nonpayable",
      "type": "function"
    },
    {
      "inputs": [
        {
          "internalType": "address",
          "name": "_migrator",
          "type": "address"
        }
      ],
      "name": "setMigrator",
      "outputs": [],
      "stateMutability": "nonpayable",
      "type": "function"
    }
  ],
  "transactionHash": "0x4308cd0a7c0e9d9863fd8be72df39fd57538135d07f9870032021baf3c5d1859",
  "args": [
    "0x8dCfDe0B1bF39451882f5cc958609c74Ef50A96c"
  ],
  "solcInputHash": "1de00fece74467d3671ecd5b74f035ca",
  "bytecode": "0x608060405234801561001057600080fd5b50604051612d25380380612d258339818101604052602081101561003357600080fd5b5051600180546001600160a01b0319166001600160a01b03909216919091179055612cc2806100636000396000f3fe608060405234801561001057600080fd5b50600436106100a95760003560e01c80635855a25a116100715780635855a25a146101395780637cd07e4714610141578063a2e74af614610149578063c9c653961461016f578063e6a439051461019d578063f46901ed146101cb576100a9565b8063017e7e58146100ae578063094b7415146100d25780631e3dd18b146100da57806323cf3118146100f7578063574f2ba31461011f575b600080fd5b6100b66101f1565b604080516001600160a01b039092168252519081900360200190f35b6100b6610200565b6100b6600480360360208110156100f057600080fd5b503561020f565b61011d6004803603602081101561010d57600080fd5b50356001600160a01b0316610236565b005b6101276102b1565b60408051918252519081900360200190f35b6101276102b7565b6100b661034a565b61011d6004803603602081101561015f57600080fd5b50356001600160a01b0316610359565b6100b66004803603604081101561018557600080fd5b506001600160a01b03813581169160200135166103d4565b6100b6600480360360408110156101b357600080fd5b506001600160a01b03813581169160200135166106f0565b61011d600480360360208110156101e157600080fd5b50356001600160a01b0316610716565b6000546001600160a01b031681565b6001546001600160a01b031681565b6004818154811061021c57fe5b6000918252602090912001546001600160a01b0316905081565b6001546001600160a01b0316331461028f576040805162461bcd60e51b81526020600482015260176024820152762b34b930b630ba30a9bbb0b81d102327a92124a22222a760491b604482015290519081900360640190fd5b600280546001600160a01b0319166001600160a01b0392909216919091179055565b60045490565b6040516102c660208201610791565b6020820181038252601f19601f820116604052506040516020018082805190602001908083835b6020831061030c5780518252601f1990920191602091820191016102ed565b6001836020036101000a0380198251168184511680821785525050505050509050019150506040516020818303038152906040528051906020012081565b6002546001600160a01b031681565b6001546001600160a01b031633146103b2576040805162461bcd60e51b81526020600482015260176024820152762b34b930b630ba30a9bbb0b81d102327a92124a22222a760491b604482015290519081900360640190fd5b600180546001600160a01b0319166001600160a01b0392909216919091179055565b6000816001600160a01b0316836001600160a01b031614156104275760405162461bcd60e51b8152600401808060200182810382526021815260200180612c6c6021913960400191505060405180910390fd5b600080836001600160a01b0316856001600160a01b03161061044a57838561044d565b84845b90925090506001600160a01b0382166104ad576040805162461bcd60e51b815260206004820152601a60248201527f566972616c617461537761703a205a45524f5f41444452455353000000000000604482015290519081900360640190fd5b6001600160a01b03828116600090815260036020908152604080832085851684529091529020541615610527576040805162461bcd60e51b815260206004820152601960248201527f566972616c617461537761703a20504149525f45584953545300000000000000604482015290519081900360640190fd5b60606040518060200161053990610791565b6020820181038252601f19601f8201166040525090506000838360405160200180836001600160a01b031660601b8152601401826001600160a01b031660601b815260140192505050604051602081830303815290604052805190602001209050808251602084016000f59450846001600160a01b031663485cc95585856040518363ffffffff1660e01b815260040180836001600160a01b03168152602001826001600160a01b0316815260200192505050600060405180830381600087803b15801561060657600080fd5b505af115801561061a573d6000803e3d6000fd5b505050506001600160a01b0384811660008181526003602081815260408084208987168086529083528185208054978d166001600160a01b031998891681179091559383528185208686528352818520805488168517905560048054600181018255958190527f8a35acfbc15ff81a39ae7d344fd709f28e8600b4aa8c65c6b64bfe7fe36bd19b90950180549097168417909655925483519283529082015281517f0d3648bd0f6ba80134a33ba9275ac585d9d315f0ad8355cddefde31afa28d0e9929181900390910190a35050505092915050565b60036020908152600092835260408084209091529082529020546001600160a01b031681565b6001546001600160a01b0316331461076f576040805162461bcd60e51b81526020600482015260176024820152762b34b930b630ba30a9bbb0b81d102327a92124a22222a760491b604482015290519081900360640190fd5b600080546001600160a01b0319166001600160a01b0392909216919091179055565b6124cd8061079f8339019056fe60806040526001600c5534801561001557600080fd5b50604080518082018252601581527f566972616c61746153776170204c5020546f6b656e00000000000000000000006020918201528151808301835260018152603160f81b9082015281517f8b73c3c69bb8fe3d512ecc4cf759cc79239f7b179b0ffacaa9a75d522b39400f818301527f74395e1e6331e722a2daafb6a053df80b7ff71036f1a18db088bab1d965fe5db818401527fc89efdaa54c0f20c7adf612882df0950f5a951637e0307cdcb4c672f298b8bc660608201524660808201523060a0808301919091528351808303909101815260c09091019092528151910120600355600580546001600160a01b031916331790556123b28061011b6000396000f3fe608060405234801561001057600080fd5b50600436106101a95760003560e01c80636a627842116100f9578063ba9a7a5611610097578063d21220a711610071578063d21220a714610534578063d505accf1461053c578063dd62ed3e1461058d578063fff6cae9146105bb576101a9565b8063ba9a7a56146104fe578063bc25cf7714610506578063c45a01551461052c576101a9565b80637ecebe00116100d35780637ecebe001461046557806389afcb441461048b57806395d89b41146104ca578063a9059cbb146104d2576101a9565b80636a6278421461041157806370a08231146104375780637464fc3d1461045d576101a9565b806323b872dd116101665780633644e515116101405780633644e515146103cb578063485cc955146103d35780635909c0d5146104015780635a3d549314610409576101a9565b806323b872dd1461036f57806330adf81f146103a5578063313ce567146103ad576101a9565b8063022c0d9f146101ae57806306fdde031461023c5780630902f1ac146102b9578063095ea7b3146102f15780630dfe16811461033157806318160ddd14610355575b600080fd5b61023a600480360360808110156101c457600080fd5b8135916020810135916001600160a01b0360408301351691908101906080810160608201356401000000008111156101fb57600080fd5b82018360208201111561020d57600080fd5b8035906020019184600183028401116401000000008311171561022f57600080fd5b5090925090506105c3565b005b610244610ada565b6040805160208082528351818301528351919283929083019185019080838360005b8381101561027e578181015183820152602001610266565b50505050905090810190601f1680156102ab5780820380516001836020036101000a031916815260200191505b509250505060405180910390f35b6102c1610b0b565b604080516001600160701b03948516815292909316602083015263ffffffff168183015290519081900360600190f35b61031d6004803603604081101561030757600080fd5b506001600160a01b038135169060200135610b35565b604080519115158252519081900360200190f35b610339610b4c565b604080516001600160a01b039092168252519081900360200190f35b61035d610b5b565b60408051918252519081900360200190f35b61031d6004803603606081101561038557600080fd5b506001600160a01b03813581169160208101359091169060400135610b61565b61035d610bf5565b6103b5610c19565b6040805160ff9092168252519081900360200190f35b61035d610c1e565b61023a600480360360408110156103e957600080fd5b506001600160a01b0381358116916020013516610c24565b61035d610cb1565b61035d610cb7565b61035d6004803603602081101561042757600080fd5b50356001600160a01b0316610cbd565b61035d6004803603602081101561044d57600080fd5b50356001600160a01b031661113c565b61035d61114e565b61035d6004803603602081101561047b57600080fd5b50356001600160a01b0316611154565b6104b1600480360360208110156104a157600080fd5b50356001600160a01b0316611166565b6040805192835260208301919091528051918290030190f35b6102446114fd565b61031d600480360360408110156104e857600080fd5b506001600160a01b03813516906020013561151c565b61035d611529565b61023a6004803603602081101561051c57600080fd5b50356001600160a01b031661152f565b6103396116a4565b6103396116b3565b61023a600480360360e081101561055257600080fd5b506001600160a01b03813581169160208101359091169060408101359060608101359060ff6080820135169060a08101359060c001356116c2565b61035d600480360360408110156105a357600080fd5b506001600160a01b03813581169160200135166118c7565b61023a6118e4565b600c54600114610611576040805162461bcd60e51b8152602060048201526014602482015273159a5c985b185d1854ddd85c0e881313d0d2d15160621b604482015290519081900360640190fd5b6000600c55841515806106245750600084115b61065f5760405162461bcd60e51b81526004018080602001828103825260288152602001806122df6028913960400191505060405180910390fd5b60008061066a610b0b565b5091509150816001600160701b03168710801561068f5750806001600160701b031686105b6106ca5760405162461bcd60e51b81526004018080602001828103825260248152602001806123596024913960400191505060405180910390fd5b60065460075460009182916001600160a01b039182169190811690891682148015906107085750806001600160a01b0316896001600160a01b031614155b610759576040805162461bcd60e51b815260206004820152601860248201527f566972616c617461537761703a20494e56414c49445f544f0000000000000000604482015290519081900360640190fd5b8a1561076a5761076a828a8d611a49565b891561077b5761077b818a8c611a49565b861561082d57886001600160a01b03166310d1e85c338d8d8c8c6040518663ffffffff1660e01b815260040180866001600160a01b03168152602001858152602001848152602001806020018281038252848482818152602001925080828437600081840152601f19601f8201169050808301925050509650505050505050600060405180830381600087803b15801561081457600080fd5b505af1158015610828573d6000803e3d6000fd5b505050505b604080516370a0823160e01b815230600482015290516001600160a01b038416916370a08231916024808301926020929190829003018186803b15801561087357600080fd5b505afa158015610887573d6000803e3d6000fd5b505050506040513d602081101561089d57600080fd5b5051604080516370a0823160e01b815230600482015290519195506001600160a01b038316916370a0823191602480820192602092909190829003018186803b1580156108e957600080fd5b505afa1580156108fd573d6000803e3d6000fd5b505050506040513d602081101561091357600080fd5b5051925060009150506001600160701b0385168a90038311610936576000610945565b89856001600160701b03160383035b9050600089856001600160701b0316038311610962576000610971565b89856001600160701b03160383035b905060008211806109825750600081115b6109bd5760405162461bcd60e51b81526004018080602001828103825260278152602001806123326027913960400191505060405180910390fd5b60006109df6109cd846019611be3565b6109d987612710611be3565b90611c46565b905060006109f16109cd846019611be3565b9050610a176305f5e100610a116001600160701b038b8116908b16611be3565b90611be3565b610a218383611be3565b1015610a66576040805162461bcd60e51b815260206004820152600f60248201526e566972616c617461537761703a204b60881b604482015290519081900360640190fd5b5050610a7484848888611c96565b60408051838152602081018390528082018d9052606081018c905290516001600160a01b038b169133917fd78ad95fa46c994b6551d0da85fc275fe613ce37657fb8d5e3d130840159d8229181900360800190a350506001600c55505050505050505050565b604051806040016040528060158152602001742b34b930b630ba30a9bbb0b8102628102a37b5b2b760591b81525081565b6008546001600160701b0380821692600160701b830490911691600160e01b900463ffffffff1690565b6000610b42338484611e58565b5060015b92915050565b6006546001600160a01b031681565b60005481565b6001600160a01b038316600090815260026020908152604080832033845290915281205460001914610be0576001600160a01b0384166000908152600260209081526040808320338452909152902054610bbb9083611c46565b6001600160a01b03851660009081526002602090815260408083203384529091529020555b610beb848484611eba565b5060019392505050565b7f6e71edae12b1b97f4d1f60370fef10105fa2faae0126114a169c64845d6126c981565b601281565b60035481565b6005546001600160a01b03163314610c83576040805162461bcd60e51b815260206004820152601760248201527f566972616c617461537761703a20464f5242494444454e000000000000000000604482015290519081900360640190fd5b600680546001600160a01b039384166001600160a01b03199182161790915560078054929093169116179055565b60095481565b600a5481565b6000600c54600114610d0d576040805162461bcd60e51b8152602060048201526014602482015273159a5c985b185d1854ddd85c0e881313d0d2d15160621b604482015290519081900360640190fd5b6000600c81905580610d1d610b0b565b50600654604080516370a0823160e01b815230600482015290519395509193506000926001600160a01b03909116916370a08231916024808301926020929190829003018186803b158015610d7157600080fd5b505afa158015610d85573d6000803e3d6000fd5b505050506040513d6020811015610d9b57600080fd5b5051600754604080516370a0823160e01b815230600482015290519293506000926001600160a01b03909216916370a0823191602480820192602092909190829003018186803b158015610dee57600080fd5b505afa158015610e02573d6000803e3d6000fd5b505050506040513d6020811015610e1857600080fd5b505190506000610e31836001600160701b038716611c46565b90506000610e48836001600160701b038716611c46565b90506000610e568787611f68565b6000549091508061102d5760055460408051637cd07e4760e01b815290516000926001600160a01b031691637cd07e47916004808301926020929190829003018186803b158015610ea657600080fd5b505afa158015610eba573d6000803e3d6000fd5b505050506040513d6020811015610ed057600080fd5b50519050336001600160a01b0382161415610fab57806001600160a01b03166340dc0e376040518163ffffffff1660e01b815260040160206040518083038186803b158015610f1e57600080fd5b505afa158015610f32573d6000803e3d6000fd5b505050506040513d6020811015610f4857600080fd5b505199508915801590610f5d57506000198a14155b610fa6576040805162461bcd60e51b81526020600482015260156024820152744261642064657369726564206c697175696469747960581b604482015290519081900360640190fd5b611027565b6001600160a01b03811615611000576040805162461bcd60e51b815260206004820152601660248201527526bab9ba103737ba103430bb329036b4b3b930ba37b960511b604482015290519081900360640190fd5b6110186103e86109d96110138888611be3565b6120a7565b995061102760006103e86120f9565b50611070565b61106d6001600160701b0389166110448684611be3565b8161104b57fe5b046001600160701b0389166110608685611be3565b8161106757fe5b04612183565b98505b600089116110af5760405162461bcd60e51b815260040180806020018281038252602b815260200180612307602b913960400191505060405180910390fd5b6110b98a8a6120f9565b6110c586868a8a611c96565b81156110ef576008546110eb906001600160701b0380821691600160701b900416611be3565b600b555b6040805185815260208101859052815133927f4c209b5fc8ad50758f13e2e1088ba56a560dff690a1c6fef26394f4c03821c4f928290030190a250506001600c5550949695505050505050565b60016020526000908152604090205481565b600b5481565b60046020526000908152604090205481565b600080600c546001146111b7576040805162461bcd60e51b8152602060048201526014602482015273159a5c985b185d1854ddd85c0e881313d0d2d15160621b604482015290519081900360640190fd5b6000600c819055806111c7610b0b565b50600654600754604080516370a0823160e01b815230600482015290519496509294506001600160a01b039182169391169160009184916370a08231916024808301926020929190829003018186803b15801561122357600080fd5b505afa158015611237573d6000803e3d6000fd5b505050506040513d602081101561124d57600080fd5b5051604080516370a0823160e01b815230600482015290519192506000916001600160a01b038516916370a08231916024808301926020929190829003018186803b15801561129b57600080fd5b505afa1580156112af573d6000803e3d6000fd5b505050506040513d60208110156112c557600080fd5b5051306000908152600160205260408120549192506112e48888611f68565b600054909150806112f58487611be3565b816112fc57fe5b049a508061130a8486611be3565b8161131157fe5b04995060008b118015611324575060008a115b61135f5760405162461bcd60e51b815260040180806020018281038252602b8152602001806122b4602b913960400191505060405180910390fd5b611369308461219b565b611374878d8d611a49565b61137f868d8c611a49565b604080516370a0823160e01b815230600482015290516001600160a01b038916916370a08231916024808301926020929190829003018186803b1580156113c557600080fd5b505afa1580156113d9573d6000803e3d6000fd5b505050506040513d60208110156113ef57600080fd5b5051604080516370a0823160e01b815230600482015290519196506001600160a01b038816916370a0823191602480820192602092909190829003018186803b15801561143b57600080fd5b505afa15801561144f573d6000803e3d6000fd5b505050506040513d602081101561146557600080fd5b5051935061147585858b8b611c96565b811561149f5760085461149b906001600160701b0380821691600160701b900416611be3565b600b555b604080518c8152602081018c905281516001600160a01b038f169233927fdccd412f0b1252819cb1fd330b93224ca42612892bb3f4f789976e6d81936496929081900390910190a35050505050505050506001600c81905550915091565b604051806040016040528060038152602001620564c560ec1b81525081565b6000610b42338484611eba565b6103e881565b600c5460011461157d576040805162461bcd60e51b8152602060048201526014602482015273159a5c985b185d1854ddd85c0e881313d0d2d15160621b604482015290519081900360640190fd5b6000600c55600654600754600854604080516370a0823160e01b815230600482015290516001600160a01b0394851694909316926116269285928792611621926001600160701b03169185916370a0823191602480820192602092909190829003018186803b1580156115ef57600080fd5b505afa158015611603573d6000803e3d6000fd5b505050506040513d602081101561161957600080fd5b505190611c46565b611a49565b61169a81846116216008600e9054906101000a90046001600160701b03166001600160701b0316856001600160a01b03166370a08231306040518263ffffffff1660e01b815260040180826001600160a01b0316815260200191505060206040518083038186803b1580156115ef57600080fd5b50506001600c5550565b6005546001600160a01b031681565b6007546001600160a01b031681565b4284101561170f576040805162461bcd60e51b8152602060048201526015602482015274159a5c985b185d1854ddd85c0e8811561412549151605a1b604482015290519081900360640190fd5b6003546001600160a01b0380891660008181526004602090815260408083208054600180820190925582517f6e71edae12b1b97f4d1f60370fef10105fa2faae0126114a169c64845d6126c98186015280840196909652958d166060860152608085018c905260a085019590955260c08085018b90528151808603909101815260e08501825280519083012061190160f01b6101008601526101028501969096526101228085019690965280518085039096018652610142840180825286519683019690962095839052610162840180825286905260ff89166101828501526101a284018890526101c28401879052519193926101e280820193601f1981019281900390910190855afa15801561182a573d6000803e3d6000fd5b5050604051601f1901519150506001600160a01b038116158015906118605750886001600160a01b0316816001600160a01b0316145b6118b1576040805162461bcd60e51b815260206004820152601f60248201527f566972616c617461537761703a20494e56414c49445f5349474e415455524500604482015290519081900360640190fd5b6118bc898989611e58565b505050505050505050565b600260209081526000928352604080842090915290825290205481565b600c54600114611932576040805162461bcd60e51b8152602060048201526014602482015273159a5c985b185d1854ddd85c0e881313d0d2d15160621b604482015290519081900360640190fd5b6000600c55600654604080516370a0823160e01b81523060048201529051611a42926001600160a01b0316916370a08231916024808301926020929190829003018186803b15801561198357600080fd5b505afa158015611997573d6000803e3d6000fd5b505050506040513d60208110156119ad57600080fd5b5051600754604080516370a0823160e01b815230600482015290516001600160a01b03909216916370a0823191602480820192602092909190829003018186803b1580156119fa57600080fd5b505afa158015611a0e573d6000803e3d6000fd5b505050506040513d6020811015611a2457600080fd5b50516008546001600160701b0380821691600160701b900416611c96565b6001600c55565b604080518082018252601981527f7472616e7366657228616464726573732c75696e74323536290000000000000060209182015281516001600160a01b0385811660248301526044808301869052845180840390910181526064909201845291810180516001600160e01b031663a9059cbb60e01b1781529251815160009460609489169392918291908083835b60208310611af65780518252601f199092019160209182019101611ad7565b6001836020036101000a0380198251168184511680821785525050505050509050019150506000604051808303816000865af19150503d8060008114611b58576040519150601f19603f3d011682016040523d82523d6000602084013e611b5d565b606091505b5091509150818015611b8b575080511580611b8b5750808060200190516020811015611b8857600080fd5b50515b611bdc576040805162461bcd60e51b815260206004820152601d60248201527f566972616c617461537761703a205452414e534645525f4641494c4544000000604482015290519081900360640190fd5b5050505050565b6000811580611bfe57505080820282828281611bfb57fe5b04145b610b46576040805162461bcd60e51b815260206004820152601460248201527364732d6d6174682d6d756c2d6f766572666c6f7760601b604482015290519081900360640190fd5b80820382811115610b46576040805162461bcd60e51b815260206004820152601560248201527464732d6d6174682d7375622d756e646572666c6f7760581b604482015290519081900360640190fd5b6001600160701b038411801590611cb457506001600160701b038311155b611cfe576040805162461bcd60e51b8152602060048201526016602482015275566972616c617461537761703a204f564552464c4f5760501b604482015290519081900360640190fd5b60085463ffffffff42811691600160e01b90048116820390811615801590611d2e57506001600160701b03841615155b8015611d4257506001600160701b03831615155b15611dad578063ffffffff16611d6a85611d5b8661222d565b6001600160e01b03169061223f565b600980546001600160e01b03929092169290920201905563ffffffff8116611d9584611d5b8761222d565b600a80546001600160e01b0392909216929092020190555b600880546dffffffffffffffffffffffffffff19166001600160701b03888116919091176dffffffffffffffffffffffffffff60701b1916600160701b8883168102919091176001600160e01b0316600160e01b63ffffffff871602179283905560408051848416815291909304909116602082015281517f1c411e9a96e071241c2f21f7726b17ae89e3cab4c78be50e062b03a9fffbbad1929181900390910190a1505050505050565b6001600160a01b03808416600081815260026020908152604080832094871680845294825291829020859055815185815291517f8c5be1e5ebec7d5bd14f71427d1e84f3dd0314c0f7b2291e5b200ac8c7c3b9259281900390910190a3505050565b6001600160a01b038316600090815260016020526040902054611edd9082611c46565b6001600160a01b038085166000908152600160205260408082209390935590841681522054611f0c9082612264565b6001600160a01b0380841660008181526001602090815260409182902094909455805185815290519193928716927fddf252ad1be2c89b69c2b068fc378daa952ba7f163c4a11628f55a4df523b3ef92918290030190a3505050565b600080600560009054906101000a90046001600160a01b03166001600160a01b031663017e7e586040518163ffffffff1660e01b815260040160206040518083038186803b158015611fb957600080fd5b505afa158015611fcd573d6000803e3d6000fd5b505050506040513d6020811015611fe357600080fd5b5051600b546001600160a01b03821615801594509192509061209357801561208e5760006120206110136001600160701b03888116908816611be3565b9050600061202d836120a7565b90508082111561208b57600061204f6120468484611c46565b60005490611be3565b90506000612067836120618684611be3565b90612264565b9050600081838161207457fe5b04905080156120875761208787826120f9565b5050505b50505b61209f565b801561209f576000600b555b505092915050565b600060038211156120ea575080600160028204015b818110156120e4578091506002818285816120d357fe5b0401816120dc57fe5b0490506120bc565b506120f4565b81156120f4575060015b919050565b6000546121069082612264565b60009081556001600160a01b03831681526001602052604090205461212b9082612264565b6001600160a01b03831660008181526001602090815260408083209490945583518581529351929391927fddf252ad1be2c89b69c2b068fc378daa952ba7f163c4a11628f55a4df523b3ef9281900390910190a35050565b60008183106121925781612194565b825b9392505050565b6001600160a01b0382166000908152600160205260409020546121be9082611c46565b6001600160a01b038316600090815260016020526040812091909155546121e59082611c46565b60009081556040805183815290516001600160a01b038516917fddf252ad1be2c89b69c2b068fc378daa952ba7f163c4a11628f55a4df523b3ef919081900360200190a35050565b6001600160701b0316600160701b0290565b60006001600160701b0382166001600160e01b0384168161225c57fe5b049392505050565b80820182811015610b46576040805162461bcd60e51b815260206004820152601460248201527364732d6d6174682d6164642d6f766572666c6f7760601b604482015290519081900360640190fdfe566972616c617461537761703a20494e53554646494349454e545f4c49515549444954595f4255524e4544566972616c617461537761703a20494e53554646494349454e545f4f55545055545f414d4f554e54566972616c617461537761703a20494e53554646494349454e545f4c49515549444954595f4d494e544544566972616c617461537761703a20494e53554646494349454e545f494e5055545f414d4f554e54566972616c617461537761703a20494e53554646494349454e545f4c4951554944495459a2646970667358221220761059e9fa375e0866a0c24e08cf7fdd824e6cf347ddcfbba309c54a39b769f964736f6c634300060c0033566972616c617461537761703a204944454e544943414c5f414444524553534553a2646970667358221220c7a2273fbdf3afd65f2a364137823dcc350e12d762a6f8e317399120c33e627464736f6c634300060c0033",
  "devdoc": {
    "kind": "dev",
    "methods": {},
    "version": 1
  },
  "userdoc": {
    "kind": "user",
    "methods": {},
    "version": 1
  },
  "storageLayout": {
    "storage": [
      {
        "astId": 408,
        "contract": "contracts/uniswapv2/ViralataFactory.sol:ViralataFactory",
        "label": "feeTo",
        "offset": 0,
        "slot": "0",
        "type": "t_address"
      },
      {
        "astId": 411,
        "contract": "contracts/uniswapv2/ViralataFactory.sol:ViralataFactory",
        "label": "feeToSetter",
        "offset": 0,
        "slot": "1",
        "type": "t_address"
      },
      {
        "astId": 414,
        "contract": "contracts/uniswapv2/ViralataFactory.sol:ViralataFactory",
        "label": "migrator",
        "offset": 0,
        "slot": "2",
        "type": "t_address"
      },
      {
        "astId": 421,
        "contract": "contracts/uniswapv2/ViralataFactory.sol:ViralataFactory",
        "label": "getPair",
        "offset": 0,
        "slot": "3",
        "type": "t_mapping(t_address,t_mapping(t_address,t_address))"
      },
      {
        "astId": 425,
        "contract": "contracts/uniswapv2/ViralataFactory.sol:ViralataFactory",
        "label": "allPairs",
        "offset": 0,
        "slot": "4",
        "type": "t_array(t_address)dyn_storage"
      }
    ],
    "types": {
      "t_address": {
        "encoding": "inplace",
        "label": "address",
        "numberOfBytes": "20"
      },
      "t_array(t_address)dyn_storage": {
        "base": "t_address",
        "encoding": "dynamic_array",
        "label": "address[]",
        "numberOfBytes": "32"
      },
      "t_mapping(t_address,t_address)": {
        "encoding": "mapping",
        "key": "t_address",
        "label": "mapping(address => address)",
        "numberOfBytes": "32",
        "value": "t_address"
      },
      "t_mapping(t_address,t_mapping(t_address,t_address))": {
        "encoding": "mapping",
        "key": "t_address",
        "label": "mapping(address => mapping(address => address))",
        "numberOfBytes": "32",
        "value": "t_mapping(t_address,t_address)"
      }
    }
  }
}