{
  "address": "0xEaa844Ab80EE950115f8Ab272a1B10F5B49B95D3",
  "abi": [
    {
      "inputs": [
        {
          "internalType": "address",
          "name": "_feeToSetter",
          "type": "address"
        }
      ],
      "stateMutability": "nonpayable",
      "type": "constructor"
    },
    {
      "anonymous": false,
      "inputs": [
        {
          "indexed": true,
          "internalType": "address",
          "name": "token0",
          "type": "address"
        },
        {
          "indexed": true,
          "internalType": "address",
          "name": "token1",
          "type": "address"
        },
        {
          "indexed": false,
          "internalType": "address",
          "name": "pair",
          "type": "address"
        },
        {
          "indexed": false,
          "internalType": "uint256",
          "name": "",
          "type": "uint256"
        }
      ],
      "name": "PairCreated",
      "type": "event"
    },
    {
      "inputs": [],
      "name": "INIT_CODE_PAIR_HASH",
      "outputs": [
        {
          "internalType": "bytes32",
          "name": "",
          "type": "bytes32"
        }
      ],
      "stateMutability": "view",
      "type": "function"
    },
    {
      "inputs": [
        {
          "internalType": "uint256",
          "name": "",
          "type": "uint256"
        }
      ],
      "name": "allPairs",
      "outputs": [
        {
          "internalType": "address",
          "name": "",
          "type": "address"
        }
      ],
      "stateMutability": "view",
      "type": "function"
    },
    {
      "inputs": [],
      "name": "allPairsLength",
      "outputs": [
        {
          "internalType": "uint256",
          "name": "",
          "type": "uint256"
        }
      ],
      "stateMutability": "view",
      "type": "function"
    },
    {
      "inputs": [
        {
          "internalType": "address",
          "name": "tokenA",
          "type": "address"
        },
        {
          "internalType": "address",
          "name": "tokenB",
          "type": "address"
        }
      ],
      "name": "createPair",
      "outputs": [
        {
          "internalType": "address",
          "name": "pair",
          "type": "address"
        }
      ],
      "stateMutability": "nonpayable",
      "type": "function"
    },
    {
      "inputs": [
        {
          "internalType": "address",
          "name": "pairAddress",
          "type": "address"
        }
      ],
      "name": "disableMetaTxnsPair",
      "outputs": [],
      "stateMutability": "nonpayable",
      "type": "function"
    },
    {
      "inputs": [
        {
          "internalType": "address",
          "name": "pairAddress",
          "type": "address"
        }
      ],
      "name": "enableMetaTxnsPair",
      "outputs": [],
      "stateMutability": "nonpayable",
      "type": "function"
    },
    {
      "inputs": [],
      "name": "feeTo",
      "outputs": [
        {
          "internalType": "address",
          "name": "",
          "type": "address"
        }
      ],
      "stateMutability": "view",
      "type": "function"
    },
    {
      "inputs": [],
      "name": "feeToSetter",
      "outputs": [
        {
          "internalType": "address",
          "name": "",
          "type": "address"
        }
      ],
      "stateMutability": "view",
      "type": "function"
    },
    {
      "inputs": [
        {
          "internalType": "address",
          "name": "",
          "type": "address"
        },
        {
          "internalType": "address",
          "name": "",
          "type": "address"
        }
      ],
      "name": "getPair",
      "outputs": [
        {
          "internalType": "address",
          "name": "",
          "type": "address"
        }
      ],
      "stateMutability": "view",
      "type": "function"
    },
    {
      "inputs": [],
      "name": "migrator",
      "outputs": [
        {
          "internalType": "address",
          "name": "",
          "type": "address"
        }
      ],
      "stateMutability": "view",
      "type": "function"
    },
    {
      "inputs": [
        {
          "internalType": "address",
          "name": "_feeTo",
          "type": "address"
        }
      ],
      "name": "setFeeTo",
      "outputs": [],
      "stateMutability": "nonpayable",
      "type": "function"
    },
    {
      "inputs": [
        {
          "internalType": "address",
          "name": "_feeToSetter",
          "type": "address"
        }
      ],
      "name": "setFeeToSetter",
      "outputs": [],
      "stateMutability": "nonpayable",
      "type": "function"
    },
    {
      "inputs": [
        {
          "internalType": "address",
          "name": "_migrator",
          "type": "address"
        }
      ],
      "name": "setMigrator",
      "outputs": [],
      "stateMutability": "nonpayable",
      "type": "function"
    }
  ],
  "transactionHash": "0x528beb5964f6b60e462cb76791fa6ef9f69b8ab9d183fcf2b78a14fe8583300a",
  "args": [
    "0x41887c3eC876040921be530d07aa72FCf6B4c05e"
  ],
  "solcInputHash": "e0254f75cd5965dcb701e205e9580498",
  "bytecode": "0x608060405234801561001057600080fd5b506040516144cd3803806144cd8339818101604052602081101561003357600080fd5b5051600180546001600160a01b0319166001600160a01b0390921691909117905561446a806100636000396000f3fe608060405234801561001057600080fd5b50600436106100df5760003560e01c80635e07d17b1161008c578063b0cb33fe11610066578063b0cb33fe146101ff578063c9c6539614610232578063e6a439051461026d578063f46901ed146102a8576100df565b80635e07d17b146101915780637cd07e47146101c4578063a2e74af6146101cc576100df565b806323cf3118116100bd57806323cf31181461013a578063574f2ba31461016f5780635855a25a14610189576100df565b8063017e7e58146100e4578063094b7415146101155780631e3dd18b1461011d575b600080fd5b6100ec6102db565b6040805173ffffffffffffffffffffffffffffffffffffffff9092168252519081900360200190f35b6100ec6102f7565b6100ec6004803603602081101561013357600080fd5b5035610313565b61016d6004803603602081101561015057600080fd5b503573ffffffffffffffffffffffffffffffffffffffff16610347565b005b610177610414565b60408051918252519081900360200190f35b61017761041a565b61016d600480360360208110156101a757600080fd5b503573ffffffffffffffffffffffffffffffffffffffff166104cb565b6100ec610704565b61016d600480360360208110156101e257600080fd5b503573ffffffffffffffffffffffffffffffffffffffff16610720565b61016d6004803603602081101561021557600080fd5b503573ffffffffffffffffffffffffffffffffffffffff166107ed565b6100ec6004803603604081101561024857600080fd5b5073ffffffffffffffffffffffffffffffffffffffff81358116916020013516610a09565b6100ec6004803603604081101561028357600080fd5b5073ffffffffffffffffffffffffffffffffffffffff81358116916020013516610e27565b61016d600480360360208110156102be57600080fd5b503573ffffffffffffffffffffffffffffffffffffffff16610e5a565b60005473ffffffffffffffffffffffffffffffffffffffff1681565b60015473ffffffffffffffffffffffffffffffffffffffff1681565b6004818154811061032057fe5b60009182526020909120015473ffffffffffffffffffffffffffffffffffffffff16905081565b60015473ffffffffffffffffffffffffffffffffffffffff1633146103cd57604080517f08c379a000000000000000000000000000000000000000000000000000000000815260206004820152601760248201527f566972616c617461537761703a20464f5242494444454e000000000000000000604482015290519081900360640190fd5b600280547fffffffffffffffffffffffff00000000000000000000000000000000000000001673ffffffffffffffffffffffffffffffffffffffff92909216919091179055565b60045490565b60405161042960208201610f27565b6020820181038252601f19601f820116604052506040516020018082805190602001908083835b6020831061048d57805182527fffffffffffffffffffffffffffffffffffffffffffffffffffffffffffffffe09092019160209182019101610450565b6001836020036101000a0380198251168184511680821785525050505050509050019150506040516020818303038152906040528051906020012081565b60015473ffffffffffffffffffffffffffffffffffffffff16331461055157604080517f08c379a000000000000000000000000000000000000000000000000000000000815260206004820152601760248201527f566972616c617461537761703a20464f5242494444454e000000000000000000604482015290519081900360640190fd5b73ffffffffffffffffffffffffffffffffffffffff81166105d357604080517f08c379a000000000000000000000000000000000000000000000000000000000815260206004820152601d60248201527f566972616c617461537761703a20504149525f4e4f545f455849535453000000604482015290519081900360640190fd5b60008190508073ffffffffffffffffffffffffffffffffffffffff1663a8c95dc06040518163ffffffff1660e01b815260040160206040518083038186803b15801561061e57600080fd5b505afa158015610632573d6000803e3d6000fd5b505050506040513d602081101561064857600080fd5b5051156106a0576040517f08c379a00000000000000000000000000000000000000000000000000000000081526004018080602001828103825260278152602001806143ed6027913960400191505060405180910390fd5b8073ffffffffffffffffffffffffffffffffffffffff1663578bb42d6040518163ffffffff1660e01b8152600401600060405180830381600087803b1580156106e857600080fd5b505af11580156106fc573d6000803e3d6000fd5b505050505050565b60025473ffffffffffffffffffffffffffffffffffffffff1681565b60015473ffffffffffffffffffffffffffffffffffffffff1633146107a657604080517f08c379a000000000000000000000000000000000000000000000000000000000815260206004820152601760248201527f566972616c617461537761703a20464f5242494444454e000000000000000000604482015290519081900360640190fd5b600180547fffffffffffffffffffffffff00000000000000000000000000000000000000001673ffffffffffffffffffffffffffffffffffffffff92909216919091179055565b60015473ffffffffffffffffffffffffffffffffffffffff16331461087357604080517f08c379a000000000000000000000000000000000000000000000000000000000815260206004820152601760248201527f566972616c617461537761703a20464f5242494444454e000000000000000000604482015290519081900360640190fd5b73ffffffffffffffffffffffffffffffffffffffff81166108f557604080517f08c379a000000000000000000000000000000000000000000000000000000000815260206004820152601d60248201527f566972616c617461537761703a20504149525f4e4f545f455849535453000000604482015290519081900360640190fd5b60008190508073ffffffffffffffffffffffffffffffffffffffff1663a8c95dc06040518163ffffffff1660e01b815260040160206040518083038186803b15801561094057600080fd5b505afa158015610954573d6000803e3d6000fd5b505050506040513d602081101561096a57600080fd5b50516109c1576040517f08c379a00000000000000000000000000000000000000000000000000000000081526004018080602001828103825260288152602001806143c56028913960400191505060405180910390fd5b8073ffffffffffffffffffffffffffffffffffffffff1663083836406040518163ffffffff1660e01b8152600401600060405180830381600087803b1580156106e857600080fd5b60008173ffffffffffffffffffffffffffffffffffffffff168373ffffffffffffffffffffffffffffffffffffffff161415610a90576040517f08c379a00000000000000000000000000000000000000000000000000000000081526004018080602001828103825260218152602001806144146021913960400191505060405180910390fd5b6000808373ffffffffffffffffffffffffffffffffffffffff168573ffffffffffffffffffffffffffffffffffffffff1610610acd578385610ad0565b84845b909250905073ffffffffffffffffffffffffffffffffffffffff8216610b5757604080517f08c379a000000000000000000000000000000000000000000000000000000000815260206004820152601a60248201527f566972616c617461537761703a205a45524f5f41444452455353000000000000604482015290519081900360640190fd5b73ffffffffffffffffffffffffffffffffffffffff828116600090815260036020908152604080832085851684529091529020541615610bf857604080517f08c379a000000000000000000000000000000000000000000000000000000000815260206004820152601960248201527f566972616c617461537761703a20504149525f45584953545300000000000000604482015290519081900360640190fd5b606060405180602001610c0a90610f27565b6020820181038252601f19601f82011660405250905060008383604051602001808373ffffffffffffffffffffffffffffffffffffffff1660601b81526014018273ffffffffffffffffffffffffffffffffffffffff1660601b815260140192505050604051602081830303815290604052805190602001209050808251602084016000f594508473ffffffffffffffffffffffffffffffffffffffff1663485cc95585856040518363ffffffff1660e01b8152600401808373ffffffffffffffffffffffffffffffffffffffff1681526020018273ffffffffffffffffffffffffffffffffffffffff16815260200192505050600060405180830381600087803b158015610d1857600080fd5b505af1158015610d2c573d6000803e3d6000fd5b5050505073ffffffffffffffffffffffffffffffffffffffff84811660008181526003602081815260408084208987168086529083528185208054978d167fffffffffffffffffffffffff000000000000000000000000000000000000000098891681179091559383528185208686528352818520805488168517905560048054600181018255958190527f8a35acfbc15ff81a39ae7d344fd709f28e8600b4aa8c65c6b64bfe7fe36bd19b90950180549097168417909655925483519283529082015281517f0d3648bd0f6ba80134a33ba9275ac585d9d315f0ad8355cddefde31afa28d0e9929181900390910190a35050505092915050565b600360209081526000928352604080842090915290825290205473ffffffffffffffffffffffffffffffffffffffff1681565b60015473ffffffffffffffffffffffffffffffffffffffff163314610ee057604080517f08c379a000000000000000000000000000000000000000000000000000000000815260206004820152601760248201527f566972616c617461537761703a20464f5242494444454e000000000000000000604482015290519081900360640190fd5b600080547fffffffffffffffffffffffff00000000000000000000000000000000000000001673ffffffffffffffffffffffffffffffffffffffff92909216919091179055565b61349080610f358339019056fe60806040526005805460ff60a01b191690556001600d5534801561002257600080fd5b50604080518082018252601581527f566972616c61746153776170204c5020546f6b656e00000000000000000000006020918201528151808301835260018152603160f81b9082015281517f8b73c3c69bb8fe3d512ecc4cf759cc79239f7b179b0ffacaa9a75d522b39400f818301527f74395e1e6331e722a2daafb6a053df80b7ff71036f1a18db088bab1d965fe5db818401527fc89efdaa54c0f20c7adf612882df0950f5a951637e0307cdcb4c672f298b8bc660608201524660808201523060a0808301919091528351808303909101815260c09091019092528151910120600355600680546001600160a01b03191633179055613368806101286000396000f3fe608060405234801561001057600080fd5b50600436106101e55760003560e01c80635a3d54931161010f578063a9059cbb116100a2578063d21220a711610071578063d21220a714610651578063d505accf14610659578063dd62ed3e146106b7578063fff6cae9146106f2576101e5565b8063a9059cbb146105d5578063ba9a7a561461060e578063bc25cf7714610616578063c45a015514610649576101e5565b80637ecebe00116100de5780637ecebe001461054657806389afcb441461057957806395d89b41146105c5578063a8c95dc0146105cd576101e5565b80635a3d5493146104d05780636a627842146104d857806370a082311461050b5780637464fc3d1461053e576101e5565b806323b872dd11610187578063485cc95511610156578063485cc95514610452578063572b6c051461048d578063578bb42d146104c05780635909c0d5146104c8576101e5565b806323b872dd146103e157806330adf81f14610424578063313ce5671461042c5780633644e5151461044a576101e5565b80630902f1ac116101c35780630902f1ac1461030a578063095ea7b3146103495780630dfe16811461039657806318160ddd146103c7576101e5565b8063022c0d9f146101ea57806306fdde03146102855780630838364014610302575b600080fd5b6102836004803603608081101561020057600080fd5b81359160208101359173ffffffffffffffffffffffffffffffffffffffff604083013516919081019060808101606082013564010000000081111561024457600080fd5b82018360208201111561025657600080fd5b8035906020019184600183028401116401000000008311171561027857600080fd5b5090925090506106fa565b005b61028d610db5565b6040805160208082528351818301528351919283929083019185019080838360005b838110156102c75781810151838201526020016102af565b50505050905090810190601f1680156102f45780820380516001836020036101000a031916815260200191505b509250505060405180910390f35b610283610dee565b610312610f78565b604080516dffffffffffffffffffffffffffff948516815292909316602083015263ffffffff168183015290519081900360600190f35b6103826004803603604081101561035f57600080fd5b5073ffffffffffffffffffffffffffffffffffffffff8135169060200135610fcd565b604080519115158252519081900360200190f35b61039e610feb565b6040805173ffffffffffffffffffffffffffffffffffffffff9092168252519081900360200190f35b6103cf611007565b60408051918252519081900360200190f35b610382600480360360608110156103f757600080fd5b5073ffffffffffffffffffffffffffffffffffffffff81358116916020810135909116906040013561100d565b6103cf611169565b61043461118d565b6040805160ff9092168252519081900360200190f35b6103cf611192565b6102836004803603604081101561046857600080fd5b5073ffffffffffffffffffffffffffffffffffffffff81358116916020013516611198565b610382600480360360208110156104a357600080fd5b503573ffffffffffffffffffffffffffffffffffffffff16611271565b6102836112c0565b6103cf611462565b6103cf611468565b6103cf600480360360208110156104ee57600080fd5b503573ffffffffffffffffffffffffffffffffffffffff1661146e565b6103cf6004803603602081101561052157600080fd5b503573ffffffffffffffffffffffffffffffffffffffff16611a92565b6103cf611aa4565b6103cf6004803603602081101561055c57600080fd5b503573ffffffffffffffffffffffffffffffffffffffff16611aaa565b6105ac6004803603602081101561058f57600080fd5b503573ffffffffffffffffffffffffffffffffffffffff16611abc565b6040805192835260208301919091528051918290030190f35b61028d611f66565b610382611f9f565b610382600480360360408110156105eb57600080fd5b5073ffffffffffffffffffffffffffffffffffffffff8135169060200135611fc0565b6103cf611fd4565b6102836004803603602081101561062c57600080fd5b503573ffffffffffffffffffffffffffffffffffffffff16611fda565b61039e6121c7565b61039e6121e3565b610283600480360360e081101561066f57600080fd5b5073ffffffffffffffffffffffffffffffffffffffff813581169160208101359091169060408101359060608101359060ff6080820135169060a08101359060c001356121ff565b6103cf600480360360408110156106cd57600080fd5b5073ffffffffffffffffffffffffffffffffffffffff813581169160200135166124cb565b6102836124e8565b600d5460011461076b57604080517f08c379a000000000000000000000000000000000000000000000000000000000815260206004820152601460248201527f566972616c617461537761703a204c4f434b4544000000000000000000000000604482015290519081900360640190fd5b6000600d558415158061077e5750600084115b6107d3576040517f08c379a00000000000000000000000000000000000000000000000000000000081526004018080602001828103825260288152602001806132956028913960400191505060405180910390fd5b6000806107de610f78565b5091509150816dffffffffffffffffffffffffffff16871080156108115750806dffffffffffffffffffffffffffff1686105b610866576040517f08c379a000000000000000000000000000000000000000000000000000000000815260040180806020018281038252602481526020018061330f6024913960400191505060405180910390fd5b600754600854600091829173ffffffffffffffffffffffffffffffffffffffff9182169190811690891682148015906108cb57508073ffffffffffffffffffffffffffffffffffffffff168973ffffffffffffffffffffffffffffffffffffffff1614155b61093657604080517f08c379a000000000000000000000000000000000000000000000000000000000815260206004820152601860248201527f566972616c617461537761703a20494e56414c49445f544f0000000000000000604482015290519081900360640190fd5b8a1561094757610947828a8d6126ce565b891561095857610958818a8c6126ce565b8615610a2b578873ffffffffffffffffffffffffffffffffffffffff166310d1e85c6109826128db565b8d8d8c8c6040518663ffffffff1660e01b8152600401808673ffffffffffffffffffffffffffffffffffffffff168152602001858152602001848152602001806020018281038252848482818152602001925080828437600081840152601f19601f8201169050808301925050509650505050505050600060405180830381600087803b158015610a1257600080fd5b505af1158015610a26573d6000803e3d6000fd5b505050505b604080517f70a08231000000000000000000000000000000000000000000000000000000008152306004820152905173ffffffffffffffffffffffffffffffffffffffff8416916370a08231916024808301926020929190829003018186803b158015610a9757600080fd5b505afa158015610aab573d6000803e3d6000fd5b505050506040513d6020811015610ac157600080fd5b5051604080517f70a08231000000000000000000000000000000000000000000000000000000008152306004820152905191955073ffffffffffffffffffffffffffffffffffffffff8316916370a0823191602480820192602092909190829003018186803b158015610b3357600080fd5b505afa158015610b47573d6000803e3d6000fd5b505050506040513d6020811015610b5d57600080fd5b5051925060009150506dffffffffffffffffffffffffffff85168a90038311610b87576000610b9d565b89856dffffffffffffffffffffffffffff160383035b9050600089856dffffffffffffffffffffffffffff16038311610bc1576000610bd7565b89856dffffffffffffffffffffffffffff160383035b90506000821180610be85750600081115b610c3d576040517f08c379a00000000000000000000000000000000000000000000000000000000081526004018080602001828103825260278152602001806132e86027913960400191505060405180910390fd5b6000610c5f610c4d84601961291e565b610c598761271061291e565b906129a4565b90506000610c71610c4d84601961291e565b9050610c9e6305f5e100610c986dffffffffffffffffffffffffffff8b8116908b1661291e565b9061291e565b610ca8838361291e565b1015610d1557604080517f08c379a000000000000000000000000000000000000000000000000000000000815260206004820152600f60248201527f566972616c617461537761703a204b0000000000000000000000000000000000604482015290519081900360640190fd5b5050610d2384848888612a16565b8873ffffffffffffffffffffffffffffffffffffffff16610d426128db565b60408051858152602081018590528082018f9052606081018e9052905173ffffffffffffffffffffffffffffffffffffffff92909216917fd78ad95fa46c994b6551d0da85fc275fe613ce37657fb8d5e3d130840159d8229181900360800190a350506001600d55505050505050505050565b6040518060400160405280601581526020017f566972616c61746153776170204c5020546f6b656e000000000000000000000081525081565b60065473ffffffffffffffffffffffffffffffffffffffff16610e0f6128db565b73ffffffffffffffffffffffffffffffffffffffff1614610e9157604080517f08c379a000000000000000000000000000000000000000000000000000000000815260206004820152601760248201527f566972616c617461537761703a20464f5242494444454e000000000000000000604482015290519081900360640190fd5b60055474010000000000000000000000000000000000000000900460ff16610f04576040517f08c379a000000000000000000000000000000000000000000000000000000000815260040180806020018281038252602881526020018061321b6028913960400191505060405180910390fd5b600580547fffffffffffffffffffffff00ffffffffffffffffffffffffffffffffffffffff169055610f346128db565b73ffffffffffffffffffffffffffffffffffffffff167f096be170ccc67847e55535e7d8334b2afedd95805baedc160005addb9144745060405160405180910390a2565b6009546dffffffffffffffffffffffffffff808216926e0100000000000000000000000000008304909116917c0100000000000000000000000000000000000000000000000000000000900463ffffffff1690565b6000610fe1610fda6128db565b8484612ccc565b5060015b92915050565b60075473ffffffffffffffffffffffffffffffffffffffff1681565b60005481565b73ffffffffffffffffffffffffffffffffffffffff831660009081526002602052604081207fffffffffffffffffffffffffffffffffffffffffffffffffffffffffffffffff908261105d6128db565b73ffffffffffffffffffffffffffffffffffffffff1673ffffffffffffffffffffffffffffffffffffffff16815260200190815260200160002054146111545773ffffffffffffffffffffffffffffffffffffffff841660009081526002602052604081206110fe918491906110d16128db565b73ffffffffffffffffffffffffffffffffffffffff168152602081019190915260400160002054906129a4565b73ffffffffffffffffffffffffffffffffffffffff851660009081526002602052604081209061112c6128db565b73ffffffffffffffffffffffffffffffffffffffff1681526020810191909152604001600020555b61115f848484612d3b565b5060019392505050565b7f6e71edae12b1b97f4d1f60370fef10105fa2faae0126114a169c64845d6126c981565b601281565b60035481565b60065473ffffffffffffffffffffffffffffffffffffffff16331461121e57604080517f08c379a000000000000000000000000000000000000000000000000000000000815260206004820152601760248201527f566972616c617461537761703a20464f5242494444454e000000000000000000604482015290519081900360640190fd5b6007805473ffffffffffffffffffffffffffffffffffffffff9384167fffffffffffffffffffffffff00000000000000000000000000000000000000009182161790915560088054929093169116179055565b60055460009074010000000000000000000000000000000000000000900460ff1680156112b8575060055473ffffffffffffffffffffffffffffffffffffffff8381169116145b90505b919050565b60065473ffffffffffffffffffffffffffffffffffffffff166112e16128db565b73ffffffffffffffffffffffffffffffffffffffff161461136357604080517f08c379a000000000000000000000000000000000000000000000000000000000815260206004820152601760248201527f566972616c617461537761703a20464f5242494444454e000000000000000000604482015290519081900360640190fd5b60055474010000000000000000000000000000000000000000900460ff16156113d7576040517f08c379a00000000000000000000000000000000000000000000000000000000081526004018080602001828103825260278152602001806132436027913960400191505060405180910390fd5b600580547fffffffffffffffffffffff00ffffffffffffffffffffffffffffffffffffffff167401000000000000000000000000000000000000000017905561141e6128db565b73ffffffffffffffffffffffffffffffffffffffff167f92e4c08d47b71e8dc051232b8e475ec296489a67a4ba5cca88ff20fb6ac499e660405160405180910390a2565b600a5481565b600b5481565b6000600d546001146114e157604080517f08c379a000000000000000000000000000000000000000000000000000000000815260206004820152601460248201527f566972616c617461537761703a204c4f434b4544000000000000000000000000604482015290519081900360640190fd5b6000600d819055806114f1610f78565b50600754604080517f70a08231000000000000000000000000000000000000000000000000000000008152306004820152905193955091935060009273ffffffffffffffffffffffffffffffffffffffff909116916370a08231916024808301926020929190829003018186803b15801561156b57600080fd5b505afa15801561157f573d6000803e3d6000fd5b505050506040513d602081101561159557600080fd5b5051600854604080517f70a08231000000000000000000000000000000000000000000000000000000008152306004820152905192935060009273ffffffffffffffffffffffffffffffffffffffff909216916370a0823191602480820192602092909190829003018186803b15801561160e57600080fd5b505afa158015611622573d6000803e3d6000fd5b505050506040513d602081101561163857600080fd5b505190506000611658836dffffffffffffffffffffffffffff87166129a4565b90506000611676836dffffffffffffffffffffffffffff87166129a4565b905060006116848787612e10565b6000549091508061192657600654604080517f7cd07e47000000000000000000000000000000000000000000000000000000008152905160009273ffffffffffffffffffffffffffffffffffffffff1691637cd07e47916004808301926020929190829003018186803b1580156116fa57600080fd5b505afa15801561170e573d6000803e3d6000fd5b505050506040513d602081101561172457600080fd5b5051905073ffffffffffffffffffffffffffffffffffffffff81166117476128db565b73ffffffffffffffffffffffffffffffffffffffff161415611876578073ffffffffffffffffffffffffffffffffffffffff166340dc0e376040518163ffffffff1660e01b815260040160206040518083038186803b1580156117a957600080fd5b505afa1580156117bd573d6000803e3d6000fd5b505050506040513d60208110156117d357600080fd5b50519950891580159061180657507fffffffffffffffffffffffffffffffffffffffffffffffffffffffffffffffff8a14155b61187157604080517f08c379a000000000000000000000000000000000000000000000000000000000815260206004820152601560248201527f4261642064657369726564206c69717569646974790000000000000000000000604482015290519081900360640190fd5b611920565b73ffffffffffffffffffffffffffffffffffffffff8116156118f957604080517f08c379a000000000000000000000000000000000000000000000000000000000815260206004820152601660248201527f4d757374206e6f742068617665206d69677261746f7200000000000000000000604482015290519081900360640190fd5b6119116103e8610c5961190c888861291e565b612f7d565b995061192060006103e8612fce565b50611977565b6119746dffffffffffffffffffffffffffff8916611944868461291e565b8161194b57fe5b046dffffffffffffffffffffffffffff8916611967868561291e565b8161196e57fe5b04613072565b98505b600089116119d0576040517f08c379a000000000000000000000000000000000000000000000000000000000815260040180806020018281038252602b8152602001806132bd602b913960400191505060405180910390fd5b6119da8a8a612fce565b6119e686868a8a612a16565b8115611a2257600954611a1e906dffffffffffffffffffffffffffff808216916e01000000000000000000000000000090041661291e565b600c555b611a2a6128db565b73ffffffffffffffffffffffffffffffffffffffff167f4c209b5fc8ad50758f13e2e1088ba56a560dff690a1c6fef26394f4c03821c4f8585604051808381526020018281526020019250505060405180910390a250506001600d5550949695505050505050565b60016020526000908152604090205481565b600c5481565b60046020526000908152604090205481565b600080600d54600114611b3057604080517f08c379a000000000000000000000000000000000000000000000000000000000815260206004820152601460248201527f566972616c617461537761703a204c4f434b4544000000000000000000000000604482015290519081900360640190fd5b6000600d81905580611b40610f78565b50600754600854604080517f70a08231000000000000000000000000000000000000000000000000000000008152306004820152905194965092945073ffffffffffffffffffffffffffffffffffffffff9182169391169160009184916370a08231916024808301926020929190829003018186803b158015611bc257600080fd5b505afa158015611bd6573d6000803e3d6000fd5b505050506040513d6020811015611bec57600080fd5b5051604080517f70a08231000000000000000000000000000000000000000000000000000000008152306004820152905191925060009173ffffffffffffffffffffffffffffffffffffffff8516916370a08231916024808301926020929190829003018186803b158015611c6057600080fd5b505afa158015611c74573d6000803e3d6000fd5b505050506040513d6020811015611c8a57600080fd5b505130600090815260016020526040812054919250611ca98888612e10565b60005490915080611cba848761291e565b81611cc157fe5b049a5080611ccf848661291e565b81611cd657fe5b04995060008b118015611ce9575060008a115b611d3e576040517f08c379a000000000000000000000000000000000000000000000000000000000815260040180806020018281038252602b81526020018061326a602b913960400191505060405180910390fd5b611d48308461308a565b611d53878d8d6126ce565b611d5e868d8c6126ce565b604080517f70a08231000000000000000000000000000000000000000000000000000000008152306004820152905173ffffffffffffffffffffffffffffffffffffffff8916916370a08231916024808301926020929190829003018186803b158015611dca57600080fd5b505afa158015611dde573d6000803e3d6000fd5b505050506040513d6020811015611df457600080fd5b5051604080517f70a08231000000000000000000000000000000000000000000000000000000008152306004820152905191965073ffffffffffffffffffffffffffffffffffffffff8816916370a0823191602480820192602092909190829003018186803b158015611e6657600080fd5b505afa158015611e7a573d6000803e3d6000fd5b505050506040513d6020811015611e9057600080fd5b50519350611ea085858b8b612a16565b8115611edc57600954611ed8906dffffffffffffffffffffffffffff808216916e01000000000000000000000000000090041661291e565b600c555b8b73ffffffffffffffffffffffffffffffffffffffff16611efb6128db565b73ffffffffffffffffffffffffffffffffffffffff167fdccd412f0b1252819cb1fd330b93224ca42612892bb3f4f789976e6d819364968d8d604051808381526020018281526020019250505060405180910390a35050505050505050506001600d81905550915091565b6040518060400160405280600381526020017f564c50000000000000000000000000000000000000000000000000000000000081525081565b60055474010000000000000000000000000000000000000000900460ff1681565b6000610fe1611fcd6128db565b8484612d3b565b6103e881565b600d5460011461204b57604080517f08c379a000000000000000000000000000000000000000000000000000000000815260206004820152601460248201527f566972616c617461537761703a204c4f434b4544000000000000000000000000604482015290519081900360640190fd5b6000600d55600754600854600954604080517f70a08231000000000000000000000000000000000000000000000000000000008152306004820152905173ffffffffffffffffffffffffffffffffffffffff9485169490931692612121928592879261211c926dffffffffffffffffffffffffffff169185916370a0823191602480820192602092909190829003018186803b1580156120ea57600080fd5b505afa1580156120fe573d6000803e3d6000fd5b505050506040513d602081101561211457600080fd5b5051906129a4565b6126ce565b6121bd818461211c6009600e9054906101000a90046dffffffffffffffffffffffffffff166dffffffffffffffffffffffffffff168573ffffffffffffffffffffffffffffffffffffffff166370a08231306040518263ffffffff1660e01b8152600401808273ffffffffffffffffffffffffffffffffffffffff16815260200191505060206040518083038186803b1580156120ea57600080fd5b50506001600d5550565b60065473ffffffffffffffffffffffffffffffffffffffff1681565b60085473ffffffffffffffffffffffffffffffffffffffff1681565b4284101561226e57604080517f08c379a000000000000000000000000000000000000000000000000000000000815260206004820152601560248201527f566972616c617461537761703a20455850495245440000000000000000000000604482015290519081900360640190fd5b60035473ffffffffffffffffffffffffffffffffffffffff80891660008181526004602090815260408083208054600180820190925582517f6e71edae12b1b97f4d1f60370fef10105fa2faae0126114a169c64845d6126c98186015280840196909652958d166060860152608085018c905260a085019590955260c08085018b90528151808603909101815260e0850182528051908301207f19010000000000000000000000000000000000000000000000000000000000006101008601526101028501969096526101228085019690965280518085039096018652610142840180825286519683019690962095839052610162840180825286905260ff89166101828501526101a284018890526101c28401879052519193926101e2808201937fffffffffffffffffffffffffffffffffffffffffffffffffffffffffffffffe081019281900390910190855afa1580156123cf573d6000803e3d6000fd5b50506040517fffffffffffffffffffffffffffffffffffffffffffffffffffffffffffffffe0015191505073ffffffffffffffffffffffffffffffffffffffff81161580159061244a57508873ffffffffffffffffffffffffffffffffffffffff168173ffffffffffffffffffffffffffffffffffffffff16145b6124b557604080517f08c379a000000000000000000000000000000000000000000000000000000000815260206004820152601f60248201527f566972616c617461537761703a20494e56414c49445f5349474e415455524500604482015290519081900360640190fd5b6124c0898989612ccc565b505050505050505050565b600260209081526000928352604080842090915290825290205481565b600d5460011461255957604080517f08c379a000000000000000000000000000000000000000000000000000000000815260206004820152601460248201527f566972616c617461537761703a204c4f434b4544000000000000000000000000604482015290519081900360640190fd5b6000600d55600754604080517f70a0823100000000000000000000000000000000000000000000000000000000815230600482015290516126c79273ffffffffffffffffffffffffffffffffffffffff16916370a08231916024808301926020929190829003018186803b1580156125d057600080fd5b505afa1580156125e4573d6000803e3d6000fd5b505050506040513d60208110156125fa57600080fd5b5051600854604080517f70a08231000000000000000000000000000000000000000000000000000000008152306004820152905173ffffffffffffffffffffffffffffffffffffffff909216916370a0823191602480820192602092909190829003018186803b15801561266d57600080fd5b505afa158015612681573d6000803e3d6000fd5b505050506040513d602081101561269757600080fd5b50516009546dffffffffffffffffffffffffffff808216916e010000000000000000000000000000900416612a16565b6001600d55565b604080518082018252601981527f7472616e7366657228616464726573732c75696e743235362900000000000000602091820152815173ffffffffffffffffffffffffffffffffffffffff85811660248301526044808301869052845180840390910181526064909201845291810180517bffffffffffffffffffffffffffffffffffffffffffffffffffffffff167fa9059cbb000000000000000000000000000000000000000000000000000000001781529251815160009460609489169392918291908083835b602083106127d457805182527fffffffffffffffffffffffffffffffffffffffffffffffffffffffffffffffe09092019160209182019101612797565b6001836020036101000a0380198251168184511680821785525050505050509050019150506000604051808303816000865af19150503d8060008114612836576040519150601f19603f3d011682016040523d82523d6000602084013e61283b565b606091505b5091509150818015612869575080511580612869575080806020019051602081101561286657600080fd5b50515b6128d457604080517f08c379a000000000000000000000000000000000000000000000000000000000815260206004820152601d60248201527f566972616c617461537761703a205452414e534645525f4641494c4544000000604482015290519081900360640190fd5b5050505050565b60006128e633611271565b1561291857507fffffffffffffffffffffffffffffffffffffffffffffffffffffffffffffffec36013560601c61291b565b50335b90565b60008115806129395750508082028282828161293657fe5b04145b610fe557604080517f08c379a000000000000000000000000000000000000000000000000000000000815260206004820152601460248201527f64732d6d6174682d6d756c2d6f766572666c6f77000000000000000000000000604482015290519081900360640190fd5b80820382811115610fe557604080517f08c379a000000000000000000000000000000000000000000000000000000000815260206004820152601560248201527f64732d6d6174682d7375622d756e646572666c6f770000000000000000000000604482015290519081900360640190fd5b6dffffffffffffffffffffffffffff8411801590612a4257506dffffffffffffffffffffffffffff8311155b612aad57604080517f08c379a000000000000000000000000000000000000000000000000000000000815260206004820152601660248201527f566972616c617461537761703a204f564552464c4f5700000000000000000000604482015290519081900360640190fd5b60095463ffffffff428116917c010000000000000000000000000000000000000000000000000000000090048116820390811615801590612afd57506dffffffffffffffffffffffffffff841615155b8015612b1857506dffffffffffffffffffffffffffff831615155b15612bc2578063ffffffff16612b5585612b3186613143565b7bffffffffffffffffffffffffffffffffffffffffffffffffffffffff1690613167565b600a80547bffffffffffffffffffffffffffffffffffffffffffffffffffffffff929092169290920201905563ffffffff8116612b9584612b3187613143565b600b80547bffffffffffffffffffffffffffffffffffffffffffffffffffffffff92909216929092020190555b600980547fffffffffffffffffffffffffffffffffffff0000000000000000000000000000166dffffffffffffffffffffffffffff888116919091177fffffffff0000000000000000000000000000ffffffffffffffffffffffffffff166e0100000000000000000000000000008883168102919091177bffffffffffffffffffffffffffffffffffffffffffffffffffffffff167c010000000000000000000000000000000000000000000000000000000063ffffffff871602179283905560408051848416815291909304909116602082015281517f1c411e9a96e071241c2f21f7726b17ae89e3cab4c78be50e062b03a9fffbbad1929181900390910190a1505050505050565b73ffffffffffffffffffffffffffffffffffffffff808416600081815260026020908152604080832094871680845294825291829020859055815185815291517f8c5be1e5ebec7d5bd14f71427d1e84f3dd0314c0f7b2291e5b200ac8c7c3b9259281900390910190a3505050565b73ffffffffffffffffffffffffffffffffffffffff8316600090815260016020526040902054612d6b90826129a4565b73ffffffffffffffffffffffffffffffffffffffff8085166000908152600160205260408082209390935590841681522054612da790826131a8565b73ffffffffffffffffffffffffffffffffffffffff80841660008181526001602090815260409182902094909455805185815290519193928716927fddf252ad1be2c89b69c2b068fc378daa952ba7f163c4a11628f55a4df523b3ef92918290030190a3505050565b600080600660009054906101000a900473ffffffffffffffffffffffffffffffffffffffff1673ffffffffffffffffffffffffffffffffffffffff1663017e7e586040518163ffffffff1660e01b815260040160206040518083038186803b158015612e7b57600080fd5b505afa158015612e8f573d6000803e3d6000fd5b505050506040513d6020811015612ea557600080fd5b5051600c5473ffffffffffffffffffffffffffffffffffffffff8216158015945091925090612f69578015612f64576000612ef661190c6dffffffffffffffffffffffffffff88811690881661291e565b90506000612f0383612f7d565b905080821115612f61576000612f25612f1c84846129a4565b6000549061291e565b90506000612f3d83612f37868461291e565b906131a8565b90506000818381612f4a57fe5b0490508015612f5d57612f5d8782612fce565b5050505b50505b612f75565b8015612f75576000600c555b505092915050565b60006003821115612fc0575080600160028204015b81811015612fba57809150600281828581612fa957fe5b040181612fb257fe5b049050612f92565b506112bb565b81156112bb57506001919050565b600054612fdb90826131a8565b600090815573ffffffffffffffffffffffffffffffffffffffff831681526001602052604090205461300d90826131a8565b73ffffffffffffffffffffffffffffffffffffffff831660008181526001602090815260408083209490945583518581529351929391927fddf252ad1be2c89b69c2b068fc378daa952ba7f163c4a11628f55a4df523b3ef9281900390910190a35050565b60008183106130815781613083565b825b9392505050565b73ffffffffffffffffffffffffffffffffffffffff82166000908152600160205260409020546130ba90826129a4565b73ffffffffffffffffffffffffffffffffffffffff8316600090815260016020526040812091909155546130ee90826129a4565b600090815560408051838152905173ffffffffffffffffffffffffffffffffffffffff8516917fddf252ad1be2c89b69c2b068fc378daa952ba7f163c4a11628f55a4df523b3ef919081900360200190a35050565b6dffffffffffffffffffffffffffff166e0100000000000000000000000000000290565b60006dffffffffffffffffffffffffffff82167bffffffffffffffffffffffffffffffffffffffffffffffffffffffff8416816131a057fe5b049392505050565b80820182811015610fe557604080517f08c379a000000000000000000000000000000000000000000000000000000000815260206004820152601460248201527f64732d6d6174682d6164642d6f766572666c6f77000000000000000000000000604482015290519081900360640190fdfe566972616c617461537761703a204d4554415f54584e535f414c52454144595f44495341424c4544566972616c617461537761703a204d4554415f54584e535f414c52454144595f454e41424c4544566972616c617461537761703a20494e53554646494349454e545f4c49515549444954595f4255524e4544566972616c617461537761703a20494e53554646494349454e545f4f55545055545f414d4f554e54566972616c617461537761703a20494e53554646494349454e545f4c49515549444954595f4d494e544544566972616c617461537761703a20494e53554646494349454e545f494e5055545f414d4f554e54566972616c617461537761703a20494e53554646494349454e545f4c4951554944495459a264697066735822122066c4ca35bfeae1e1a7ca97daecb05d4f456c6ad12e87d24f082a6035e45653a164736f6c634300060c0033566972616c617461537761703a204d4554415f54584e535f414c52454144595f44495341424c4544566972616c617461537761703a204d4554415f54584e535f414c52454144595f454e41424c4544566972616c617461537761703a204944454e544943414c5f414444524553534553a264697066735822122051515ce760dd4a6d618908a5d60b4953c12ff99d44cd071bc4336e9c0fb8d46164736f6c634300060c0033",
  "devdoc": {
    "kind": "dev",
    "methods": {},
    "version": 1
  },
  "userdoc": {
    "kind": "user",
    "methods": {},
    "version": 1
  },
  "storageLayout": {
    "storage": [
      {
        "astId": 477,
        "contract": "contracts/uniswapv2/ViralataFactory.sol:ViralataFactory",
        "label": "feeTo",
        "offset": 0,
        "slot": "0",
        "type": "t_address"
      },
      {
        "astId": 480,
        "contract": "contracts/uniswapv2/ViralataFactory.sol:ViralataFactory",
        "label": "feeToSetter",
        "offset": 0,
        "slot": "1",
        "type": "t_address"
      },
      {
        "astId": 483,
        "contract": "contracts/uniswapv2/ViralataFactory.sol:ViralataFactory",
        "label": "migrator",
        "offset": 0,
        "slot": "2",
        "type": "t_address"
      },
      {
        "astId": 490,
        "contract": "contracts/uniswapv2/ViralataFactory.sol:ViralataFactory",
        "label": "getPair",
        "offset": 0,
        "slot": "3",
        "type": "t_mapping(t_address,t_mapping(t_address,t_address))"
      },
      {
        "astId": 494,
        "contract": "contracts/uniswapv2/ViralataFactory.sol:ViralataFactory",
        "label": "allPairs",
        "offset": 0,
        "slot": "4",
        "type": "t_array(t_address)dyn_storage"
      }
    ],
    "types": {
      "t_address": {
        "encoding": "inplace",
        "label": "address",
        "numberOfBytes": "20"
      },
      "t_array(t_address)dyn_storage": {
        "base": "t_address",
        "encoding": "dynamic_array",
        "label": "address[]",
        "numberOfBytes": "32"
      },
      "t_mapping(t_address,t_address)": {
        "encoding": "mapping",
        "key": "t_address",
        "label": "mapping(address => address)",
        "numberOfBytes": "32",
        "value": "t_address"
      },
      "t_mapping(t_address,t_mapping(t_address,t_address))": {
        "encoding": "mapping",
        "key": "t_address",
        "label": "mapping(address => mapping(address => address))",
        "numberOfBytes": "32",
        "value": "t_mapping(t_address,t_address)"
      }
    }
  }
}