{
  "address": "0xAc4DFFd3392b38a4f05EE00e5805225bC451eA01",
  "abi": [
    {
      "inputs": [
        {
          "internalType": "address",
          "name": "_feeToSetter",
          "type": "address"
        }
      ],
      "stateMutability": "nonpayable",
      "type": "constructor"
    },
    {
      "anonymous": false,
      "inputs": [
        {
          "indexed": true,
          "internalType": "address",
          "name": "token0",
          "type": "address"
        },
        {
          "indexed": true,
          "internalType": "address",
          "name": "token1",
          "type": "address"
        },
        {
          "indexed": false,
          "internalType": "address",
          "name": "pair",
          "type": "address"
        },
        {
          "indexed": false,
          "internalType": "uint256",
          "name": "",
          "type": "uint256"
        }
      ],
      "name": "PairCreated",
      "type": "event"
    },
    {
      "inputs": [],
      "name": "INIT_CODE_PAIR_HASH",
      "outputs": [
        {
          "internalType": "bytes32",
          "name": "",
          "type": "bytes32"
        }
      ],
      "stateMutability": "view",
      "type": "function"
    },
    {
      "inputs": [
        {
          "internalType": "uint256",
          "name": "",
          "type": "uint256"
        }
      ],
      "name": "allPairs",
      "outputs": [
        {
          "internalType": "address",
          "name": "",
          "type": "address"
        }
      ],
      "stateMutability": "view",
      "type": "function"
    },
    {
      "inputs": [],
      "name": "allPairsLength",
      "outputs": [
        {
          "internalType": "uint256",
          "name": "",
          "type": "uint256"
        }
      ],
      "stateMutability": "view",
      "type": "function"
    },
    {
      "inputs": [],
      "name": "auro",
      "outputs": [
        {
          "internalType": "address",
          "name": "",
          "type": "address"
        }
      ],
      "stateMutability": "view",
      "type": "function"
    },
    {
      "inputs": [
        {
          "internalType": "address",
          "name": "tokenA",
          "type": "address"
        },
        {
          "internalType": "address",
          "name": "tokenB",
          "type": "address"
        }
      ],
      "name": "createPair",
      "outputs": [
        {
          "internalType": "address",
          "name": "pair",
          "type": "address"
        }
      ],
      "stateMutability": "nonpayable",
      "type": "function"
    },
    {
      "inputs": [
        {
          "internalType": "address",
          "name": "pairAddress",
          "type": "address"
        }
      ],
      "name": "disableMetaTxnsPair",
      "outputs": [],
      "stateMutability": "nonpayable",
      "type": "function"
    },
    {
      "inputs": [
        {
          "internalType": "address",
          "name": "pairAddress",
          "type": "address"
        }
      ],
      "name": "enableMetaTxnsPair",
      "outputs": [],
      "stateMutability": "nonpayable",
      "type": "function"
    },
    {
      "inputs": [],
      "name": "feeTo",
      "outputs": [
        {
          "internalType": "address",
          "name": "",
          "type": "address"
        }
      ],
      "stateMutability": "view",
      "type": "function"
    },
    {
      "inputs": [],
      "name": "feeToSetter",
      "outputs": [
        {
          "internalType": "address",
          "name": "",
          "type": "address"
        }
      ],
      "stateMutability": "view",
      "type": "function"
    },
    {
      "inputs": [
        {
          "internalType": "address",
          "name": "",
          "type": "address"
        },
        {
          "internalType": "address",
          "name": "",
          "type": "address"
        }
      ],
      "name": "getPair",
      "outputs": [
        {
          "internalType": "address",
          "name": "",
          "type": "address"
        }
      ],
      "stateMutability": "view",
      "type": "function"
    },
    {
      "inputs": [],
      "name": "migrator",
      "outputs": [
        {
          "internalType": "address",
          "name": "",
          "type": "address"
        }
      ],
      "stateMutability": "view",
      "type": "function"
    },
    {
      "inputs": [
        {
          "internalType": "address",
          "name": "_auro",
          "type": "address"
        }
      ],
      "name": "setAuroAddress",
      "outputs": [],
      "stateMutability": "nonpayable",
      "type": "function"
    },
    {
      "inputs": [
        {
          "internalType": "address",
          "name": "_feeTo",
          "type": "address"
        }
      ],
      "name": "setFeeTo",
      "outputs": [],
      "stateMutability": "nonpayable",
      "type": "function"
    },
    {
      "inputs": [
        {
          "internalType": "address",
          "name": "_feeToSetter",
          "type": "address"
        }
      ],
      "name": "setFeeToSetter",
      "outputs": [],
      "stateMutability": "nonpayable",
      "type": "function"
    },
    {
      "inputs": [
        {
          "internalType": "address",
          "name": "_migrator",
          "type": "address"
        }
      ],
      "name": "setMigrator",
      "outputs": [],
      "stateMutability": "nonpayable",
      "type": "function"
    }
  ],
  "transactionHash": "0xde1c1da32f3d3949cc90ff6b5927718c436c5e9ea5f66bcb89fc12c1536887f2",
  "args": [
    "0xA384Ad88178e3f42a31d25f43cD1B41EEc006b9F"
  ],
  "solcInputHash": "423d2554a722d88ac07abff4c2bed8f3",
  "bytecode": "0x608060405234801561001057600080fd5b506040516148fb3803806148fb8339818101604052602081101561003357600080fd5b5051600180546001600160a01b0319166001600160a01b03909216919091179055614898806100636000396000f3fe608060405234801561001057600080fd5b50600436106100f55760003560e01c80635e07d17b11610097578063b0cb33fe11610066578063b0cb33fe14610250578063c9c6539614610283578063e6a43905146102be578063f46901ed146102f9576100f5565b80635e07d17b146101af5780636bd7c172146101e25780637cd07e4714610215578063a2e74af61461021d576100f5565b806321dd70e6116100d357806321dd70e61461015057806323cf311814610158578063574f2ba31461018d5780635855a25a146101a7576100f5565b8063017e7e58146100fa578063094b74151461012b5780631e3dd18b14610133575b600080fd5b61010261032c565b6040805173ffffffffffffffffffffffffffffffffffffffff9092168252519081900360200190f35b610102610348565b6101026004803603602081101561014957600080fd5b5035610364565b610102610398565b61018b6004803603602081101561016e57600080fd5b503573ffffffffffffffffffffffffffffffffffffffff166103b4565b005b610195610481565b60408051918252519081900360200190f35b610195610487565b61018b600480360360208110156101c557600080fd5b503573ffffffffffffffffffffffffffffffffffffffff16610538565b61018b600480360360208110156101f857600080fd5b503573ffffffffffffffffffffffffffffffffffffffff16610771565b6101026108c0565b61018b6004803603602081101561023357600080fd5b503573ffffffffffffffffffffffffffffffffffffffff166108dc565b61018b6004803603602081101561026657600080fd5b503573ffffffffffffffffffffffffffffffffffffffff166109a9565b6101026004803603604081101561029957600080fd5b5073ffffffffffffffffffffffffffffffffffffffff81358116916020013516610bc5565b610102600480360360408110156102d457600080fd5b5073ffffffffffffffffffffffffffffffffffffffff81358116916020013516610fe3565b61018b6004803603602081101561030f57600080fd5b503573ffffffffffffffffffffffffffffffffffffffff16611016565b60005473ffffffffffffffffffffffffffffffffffffffff1681565b60015473ffffffffffffffffffffffffffffffffffffffff1681565b6005818154811061037157fe5b60009182526020909120015473ffffffffffffffffffffffffffffffffffffffff16905081565b60035473ffffffffffffffffffffffffffffffffffffffff1681565b60015473ffffffffffffffffffffffffffffffffffffffff16331461043a57604080517f08c379a000000000000000000000000000000000000000000000000000000000815260206004820152601760248201527f566972616c617461537761703a20464f5242494444454e000000000000000000604482015290519081900360640190fd5b600280547fffffffffffffffffffffffff00000000000000000000000000000000000000001673ffffffffffffffffffffffffffffffffffffffff92909216919091179055565b60055490565b604051610496602082016110e3565b6020820181038252601f19601f820116604052506040516020018082805190602001908083835b602083106104fa57805182527fffffffffffffffffffffffffffffffffffffffffffffffffffffffffffffffe090920191602091820191016104bd565b6001836020036101000a0380198251168184511680821785525050505050509050019150506040516020818303038152906040528051906020012081565b60015473ffffffffffffffffffffffffffffffffffffffff1633146105be57604080517f08c379a000000000000000000000000000000000000000000000000000000000815260206004820152601760248201527f566972616c617461537761703a20464f5242494444454e000000000000000000604482015290519081900360640190fd5b73ffffffffffffffffffffffffffffffffffffffff811661064057604080517f08c379a000000000000000000000000000000000000000000000000000000000815260206004820152601d60248201527f566972616c617461537761703a20504149525f4e4f545f455849535453000000604482015290519081900360640190fd5b60008190508073ffffffffffffffffffffffffffffffffffffffff1663a8c95dc06040518163ffffffff1660e01b815260040160206040518083038186803b15801561068b57600080fd5b505afa15801561069f573d6000803e3d6000fd5b505050506040513d60208110156106b557600080fd5b50511561070d576040517f08c379a000000000000000000000000000000000000000000000000000000000815260040180806020018281038252602781526020018061481b6027913960400191505060405180910390fd5b8073ffffffffffffffffffffffffffffffffffffffff1663578bb42d6040518163ffffffff1660e01b8152600401600060405180830381600087803b15801561075557600080fd5b505af1158015610769573d6000803e3d6000fd5b505050505050565b60015473ffffffffffffffffffffffffffffffffffffffff1633146107f757604080517f08c379a000000000000000000000000000000000000000000000000000000000815260206004820152601760248201527f566972616c617461537761703a20464f5242494444454e000000000000000000604482015290519081900360640190fd5b73ffffffffffffffffffffffffffffffffffffffff811661087957604080517f08c379a000000000000000000000000000000000000000000000000000000000815260206004820152601d60248201527f566972616c617461537761703a20494e56414c49445f41444452455353000000604482015290519081900360640190fd5b600380547fffffffffffffffffffffffff00000000000000000000000000000000000000001673ffffffffffffffffffffffffffffffffffffffff92909216919091179055565b60025473ffffffffffffffffffffffffffffffffffffffff1681565b60015473ffffffffffffffffffffffffffffffffffffffff16331461096257604080517f08c379a000000000000000000000000000000000000000000000000000000000815260206004820152601760248201527f566972616c617461537761703a20464f5242494444454e000000000000000000604482015290519081900360640190fd5b600180547fffffffffffffffffffffffff00000000000000000000000000000000000000001673ffffffffffffffffffffffffffffffffffffffff92909216919091179055565b60015473ffffffffffffffffffffffffffffffffffffffff163314610a2f57604080517f08c379a000000000000000000000000000000000000000000000000000000000815260206004820152601760248201527f566972616c617461537761703a20464f5242494444454e000000000000000000604482015290519081900360640190fd5b73ffffffffffffffffffffffffffffffffffffffff8116610ab157604080517f08c379a000000000000000000000000000000000000000000000000000000000815260206004820152601d60248201527f566972616c617461537761703a20504149525f4e4f545f455849535453000000604482015290519081900360640190fd5b60008190508073ffffffffffffffffffffffffffffffffffffffff1663a8c95dc06040518163ffffffff1660e01b815260040160206040518083038186803b158015610afc57600080fd5b505afa158015610b10573d6000803e3d6000fd5b505050506040513d6020811015610b2657600080fd5b5051610b7d576040517f08c379a00000000000000000000000000000000000000000000000000000000081526004018080602001828103825260288152602001806147f36028913960400191505060405180910390fd5b8073ffffffffffffffffffffffffffffffffffffffff1663083836406040518163ffffffff1660e01b8152600401600060405180830381600087803b15801561075557600080fd5b60008173ffffffffffffffffffffffffffffffffffffffff168373ffffffffffffffffffffffffffffffffffffffff161415610c4c576040517f08c379a00000000000000000000000000000000000000000000000000000000081526004018080602001828103825260218152602001806148426021913960400191505060405180910390fd5b6000808373ffffffffffffffffffffffffffffffffffffffff168573ffffffffffffffffffffffffffffffffffffffff1610610c89578385610c8c565b84845b909250905073ffffffffffffffffffffffffffffffffffffffff8216610d1357604080517f08c379a000000000000000000000000000000000000000000000000000000000815260206004820152601a60248201527f566972616c617461537761703a205a45524f5f41444452455353000000000000604482015290519081900360640190fd5b73ffffffffffffffffffffffffffffffffffffffff828116600090815260046020908152604080832085851684529091529020541615610db457604080517f08c379a000000000000000000000000000000000000000000000000000000000815260206004820152601960248201527f566972616c617461537761703a20504149525f45584953545300000000000000604482015290519081900360640190fd5b606060405180602001610dc6906110e3565b6020820181038252601f19601f82011660405250905060008383604051602001808373ffffffffffffffffffffffffffffffffffffffff1660601b81526014018273ffffffffffffffffffffffffffffffffffffffff1660601b815260140192505050604051602081830303815290604052805190602001209050808251602084016000f594508473ffffffffffffffffffffffffffffffffffffffff1663485cc95585856040518363ffffffff1660e01b8152600401808373ffffffffffffffffffffffffffffffffffffffff1681526020018273ffffffffffffffffffffffffffffffffffffffff16815260200192505050600060405180830381600087803b158015610ed457600080fd5b505af1158015610ee8573d6000803e3d6000fd5b5050505073ffffffffffffffffffffffffffffffffffffffff84811660008181526004602081815260408084208987168086529083528185208054978d167fffffffffffffffffffffffff000000000000000000000000000000000000000098891681179091559383528185208686528352818520805488168517905560058054600181018255958190527f036b6384b5eca791c62761152d0c79bb0604c104a5fb6f4eb0703f3154bb3db090950180549097168417909655925483519283529082015281517f0d3648bd0f6ba80134a33ba9275ac585d9d315f0ad8355cddefde31afa28d0e9929181900390910190a35050505092915050565b600460209081526000928352604080842090915290825290205473ffffffffffffffffffffffffffffffffffffffff1681565b60015473ffffffffffffffffffffffffffffffffffffffff16331461109c57604080517f08c379a000000000000000000000000000000000000000000000000000000000815260206004820152601760248201527f566972616c617461537761703a20464f5242494444454e000000000000000000604482015290519081900360640190fd5b600080547fffffffffffffffffffffffff00000000000000000000000000000000000000001673ffffffffffffffffffffffffffffffffffffffff92909216919091179055565b613702806110f18339019056fe60806040526005805460ff60a01b191690556001600d5534801561002257600080fd5b50604080518082018252601581527f566972616c61746153776170204c5020546f6b656e00000000000000000000006020918201528151808301835260018152603160f81b9082015281517f8b73c3c69bb8fe3d512ecc4cf759cc79239f7b179b0ffacaa9a75d522b39400f818301527f74395e1e6331e722a2daafb6a053df80b7ff71036f1a18db088bab1d965fe5db818401527fc89efdaa54c0f20c7adf612882df0950f5a951637e0307cdcb4c672f298b8bc660608201524660808201523060a0808301919091528351808303909101815260c09091019092528151910120600355600680546001600160a01b031916331790556135da806101286000396000f3fe608060405234801561001057600080fd5b50600436106101e55760003560e01c80635a3d54931161010f578063a9059cbb116100a2578063d21220a711610071578063d21220a714610651578063d505accf14610659578063dd62ed3e146106b7578063fff6cae9146106f2576101e5565b8063a9059cbb146105d5578063ba9a7a561461060e578063bc25cf7714610616578063c45a015514610649576101e5565b80637ecebe00116100de5780637ecebe001461054657806389afcb441461057957806395d89b41146105c5578063a8c95dc0146105cd576101e5565b80635a3d5493146104d05780636a627842146104d857806370a082311461050b5780637464fc3d1461053e576101e5565b806323b872dd11610187578063485cc95511610156578063485cc95514610452578063572b6c051461048d578063578bb42d146104c05780635909c0d5146104c8576101e5565b806323b872dd146103e157806330adf81f14610424578063313ce5671461042c5780633644e5151461044a576101e5565b80630902f1ac116101c35780630902f1ac1461030a578063095ea7b3146103495780630dfe16811461039657806318160ddd146103c7576101e5565b8063022c0d9f146101ea57806306fdde03146102855780630838364014610302575b600080fd5b6102836004803603608081101561020057600080fd5b81359160208101359173ffffffffffffffffffffffffffffffffffffffff604083013516919081019060808101606082013564010000000081111561024457600080fd5b82018360208201111561025657600080fd5b8035906020019184600183028401116401000000008311171561027857600080fd5b5090925090506106fa565b005b61028d610fca565b6040805160208082528351818301528351919283929083019185019080838360005b838110156102c75781810151838201526020016102af565b50505050905090810190601f1680156102f45780820380516001836020036101000a031916815260200191505b509250505060405180910390f35b610283611003565b61031261118d565b604080516dffffffffffffffffffffffffffff948516815292909316602083015263ffffffff168183015290519081900360600190f35b6103826004803603604081101561035f57600080fd5b5073ffffffffffffffffffffffffffffffffffffffff81351690602001356111e2565b604080519115158252519081900360200190f35b61039e611200565b6040805173ffffffffffffffffffffffffffffffffffffffff9092168252519081900360200190f35b6103cf61121c565b60408051918252519081900360200190f35b610382600480360360608110156103f757600080fd5b5073ffffffffffffffffffffffffffffffffffffffff813581169160208101359091169060400135611222565b6103cf61137e565b6104346113a2565b6040805160ff9092168252519081900360200190f35b6103cf6113a7565b6102836004803603604081101561046857600080fd5b5073ffffffffffffffffffffffffffffffffffffffff813581169160200135166113ad565b610382600480360360208110156104a357600080fd5b503573ffffffffffffffffffffffffffffffffffffffff16611486565b6102836114d5565b6103cf611677565b6103cf61167d565b6103cf600480360360208110156104ee57600080fd5b503573ffffffffffffffffffffffffffffffffffffffff16611683565b6103cf6004803603602081101561052157600080fd5b503573ffffffffffffffffffffffffffffffffffffffff16611ca7565b6103cf611cb9565b6103cf6004803603602081101561055c57600080fd5b503573ffffffffffffffffffffffffffffffffffffffff16611cbf565b6105ac6004803603602081101561058f57600080fd5b503573ffffffffffffffffffffffffffffffffffffffff16611cd1565b6040805192835260208301919091528051918290030190f35b61028d61217b565b6103826121b4565b610382600480360360408110156105eb57600080fd5b5073ffffffffffffffffffffffffffffffffffffffff81351690602001356121d5565b6103cf6121e9565b6102836004803603602081101561062c57600080fd5b503573ffffffffffffffffffffffffffffffffffffffff166121ef565b61039e6123dc565b61039e6123f8565b610283600480360360e081101561066f57600080fd5b5073ffffffffffffffffffffffffffffffffffffffff813581169160208101359091169060408101359060608101359060ff6080820135169060a08101359060c00135612414565b6103cf600480360360408110156106cd57600080fd5b5073ffffffffffffffffffffffffffffffffffffffff813581169160200135166126e0565b6102836126fd565b600d5460011461076b57604080517f08c379a000000000000000000000000000000000000000000000000000000000815260206004820152601460248201527f566972616c617461537761703a204c4f434b4544000000000000000000000000604482015290519081900360640190fd5b6000600d558415158061077e5750600084115b6107d3576040517f08c379a00000000000000000000000000000000000000000000000000000000081526004018080602001828103825260288152602001806135076028913960400191505060405180910390fd5b6107db61342f565b6040518060e0016040528060006dffffffffffffffffffffffffffff16815260200160006dffffffffffffffffffffffffffff168152602001600081526020016000815260200160008152602001600081526020016000815250905061083f61118d565b506dffffffffffffffffffffffffffff9081166020840152168082528610801561087c575080602001516dffffffffffffffffffffffffffff1685105b6108d1576040517f08c379a00000000000000000000000000000000000000000000000000000000081526004018080602001828103825260248152602001806135816024913960400191505060405180910390fd5b601960c0820152600654604080517f21dd70e6000000000000000000000000000000000000000000000000000000008152905160009273ffffffffffffffffffffffffffffffffffffffff16916321dd70e6916004808301926020929190829003018186803b15801561094357600080fd5b505afa158015610957573d6000803e3d6000fd5b505050506040513d602081101561096d57600080fd5b505160075460085491925073ffffffffffffffffffffffffffffffffffffffff90811691811690871682148015906109d157508073ffffffffffffffffffffffffffffffffffffffff168773ffffffffffffffffffffffffffffffffffffffff1614155b610a3c57604080517f08c379a000000000000000000000000000000000000000000000000000000000815260206004820152601860248201527f566972616c617461537761703a20494e56414c49445f544f0000000000000000604482015290519081900360640190fd5b8815610a4d57610a4d82888b6128e3565b8715610a5e57610a5e81888a6128e3565b8415610b31578673ffffffffffffffffffffffffffffffffffffffff166310d1e85c610a88612af0565b8b8b8a8a6040518663ffffffff1660e01b8152600401808673ffffffffffffffffffffffffffffffffffffffff168152602001858152602001848152602001806020018281038252848482818152602001925080828437600081840152601f19601f8201169050808301925050509650505050505050600060405180830381600087803b158015610b1857600080fd5b505af1158015610b2c573d6000803e3d6000fd5b505050505b8273ffffffffffffffffffffffffffffffffffffffff168273ffffffffffffffffffffffffffffffffffffffff161480610b9657508273ffffffffffffffffffffffffffffffffffffffff168173ffffffffffffffffffffffffffffffffffffffff16145b15610ba357603260c08501525b604080517f70a08231000000000000000000000000000000000000000000000000000000008152306004820152905173ffffffffffffffffffffffffffffffffffffffff8416916370a08231916024808301926020929190829003018186803b158015610c0f57600080fd5b505afa158015610c23573d6000803e3d6000fd5b505050506040513d6020811015610c3957600080fd5b505160408086019190915280517f70a08231000000000000000000000000000000000000000000000000000000008152306004820152905173ffffffffffffffffffffffffffffffffffffffff8316916370a08231916024808301926020929190829003018186803b158015610cae57600080fd5b505afa158015610cc2573d6000803e3d6000fd5b505050506040513d6020811015610cd857600080fd5b505160608501525050815160408301516dffffffffffffffffffffffffffff90911688900310610d09576000610d27565b8682600001516dffffffffffffffffffffffffffff16038260400151035b8260800181815250508582602001516dffffffffffffffffffffffffffff1603826060015111610d58576000610d76565b8582602001516dffffffffffffffffffffffffffff16038260600151035b60a08301526080820151151580610d91575060008260a00151115b610de6576040517f08c379a000000000000000000000000000000000000000000000000000000000815260040180806020018281038252602781526020018061355a6027913960400191505060405180910390fd5b6000610e1d610e068460c001518560800151612b3390919063ffffffff16565b6040850151610e1790612710612b33565b90612bb9565b90506000610e50610e3f8560c001518660a00151612b3390919063ffffffff16565b6060860151610e1790612710612b33565b9050610e9b6305f5e100610e9586602001516dffffffffffffffffffffffffffff1687600001516dffffffffffffffffffffffffffff16612b3390919063ffffffff16565b90612b33565b610ea58383612b33565b1015610f1257604080517f08c379a000000000000000000000000000000000000000000000000000000000815260206004820152600f60248201527f566972616c617461537761703a204b0000000000000000000000000000000000604482015290519081900360640190fd5b5050610f308260400151836060015184600001518560200151612c2b565b8473ffffffffffffffffffffffffffffffffffffffff16610f4f612af0565b73ffffffffffffffffffffffffffffffffffffffff167fd78ad95fa46c994b6551d0da85fc275fe613ce37657fb8d5e3d130840159d82284608001518560a001518b8b6040518085815260200184815260200183815260200182815260200194505050505060405180910390a350506001600d555050505050565b6040518060400160405280601581526020017f566972616c61746153776170204c5020546f6b656e000000000000000000000081525081565b60065473ffffffffffffffffffffffffffffffffffffffff16611024612af0565b73ffffffffffffffffffffffffffffffffffffffff16146110a657604080517f08c379a000000000000000000000000000000000000000000000000000000000815260206004820152601760248201527f566972616c617461537761703a20464f5242494444454e000000000000000000604482015290519081900360640190fd5b60055474010000000000000000000000000000000000000000900460ff16611119576040517f08c379a000000000000000000000000000000000000000000000000000000000815260040180806020018281038252602881526020018061348d6028913960400191505060405180910390fd5b600580547fffffffffffffffffffffff00ffffffffffffffffffffffffffffffffffffffff169055611149612af0565b73ffffffffffffffffffffffffffffffffffffffff167f096be170ccc67847e55535e7d8334b2afedd95805baedc160005addb9144745060405160405180910390a2565b6009546dffffffffffffffffffffffffffff808216926e0100000000000000000000000000008304909116917c0100000000000000000000000000000000000000000000000000000000900463ffffffff1690565b60006111f66111ef612af0565b8484612ee1565b5060015b92915050565b60075473ffffffffffffffffffffffffffffffffffffffff1681565b60005481565b73ffffffffffffffffffffffffffffffffffffffff831660009081526002602052604081207fffffffffffffffffffffffffffffffffffffffffffffffffffffffffffffffff9082611272612af0565b73ffffffffffffffffffffffffffffffffffffffff1673ffffffffffffffffffffffffffffffffffffffff16815260200190815260200160002054146113695773ffffffffffffffffffffffffffffffffffffffff84166000908152600260205260408120611313918491906112e6612af0565b73ffffffffffffffffffffffffffffffffffffffff16815260208101919091526040016000205490612bb9565b73ffffffffffffffffffffffffffffffffffffffff8516600090815260026020526040812090611341612af0565b73ffffffffffffffffffffffffffffffffffffffff1681526020810191909152604001600020555b611374848484612f50565b5060019392505050565b7f6e71edae12b1b97f4d1f60370fef10105fa2faae0126114a169c64845d6126c981565b601281565b60035481565b60065473ffffffffffffffffffffffffffffffffffffffff16331461143357604080517f08c379a000000000000000000000000000000000000000000000000000000000815260206004820152601760248201527f566972616c617461537761703a20464f5242494444454e000000000000000000604482015290519081900360640190fd5b6007805473ffffffffffffffffffffffffffffffffffffffff9384167fffffffffffffffffffffffff00000000000000000000000000000000000000009182161790915560088054929093169116179055565b60055460009074010000000000000000000000000000000000000000900460ff1680156114cd575060055473ffffffffffffffffffffffffffffffffffffffff8381169116145b90505b919050565b60065473ffffffffffffffffffffffffffffffffffffffff166114f6612af0565b73ffffffffffffffffffffffffffffffffffffffff161461157857604080517f08c379a000000000000000000000000000000000000000000000000000000000815260206004820152601760248201527f566972616c617461537761703a20464f5242494444454e000000000000000000604482015290519081900360640190fd5b60055474010000000000000000000000000000000000000000900460ff16156115ec576040517f08c379a00000000000000000000000000000000000000000000000000000000081526004018080602001828103825260278152602001806134b56027913960400191505060405180910390fd5b600580547fffffffffffffffffffffff00ffffffffffffffffffffffffffffffffffffffff1674010000000000000000000000000000000000000000179055611633612af0565b73ffffffffffffffffffffffffffffffffffffffff167f92e4c08d47b71e8dc051232b8e475ec296489a67a4ba5cca88ff20fb6ac499e660405160405180910390a2565b600a5481565b600b5481565b6000600d546001146116f657604080517f08c379a000000000000000000000000000000000000000000000000000000000815260206004820152601460248201527f566972616c617461537761703a204c4f434b4544000000000000000000000000604482015290519081900360640190fd5b6000600d8190558061170661118d565b50600754604080517f70a08231000000000000000000000000000000000000000000000000000000008152306004820152905193955091935060009273ffffffffffffffffffffffffffffffffffffffff909116916370a08231916024808301926020929190829003018186803b15801561178057600080fd5b505afa158015611794573d6000803e3d6000fd5b505050506040513d60208110156117aa57600080fd5b5051600854604080517f70a08231000000000000000000000000000000000000000000000000000000008152306004820152905192935060009273ffffffffffffffffffffffffffffffffffffffff909216916370a0823191602480820192602092909190829003018186803b15801561182357600080fd5b505afa158015611837573d6000803e3d6000fd5b505050506040513d602081101561184d57600080fd5b50519050600061186d836dffffffffffffffffffffffffffff8716612bb9565b9050600061188b836dffffffffffffffffffffffffffff8716612bb9565b905060006118998787613025565b60005490915080611b3b57600654604080517f7cd07e47000000000000000000000000000000000000000000000000000000008152905160009273ffffffffffffffffffffffffffffffffffffffff1691637cd07e47916004808301926020929190829003018186803b15801561190f57600080fd5b505afa158015611923573d6000803e3d6000fd5b505050506040513d602081101561193957600080fd5b5051905073ffffffffffffffffffffffffffffffffffffffff811661195c612af0565b73ffffffffffffffffffffffffffffffffffffffff161415611a8b578073ffffffffffffffffffffffffffffffffffffffff166340dc0e376040518163ffffffff1660e01b815260040160206040518083038186803b1580156119be57600080fd5b505afa1580156119d2573d6000803e3d6000fd5b505050506040513d60208110156119e857600080fd5b505199508915801590611a1b57507fffffffffffffffffffffffffffffffffffffffffffffffffffffffffffffffff8a14155b611a8657604080517f08c379a000000000000000000000000000000000000000000000000000000000815260206004820152601560248201527f4261642064657369726564206c69717569646974790000000000000000000000604482015290519081900360640190fd5b611b35565b73ffffffffffffffffffffffffffffffffffffffff811615611b0e57604080517f08c379a000000000000000000000000000000000000000000000000000000000815260206004820152601660248201527f4d757374206e6f742068617665206d69677261746f7200000000000000000000604482015290519081900360640190fd5b611b266103e8610e17611b218888612b33565b613192565b9950611b3560006103e86131e3565b50611b8c565b611b896dffffffffffffffffffffffffffff8916611b598684612b33565b81611b6057fe5b046dffffffffffffffffffffffffffff8916611b7c8685612b33565b81611b8357fe5b04613287565b98505b60008911611be5576040517f08c379a000000000000000000000000000000000000000000000000000000000815260040180806020018281038252602b81526020018061352f602b913960400191505060405180910390fd5b611bef8a8a6131e3565b611bfb86868a8a612c2b565b8115611c3757600954611c33906dffffffffffffffffffffffffffff808216916e010000000000000000000000000000900416612b33565b600c555b611c3f612af0565b73ffffffffffffffffffffffffffffffffffffffff167f4c209b5fc8ad50758f13e2e1088ba56a560dff690a1c6fef26394f4c03821c4f8585604051808381526020018281526020019250505060405180910390a250506001600d5550949695505050505050565b60016020526000908152604090205481565b600c5481565b60046020526000908152604090205481565b600080600d54600114611d4557604080517f08c379a000000000000000000000000000000000000000000000000000000000815260206004820152601460248201527f566972616c617461537761703a204c4f434b4544000000000000000000000000604482015290519081900360640190fd5b6000600d81905580611d5561118d565b50600754600854604080517f70a08231000000000000000000000000000000000000000000000000000000008152306004820152905194965092945073ffffffffffffffffffffffffffffffffffffffff9182169391169160009184916370a08231916024808301926020929190829003018186803b158015611dd757600080fd5b505afa158015611deb573d6000803e3d6000fd5b505050506040513d6020811015611e0157600080fd5b5051604080517f70a08231000000000000000000000000000000000000000000000000000000008152306004820152905191925060009173ffffffffffffffffffffffffffffffffffffffff8516916370a08231916024808301926020929190829003018186803b158015611e7557600080fd5b505afa158015611e89573d6000803e3d6000fd5b505050506040513d6020811015611e9f57600080fd5b505130600090815260016020526040812054919250611ebe8888613025565b60005490915080611ecf8487612b33565b81611ed657fe5b049a5080611ee48486612b33565b81611eeb57fe5b04995060008b118015611efe575060008a115b611f53576040517f08c379a000000000000000000000000000000000000000000000000000000000815260040180806020018281038252602b8152602001806134dc602b913960400191505060405180910390fd5b611f5d308461329f565b611f68878d8d6128e3565b611f73868d8c6128e3565b604080517f70a08231000000000000000000000000000000000000000000000000000000008152306004820152905173ffffffffffffffffffffffffffffffffffffffff8916916370a08231916024808301926020929190829003018186803b158015611fdf57600080fd5b505afa158015611ff3573d6000803e3d6000fd5b505050506040513d602081101561200957600080fd5b5051604080517f70a08231000000000000000000000000000000000000000000000000000000008152306004820152905191965073ffffffffffffffffffffffffffffffffffffffff8816916370a0823191602480820192602092909190829003018186803b15801561207b57600080fd5b505afa15801561208f573d6000803e3d6000fd5b505050506040513d60208110156120a557600080fd5b505193506120b585858b8b612c2b565b81156120f1576009546120ed906dffffffffffffffffffffffffffff808216916e010000000000000000000000000000900416612b33565b600c555b8b73ffffffffffffffffffffffffffffffffffffffff16612110612af0565b73ffffffffffffffffffffffffffffffffffffffff167fdccd412f0b1252819cb1fd330b93224ca42612892bb3f4f789976e6d819364968d8d604051808381526020018281526020019250505060405180910390a35050505050505050506001600d81905550915091565b6040518060400160405280600381526020017f564c50000000000000000000000000000000000000000000000000000000000081525081565b60055474010000000000000000000000000000000000000000900460ff1681565b60006111f66121e2612af0565b8484612f50565b6103e881565b600d5460011461226057604080517f08c379a000000000000000000000000000000000000000000000000000000000815260206004820152601460248201527f566972616c617461537761703a204c4f434b4544000000000000000000000000604482015290519081900360640190fd5b6000600d55600754600854600954604080517f70a08231000000000000000000000000000000000000000000000000000000008152306004820152905173ffffffffffffffffffffffffffffffffffffffff94851694909316926123369285928792612331926dffffffffffffffffffffffffffff169185916370a0823191602480820192602092909190829003018186803b1580156122ff57600080fd5b505afa158015612313573d6000803e3d6000fd5b505050506040513d602081101561232957600080fd5b505190612bb9565b6128e3565b6123d281846123316009600e9054906101000a90046dffffffffffffffffffffffffffff166dffffffffffffffffffffffffffff168573ffffffffffffffffffffffffffffffffffffffff166370a08231306040518263ffffffff1660e01b8152600401808273ffffffffffffffffffffffffffffffffffffffff16815260200191505060206040518083038186803b1580156122ff57600080fd5b50506001600d5550565b60065473ffffffffffffffffffffffffffffffffffffffff1681565b60085473ffffffffffffffffffffffffffffffffffffffff1681565b4284101561248357604080517f08c379a000000000000000000000000000000000000000000000000000000000815260206004820152601560248201527f566972616c617461537761703a20455850495245440000000000000000000000604482015290519081900360640190fd5b60035473ffffffffffffffffffffffffffffffffffffffff80891660008181526004602090815260408083208054600180820190925582517f6e71edae12b1b97f4d1f60370fef10105fa2faae0126114a169c64845d6126c98186015280840196909652958d166060860152608085018c905260a085019590955260c08085018b90528151808603909101815260e0850182528051908301207f19010000000000000000000000000000000000000000000000000000000000006101008601526101028501969096526101228085019690965280518085039096018652610142840180825286519683019690962095839052610162840180825286905260ff89166101828501526101a284018890526101c28401879052519193926101e2808201937fffffffffffffffffffffffffffffffffffffffffffffffffffffffffffffffe081019281900390910190855afa1580156125e4573d6000803e3d6000fd5b50506040517fffffffffffffffffffffffffffffffffffffffffffffffffffffffffffffffe0015191505073ffffffffffffffffffffffffffffffffffffffff81161580159061265f57508873ffffffffffffffffffffffffffffffffffffffff168173ffffffffffffffffffffffffffffffffffffffff16145b6126ca57604080517f08c379a000000000000000000000000000000000000000000000000000000000815260206004820152601f60248201527f566972616c617461537761703a20494e56414c49445f5349474e415455524500604482015290519081900360640190fd5b6126d5898989612ee1565b505050505050505050565b600260209081526000928352604080842090915290825290205481565b600d5460011461276e57604080517f08c379a000000000000000000000000000000000000000000000000000000000815260206004820152601460248201527f566972616c617461537761703a204c4f434b4544000000000000000000000000604482015290519081900360640190fd5b6000600d55600754604080517f70a0823100000000000000000000000000000000000000000000000000000000815230600482015290516128dc9273ffffffffffffffffffffffffffffffffffffffff16916370a08231916024808301926020929190829003018186803b1580156127e557600080fd5b505afa1580156127f9573d6000803e3d6000fd5b505050506040513d602081101561280f57600080fd5b5051600854604080517f70a08231000000000000000000000000000000000000000000000000000000008152306004820152905173ffffffffffffffffffffffffffffffffffffffff909216916370a0823191602480820192602092909190829003018186803b15801561288257600080fd5b505afa158015612896573d6000803e3d6000fd5b505050506040513d60208110156128ac57600080fd5b50516009546dffffffffffffffffffffffffffff808216916e010000000000000000000000000000900416612c2b565b6001600d55565b604080518082018252601981527f7472616e7366657228616464726573732c75696e743235362900000000000000602091820152815173ffffffffffffffffffffffffffffffffffffffff85811660248301526044808301869052845180840390910181526064909201845291810180517bffffffffffffffffffffffffffffffffffffffffffffffffffffffff167fa9059cbb000000000000000000000000000000000000000000000000000000001781529251815160009460609489169392918291908083835b602083106129e957805182527fffffffffffffffffffffffffffffffffffffffffffffffffffffffffffffffe090920191602091820191016129ac565b6001836020036101000a0380198251168184511680821785525050505050509050019150506000604051808303816000865af19150503d8060008114612a4b576040519150601f19603f3d011682016040523d82523d6000602084013e612a50565b606091505b5091509150818015612a7e575080511580612a7e5750808060200190516020811015612a7b57600080fd5b50515b612ae957604080517f08c379a000000000000000000000000000000000000000000000000000000000815260206004820152601d60248201527f566972616c617461537761703a205452414e534645525f4641494c4544000000604482015290519081900360640190fd5b5050505050565b6000612afb33611486565b15612b2d57507fffffffffffffffffffffffffffffffffffffffffffffffffffffffffffffffec36013560601c612b30565b50335b90565b6000811580612b4e57505080820282828281612b4b57fe5b04145b6111fa57604080517f08c379a000000000000000000000000000000000000000000000000000000000815260206004820152601460248201527f64732d6d6174682d6d756c2d6f766572666c6f77000000000000000000000000604482015290519081900360640190fd5b808203828111156111fa57604080517f08c379a000000000000000000000000000000000000000000000000000000000815260206004820152601560248201527f64732d6d6174682d7375622d756e646572666c6f770000000000000000000000604482015290519081900360640190fd5b6dffffffffffffffffffffffffffff8411801590612c5757506dffffffffffffffffffffffffffff8311155b612cc257604080517f08c379a000000000000000000000000000000000000000000000000000000000815260206004820152601660248201527f566972616c617461537761703a204f564552464c4f5700000000000000000000604482015290519081900360640190fd5b60095463ffffffff428116917c010000000000000000000000000000000000000000000000000000000090048116820390811615801590612d1257506dffffffffffffffffffffffffffff841615155b8015612d2d57506dffffffffffffffffffffffffffff831615155b15612dd7578063ffffffff16612d6a85612d4686613358565b7bffffffffffffffffffffffffffffffffffffffffffffffffffffffff169061337c565b600a80547bffffffffffffffffffffffffffffffffffffffffffffffffffffffff929092169290920201905563ffffffff8116612daa84612d4687613358565b600b80547bffffffffffffffffffffffffffffffffffffffffffffffffffffffff92909216929092020190555b600980547fffffffffffffffffffffffffffffffffffff0000000000000000000000000000166dffffffffffffffffffffffffffff888116919091177fffffffff0000000000000000000000000000ffffffffffffffffffffffffffff166e0100000000000000000000000000008883168102919091177bffffffffffffffffffffffffffffffffffffffffffffffffffffffff167c010000000000000000000000000000000000000000000000000000000063ffffffff871602179283905560408051848416815291909304909116602082015281517f1c411e9a96e071241c2f21f7726b17ae89e3cab4c78be50e062b03a9fffbbad1929181900390910190a1505050505050565b73ffffffffffffffffffffffffffffffffffffffff808416600081815260026020908152604080832094871680845294825291829020859055815185815291517f8c5be1e5ebec7d5bd14f71427d1e84f3dd0314c0f7b2291e5b200ac8c7c3b9259281900390910190a3505050565b73ffffffffffffffffffffffffffffffffffffffff8316600090815260016020526040902054612f809082612bb9565b73ffffffffffffffffffffffffffffffffffffffff8085166000908152600160205260408082209390935590841681522054612fbc90826133bd565b73ffffffffffffffffffffffffffffffffffffffff80841660008181526001602090815260409182902094909455805185815290519193928716927fddf252ad1be2c89b69c2b068fc378daa952ba7f163c4a11628f55a4df523b3ef92918290030190a3505050565b600080600660009054906101000a900473ffffffffffffffffffffffffffffffffffffffff1673ffffffffffffffffffffffffffffffffffffffff1663017e7e586040518163ffffffff1660e01b815260040160206040518083038186803b15801561309057600080fd5b505afa1580156130a4573d6000803e3d6000fd5b505050506040513d60208110156130ba57600080fd5b5051600c5473ffffffffffffffffffffffffffffffffffffffff821615801594509192509061317e57801561317957600061310b611b216dffffffffffffffffffffffffffff888116908816612b33565b9050600061311883613192565b90508082111561317657600061313a6131318484612bb9565b60005490612b33565b905060006131528361314c8684612b33565b906133bd565b9050600081838161315f57fe5b04905080156131725761317287826131e3565b5050505b50505b61318a565b801561318a576000600c555b505092915050565b600060038211156131d5575080600160028204015b818110156131cf578091506002818285816131be57fe5b0401816131c757fe5b0490506131a7565b506114d0565b81156114d057506001919050565b6000546131f090826133bd565b600090815573ffffffffffffffffffffffffffffffffffffffff831681526001602052604090205461322290826133bd565b73ffffffffffffffffffffffffffffffffffffffff831660008181526001602090815260408083209490945583518581529351929391927fddf252ad1be2c89b69c2b068fc378daa952ba7f163c4a11628f55a4df523b3ef9281900390910190a35050565b60008183106132965781613298565b825b9392505050565b73ffffffffffffffffffffffffffffffffffffffff82166000908152600160205260409020546132cf9082612bb9565b73ffffffffffffffffffffffffffffffffffffffff8316600090815260016020526040812091909155546133039082612bb9565b600090815560408051838152905173ffffffffffffffffffffffffffffffffffffffff8516917fddf252ad1be2c89b69c2b068fc378daa952ba7f163c4a11628f55a4df523b3ef919081900360200190a35050565b6dffffffffffffffffffffffffffff166e0100000000000000000000000000000290565b60006dffffffffffffffffffffffffffff82167bffffffffffffffffffffffffffffffffffffffffffffffffffffffff8416816133b557fe5b049392505050565b808201828110156111fa57604080517f08c379a000000000000000000000000000000000000000000000000000000000815260206004820152601460248201527f64732d6d6174682d6164642d6f766572666c6f77000000000000000000000000604482015290519081900360640190fd5b6040518060e0016040528060006dffffffffffffffffffffffffffff16815260200160006dffffffffffffffffffffffffffff1681526020016000815260200160008152602001600081526020016000815260200160008152509056fe566972616c617461537761703a204d4554415f54584e535f414c52454144595f44495341424c4544566972616c617461537761703a204d4554415f54584e535f414c52454144595f454e41424c4544566972616c617461537761703a20494e53554646494349454e545f4c49515549444954595f4255524e4544566972616c617461537761703a20494e53554646494349454e545f4f55545055545f414d4f554e54566972616c617461537761703a20494e53554646494349454e545f4c49515549444954595f4d494e544544566972616c617461537761703a20494e53554646494349454e545f494e5055545f414d4f554e54566972616c617461537761703a20494e53554646494349454e545f4c4951554944495459a2646970667358221220a13971f0c4146f137c4aafe8f77aa07ab0d7af7f779cbdd631d39fffc259135064736f6c634300060c0033566972616c617461537761703a204d4554415f54584e535f414c52454144595f44495341424c4544566972616c617461537761703a204d4554415f54584e535f414c52454144595f454e41424c4544566972616c617461537761703a204944454e544943414c5f414444524553534553a26469706673582212205be3cb1885dc1b50aaad7e49049f966e232d70dc5327a5c9313e97aba580da5664736f6c634300060c0033",
  "devdoc": {
    "kind": "dev",
    "methods": {},
    "version": 1
  },
  "userdoc": {
    "kind": "user",
    "methods": {},
    "version": 1
  },
  "storageLayout": {
    "storage": [
      {
        "astId": 477,
        "contract": "contracts/uniswapv2/ViralataFactory.sol:ViralataFactory",
        "label": "feeTo",
        "offset": 0,
        "slot": "0",
        "type": "t_address"
      },
      {
        "astId": 480,
        "contract": "contracts/uniswapv2/ViralataFactory.sol:ViralataFactory",
        "label": "feeToSetter",
        "offset": 0,
        "slot": "1",
        "type": "t_address"
      },
      {
        "astId": 483,
        "contract": "contracts/uniswapv2/ViralataFactory.sol:ViralataFactory",
        "label": "migrator",
        "offset": 0,
        "slot": "2",
        "type": "t_address"
      },
      {
        "astId": 486,
        "contract": "contracts/uniswapv2/ViralataFactory.sol:ViralataFactory",
        "label": "auro",
        "offset": 0,
        "slot": "3",
        "type": "t_address"
      },
      {
        "astId": 493,
        "contract": "contracts/uniswapv2/ViralataFactory.sol:ViralataFactory",
        "label": "getPair",
        "offset": 0,
        "slot": "4",
        "type": "t_mapping(t_address,t_mapping(t_address,t_address))"
      },
      {
        "astId": 497,
        "contract": "contracts/uniswapv2/ViralataFactory.sol:ViralataFactory",
        "label": "allPairs",
        "offset": 0,
        "slot": "5",
        "type": "t_array(t_address)dyn_storage"
      }
    ],
    "types": {
      "t_address": {
        "encoding": "inplace",
        "label": "address",
        "numberOfBytes": "20"
      },
      "t_array(t_address)dyn_storage": {
        "base": "t_address",
        "encoding": "dynamic_array",
        "label": "address[]",
        "numberOfBytes": "32"
      },
      "t_mapping(t_address,t_address)": {
        "encoding": "mapping",
        "key": "t_address",
        "label": "mapping(address => address)",
        "numberOfBytes": "32",
        "value": "t_address"
      },
      "t_mapping(t_address,t_mapping(t_address,t_address))": {
        "encoding": "mapping",
        "key": "t_address",
        "label": "mapping(address => mapping(address => address))",
        "numberOfBytes": "32",
        "value": "t_mapping(t_address,t_address)"
      }
    }
  }
}